:0200000407FCF7
:1000000030FDFC078105FC078905FC07A105FC07FD
:1000100000000000000000000000000000000000E0
:10002000000000000000000000000000B905FC070F
:100030000000000000000000BB05FC07F329FC07DE
:10004000A733FC070734FC071D27F0074B2EFC07DE
:10005000BF05FC07BF05FC07BF05FC07EDC8FC0793
:100060004335FC07BF05FC074919FC074D19FC0780
:100070005119FC075519FC075919FC07D72AFC0729
:100080004B2FFC07BF05FC07E520FC070521FC07FB
:10009000A715FC07BF05FC07BF05FC07BF05FC074C
:0200000407FCF7
:10051000044885460DF080FE00480047E906FC07C8
:10052000C046C04630FDFC0710490F4808607047C0
:100530000F490620088001220E48D10301600221E4
:10054000016000210260052000070180028A0F235C
:100550001B021A430282084A084802C2401E0028B1
:10056000FBDA62B6704700000024F400C4F5FC0713
:100570000034005080E100E0005CFD07FF0800004F
:100580000F4880470F48004704207146084203D0B7
:10059000EFF309800C490847EFF308800A49084740
:1005A00004207146084203D0EFF309800749084749
:1005B000EFF3088005490847FEE7FEE7FEE7FEE7A0
:1005C0003105FC071105FC07E905FC07D105FC070F
:1005D0000349C8200880034908204880FEE700003E
:1005E000003100500033005005200007018A04222A
:1005F00011430182018A02221143018201894022B2
:1006000011430181054A01211160418A01228908B3
:100610008900D203114341827047000080E200E06C
:10062000F8B503460C460120154600212B4E024624
:10063000412B3BD00ADC012B16D00222072B26D0FF
:10064000402B23D12078022824D32AE0422B33D018
:10065000432B37D0442B19D1207800281AD01F48BB
:10066000407B2870227010E006221D491D485DF76E
:1006700041FD0627002802D006221A4901E0062281
:10068000B11C28465DF712FD27700020F8BD2078C8
:10069000022802D221700420F8BD307828707078CA
:1006A00002E0307A2870707A6870DBE720780028E2
:1006B000F0D00A48807AD4E720780028EAD00748AA
:1006C000C07ACEE720780028E4D0307BC9E700204C
:1006D00070470120704701207047000042E3FC078B
:1006E00090E1F1076C2DFD0708B50F23944C954957
:1006F0009548A37004276370814201D3082323E047
:10070000934D904E914A7519914205D3854201D27D
:100710003B4619E00C2317E08E4EB14209D39542B7
:1007200001D2022310E0854201D206230CE00E2301
:100730000AE0B54201D2012306E0954201D203232B
:1007400002E0854200D20723237000F08FFB0526CC
:10075000360710E000200090142000F019FA042160
:1007600068464CF747FC002801D000F0DEFA07F09D
:1007700034FD00280BD03089000608D50120800701
:10078000006B000403D474480078C0070BD007F056
:1007900046FD0028EFD172B607F065FD02F00EFFAE
:1007A000042807D00BE05BF718FE6C48007804289B
:1007B000DDD1CFE76A480078012810D003206946D0
:1007C0000546087007F053FD69460870002825D0DB
:1007D000022D06D0032D04D0012D1ED01EE00220D4
:1007E000EDE7284600F01FF8B08A800602D55D4983
:1007F0000820088030BFE078002807D05A480068F9
:1008000001898AB2416803205BF736F807F045FD9D
:1008100056480169B943016100E030BF62B6C820A3
:1008200053490880A7E738B505242407218A042204
:10083000114321826946087007F019FD6946087066
:1008400000F028F86946087807F021FD6946087825
:10085000022801D003281CD146484188FF220132DA
:10086000914341806188444A1180418801221143AB
:100870004180002000900099491C00911429FADB66
:10088000618989088900491C618161894906FCD513
:10089000608038BD70B5022801D0032839D1334AB1
:1008A000136904210B43136105242407628A202362
:1008B0009A436282228A02231A4322820F2610233D
:1008C000360202281E4D608A24D088436082208A26
:1008D000A978B04309020843208268682288C01CB6
:1008E000800880210A4322800022521CD2B20A2AA8
:1008F000FBD3628A1A436282204A401E50612088DC
:100900008843208003205AF7DDFF00280BD0012008
:10091000E87070BD98436082208A6978B04309020C
:1009200008432082EEE70020E870208A218AB04345
:1009300009052A78090F114309020843208270BD76
:10094000402DFD0730FDFC070000FD0700C0FC073F
:100950000C0100000080FC075877FD07B42DFD074F
:10096000B477FD07003300505876FD0700ED00E036
:100970000031005020000050BA2DFD070000F407A0
:100980007047704770B50D46002441F7F4FF2855B5
:10099000641CE4B2202CF8D3002070BD10B55DF7C4
:1009A00073FB10BD10B55DF778FB10BD7047704745
:1009B00005210907488A012280088000D2031043DC
:1009C000488270476A480178002902D0802141702E
:1009D00070476849002008706749C87070476449CB
:1009E0000A78002A03D000280CD002200BE000284F
:1009F00001D0022000E001205E4908705E4901201C
:100A0000C8707047012080304870704710B55B4A4D
:100A10000821118072B6052109070A8A04231A43A6
:100A20000A820A898024A2430A810A894024224337
:100A30000A81534A14691C4314614A8A20239A4349
:100A40004A820A8A02231A430A820A8A0F231B0255
:100A50009A430A824B4A5388FF240134A3435380AC
:100A60000028088A03D001221043088206E04008CB
:100A70004000088243490020E031088000204249BC
:100A8000C043086000BF00BF00BF30BF10BD0028DA
:100A900005D0012804D0022804D101209FE791E766
:100AA0000020FBE77047334900200978002904D073
:100AB000012903D0022900D102207047012070478C
:100AC0002B488178002904D0491E0906090E81703F
:100AD00019D142780021002A04D09207920F0270A7
:100AE000417004E00278002A01D0521E0270120602
:100AF000120E017007D0012A03D0022A03D101206F
:100B00006DE70020FCE7704700B5194A9078401C5B
:100B100090701078002805D1FFF7C5FF431CFFF740
:100B200051FF137000BD12490120C8707047104971
:100B30000020C87070470E48C07870470020EFF35F
:100B40001081012282F310880522120712891206F1
:100B500005D40A48028901231A4302811846002954
:100B600000D0012181F31088704708480078704751
:100B7000482DFD07B477FD075877FD070033005077
:100B800000ED00E02000005080E200E0B42DFD0701
:100B900070B5FF4D04466878002822D0FD480188D2
:100BA0004907FCD4C188808809040E18FA492046F8
:100BB000484331465DF700FA002169706861B00171
:100BC00021465DF7F9F9A861F44800234443E01792
:100BD0000105220B1143200532460DF0DBFAE962D4
:100BE000A86270BDEB494880088803221043088042
:100BF0000888042210430880E549012048707047A6
:100C000070B50521090708893022904308810889B9
:100C1000802318430881088980088000401C0881CF
:100C20000889082210430881DD4804881C43048099
:100C30004C8A94434C820D89402425430D810D8AB2
:100C40000426B5430D828D8AAD07FCD5D04EAA256A
:100C500035618588F026B543B035858085880326C3
:100C60003602B543858085882D092D0185808588CC
:100C70000126B60235438580858876003543858018
:100C800085887600354385804D8A95434D8202885C
:100C900052085200028002889A4302800A89A243C5
:100CA0000A814089800503D5BD49052060318880CF
:100CB000012080070168821591430160B9480168ED
:100CC0003F225202914342148918016001680203D5
:100CD0001143016070BD704710B5B3485BF70AFC63
:100CE00010BD10B5AE494888C006040F48880122DF
:100CF0001043488048881E2290434880A5484B01F5
:100D000043800523038003885B07FCD480884B88DD
:100D1000934314334B804B885B085B004B804B88BC
:100D20009343620013434B8010BD70B59F4901206F
:100D3000C863C86B0028FCD101208007C069944CAF
:100D40000021E268904200D2E160A2780125002AE9
:100D500004D0A170E060FFF7C4FF11E0E168192240
:100D6000411AD201914211D3E060FFF7BAFFA18886
:100D7000884201D9411A00E0091A89B2182905D31D
:100D8000A0800DF06DF9002800D1A57070BD10B5E0
:100D90007F494969484386495DF70EF910BD10B592
:100DA0007B490122D2038969904205D30DF05DFA97
:100DB0008905800A084310BD4843800A10BDE6E754
:100DC000EDE71FB5684601F0A9FE009841F7D9FD8F
:100DD0001FBD6F4B0020197800290DD073490122E7
:100DE000CA63CA6B002AFCD101218907C969714A0B
:100DF0001268914201D2012070470021197070479A
:100E00000020704708B566494A8801231A434A8082
:100E1000002200920099491C00911429FADB052157
:100E200009074B899B089B005B1C4B814B895B0628
:100E3000FCD54880192080010092521C0092824209
:100E4000FBDB488980088000488148890006FCD582
:100E500008BD10B5584900200860FFF73DFF01208C
:100E60008007016B49004908016310BDF8B5484986
:100E7000012008705148C821018000254580504F4D
:100E800008267E8041F764F900F0BAF800F00EFC05
:100E900000F059F8424C20898004000F07D12089C6
:100EA0000F2189028843092189024018208108F016
:100EB00051F9012041F765FDFFF7A2FE41480068A6
:100EC00041F7F8F94048C5700571012080070168B5
:100ED000821511430160FFF774FF1420FFF782FEB3
:100EE0001420FFF755FEFFF76DFD05F0D1FB07F06D
:100EF00050F9FFF7AEFF05200007C5826088E021AA
:100F00008843A030608001200DF0D4F82B49C82020
:100F100008807E80F8BD1E4B2149DA88E031002828
:100F200009D0586950430A88C00292099201800E84
:100F300002430A8070470888920680098001920E59
:100F400010430880704738B520480021016005240F
:100F50002407638A402213436382638A9343638234
:100F600041611B4A826201221204C26220888025EC
:100F70002843208000910098401C00906428FADBF0
:100F8000002000F02BFE0248062212491C3023E00C
:100F9000502DFD07001600500024F400102700001B
:100FA0002000005000020040E2040000C0000040A9
:100FB00040420F00C8F5FC07AC76FD070031005039
:100FC000003300504C76FD075877FD070000F4070A
:100FD000204F101AA8FFF8075DF768F80648018847
:100FE000064801810449891C0988418100F0F2FD0D
:100FF0002088A843208038BD10FEF807502DFD073B
:1010000010B50CF0E3FE302219491A485DF74EF88E
:101010001949002008701A4A184911601A4A1949DA
:1010200011601B4A194911601A4A0A2111701A49A4
:101030001C4A0870194932200870194912200860AA
:1010400001211160184908601849132008601849E7
:101050001420086017491520086017497620086099
:1010600016499420086017491548086010BD000013
:1010700058ECF107FC76FD07F976FD0790E5FC07D3
:101080005076FD0750E3FC075476FD07D4E4FC07D7
:101090005876FD07B476FD07B576FD07DD76FD07CA
:1010A0005C76FD076076FD076476FD076876FD07D0
:1010B0006C76FD077076FD074876FD074476FD07E0
:1010C000005CFD074C76FD070843012189030346B8
:1010D0000B4343490B80434B1843088009200243CC
:1010E0004A8070473E490A880F239B0100079A43B4
:1010F000800D02430A8070473949002008807047FC
:1011000037483949028802231A430280491E02D314
:1011100002889207FAD400210181408970470AE0D1
:1011200000BF00BF00BF00BF00BF00BF00BF00BFC7
:1011300000BF00BF00BF401EF2D2704770B5022250
:10114000510204464E003046FFF7BEFF1420FFF761
:10115000E6FF002C01D0092000E00720FFF7C2FFC6
:10116000FFF7CEFF05460120FFF7D9FF022200213D
:101170003046FFF7A9FF002C01D0092000E007202E
:10118000FFF7B0FFFFF7BCFF4019154A002111809F
:1011900070BDF0B5124C154820801420FFF7BFFF3A
:1011A00001256D02A580E5802088E90008432080A4
:1011B00020888E10B0432080FFF7A2FF07462088CA
:1011C00030432080FFF79CFF0246780071424018B0
:1011D000281A52005118691AA080E180F0BD000061
:1011E0000015005001400000A086010001480000E9
:1011F000444910B5884201D9642010BD42494118C4
:1012000078290BD863210901401A000479215CF781
:10121000E9FE4821484300141C300FE03A49E03110
:101220004118DF290CD855210901401A0004E0219A
:101230005CF7D8FE182148430014001DC0B210BD51
:1012400032494118DF2908D847210901401A000412
:10125000E0215CF7C7FE8013F0E7002010BD2B49AA
:1012600010B54942884209D3494240186421484395
:101270004721C9005CF7B6FEC0B210BD002010BD0A
:1012800010B52349498989050BD5FF21B131884221
:1012900005D3FF386421B138484389000AE00020B3
:1012A00010BD552109018842F9D3401A64214843F1
:1012B000FF2161315CF796FEC0B210BD10B5044647
:1012C000FFF767FF032C11D11148408980050DD528
:1012D0000120FFF733FF80B200F013F8012C07D094
:1012E000022C08D0032C09D0002010BD0020F0E70C
:1012F000FFF77EFF10BDFFF7B2FF10BDFFF7C0FF85
:1013000010BD7047A9060000CFF9FFFF8FFBFFFF5C
:1013100020000050FCB50178E14B09010C3BCB18D3
:101320009E46DF4BDE4A0A3BCB180193DC4B8A1802
:10133000083BCB189C46DA4B9B1FCE181B1DCB18C5
:101340000093D74B1B1FCC18118849084900118006
:1013500041788378057A194383792B431943C379FC
:101360001943437A19434389194383891943C3892C
:101370001943438A19431180037C0F2B40D0C8497D
:1013800002787431002A06D0012A04D0022A0DD036
:10139000032A1AD10AE0EFF31082012585F31088A1
:1013A0000D882D092D010AE001220CE0EFF31082D7
:1013B000012585F310880D88F027BD431B011D43CF
:1013C0000D80002AF0D182F31088EFF31082012300
:1013D00083F310880378012B0DD0022B01D0032B4F
:1013E00009D10B88057C1B071B0FAB4203D10B886F
:1013F0000F252B430B80002A24D0012181F3108874
:1014000073464169826919800B0C01990B80614612
:101410000A80110C31808188002915D0491E218055
:10142000818B009A491E118082789E49002A00D043
:10143000026A0378DB00CA50426A0078C000401894
:101440004260FCBD0021D9E7818BE7E770B5954D7F
:10145000C4002B51924B00010C3BC5189B1CC418B7
:101460008F4B8F4E9B1EC318361F80192980090C85
:101470002180521E02801A8070BD10B50178884B01
:101480000901874A864C083B8A18CB18A41F0C19FF
:10149000118849084900118081691980090C21804F
:1014A00082788049002A00D0026A0378DB00CA50A3
:1014B000426A0078C0004018426010BD70B5794D96
:1014C000C4002B51764B0001083BC5189B1CC41867
:1014D000734E1B1DC318361F80192980090C2180EB
:1014E000521E02801A8070BD6D4A0001121F8018C2
:1014F0000180704718B56A4B0201D21808230129F0
:1015000007D0108840084000108010889843108051
:1015100018BD148869460C800C8801210C4369466B
:101520000C806049C0000858002803D0694608882C
:101530001843088068460088108001205A49000539
:10154000086018BDF8B58C46012757493F05803122
:101550000F60544CC600A559002A03D00021A151A8
:10156000FFF7C8FF002D03D0301940686146A84737
:101570004D480760F8BD4A490C398889898BC007F6
:10158000C00FC907C90F464A014314329089C007EA
:10159000C00F0843918BC907C90F014301D0012037
:1015A000704700207047F8B53D4F74377E8800259E
:1015B000012463E0F0075ED039482901001F0B18B1
:1015C000801C374A081889181A880088824204D17A
:1015D0000888000601D4012000E00020B988844674
:1015E0002046A8408143C20701D0002238E082078C
:1015F00001D5012234E0420701D5022230E0020782
:1016000001D503222CE0C20601D5042228E082067F
:1016100001D5052224E0420601D5062220E002067B
:1016200001D507221CE0C20501D5082218E0820579
:1016300001D5092214E0420501D50A2210E0020575
:1016400001D50B220CE0C20401D50C2208E0820473
:1016500001D50D2204E0420401D50E2200E00F2244
:10166000204690400143B98018886246401C81B2F0
:101670002846FFF767FF6D1CEDB27608002E01D0FB
:10168000082D97D3F8BD064A0101921C89180988D4
:10169000012257E702490001891C40180088704761
:1016A0000C3600507425FD0700E100E0704710B5CE
:1016B000032800D10420CE4C40010019490008182D
:1016C0001A43C28010BD032800D10420C84A40013B
:1016D000801801228A4082807047032800D10420AC
:1016E000C34A4001801801228A404280704770B589
:1016F00006460498144600280D46304602D0FFF7EF
:10170000ECFF01E0FFF7DFFF224629463046FFF7F6
:10171000CEFF70BD10B5002807D0431EB44C5B004F
:1017200070341B19012802D002E00023F6E70831CB
:10173000188801248C40A0438A4002431A8010BDBF
:10174000032800D10420AA4A400180180088012201
:101750008A40104000D001207047FFB583B0A5A09B
:101760000068009010460A38FF2601368640019036
:1017700014460D9FB0B200F02AF9002F01D00121CC
:1017800000E000219C4D8140A889B0430143A9811C
:101790003F2000F01CF98740A88980098001074399
:1017A000AF81B0B200F013F90C998140288AB043A0
:1017B000014329820126019930468840074680B2BC
:1017C00000F005F906998140288AB843014329822F
:1017D0003F2000F0FCF803996A46525C04995118C6
:1017E00081408548620040381018828D920992012C
:1017F00011438185A007C20EFF21914080209040B7
:10180000002C0BDA2207120F083A93087B4A9B0040
:101810009A18D3698B430343D36107E0A308784A3E
:101820009B009A1813688B4303431360E006C00EB5
:1018300086407448066007B0F0BD6F490A8A0121EE
:101840000A3881400A40C80701D0002038E08807E4
:1018500001D5012034E0480701D5022030E0080717
:1018600001D503202CE0C80601D5042028E0880615
:1018700001D5052024E0480601D5062020E0080611
:1018800001D507201CE0C80501D5082018E088050F
:1018900001D5092014E0480501D50A2010E008050B
:1018A00001D50B200CE0C80401D50C2008E0880409
:1018B00001D50D2004E0480401D50E2000E00F20E2
:1018C000C240D0B2704770B501240A3884400D463A
:1018D000A0B200F07CF885404748018AA1430D433F
:1018E000058270BD70B5012421460A3881400D463D
:1018F00088B200F06CF884403F48C189A9430C438A
:10190000C48170BD02460A3A042A04D83E4A8000C7
:10191000801880388165704710B504460A3804285D
:101920000AD82046FFF7DEFF3749A000401880386C
:10193000806D002801D0804710BDE106C90E01204E
:1019400088403249086010BD0A20E5E70B20E3E734
:101950000C20E1E70D20DFE70E20DDE710B55B0688
:101960002B4C5B0E6380D301002806D001280AD0DF
:1019700002280ED0032812D018E0072916D8012A11
:1019800014D8491C10E0052910D8012A0ED80931B5
:101990000AE009290AD8012A08D80F3104E00729EA
:1019A00004D8012A02D819310B4300E00023238018
:1019B00010BD174900200880704740061449400EAA
:1019C00048807047124840884006400E7047002803
:1019D0000BD0411E4840C003010C002002E0490822
:1019E000401C80B20029FAD17047102070470000D7
:1019F0000030005001090F190014005000ED00E004
:101A000000E400E000E100E09425FD0780E200E052
:101A10004000005018B5F84900220A600520000770
:101A2000448A40231C434482448A9C4344824A6142
:101A3000F24B8B6201231B04CB62048880231C437E
:101A400004800092521C0092642AFBDB0A68D208D0
:101A5000D2000A6001889943018018BDE84A8100DC
:101A60005258E5498A62CA6A7F231B049A43E44BB1
:101A70001B1F185C00040243CA627047DE49CA6A31
:101A8000920A92020243CA62704730B5DA49FF23D4
:101A90000868DB04C008C00008600868FF22013243
:101AA000104308600868C008C000401C086000209F
:101AB0009E2402E0401C082805D28500651BAD006D
:101AC0005D59ED07F6D10B68DB08DB000B600B6896
:101AD00093430B6030BDF7B594460026FFF7D5FF62
:101AE0000546082824D2C44C2068FF270137384314
:101AF00020604E20401B00236246019900F01AF836
:101B000000280BD00098002341004F20401B1A46AC
:101B1000491C00F00FF8002800D001262068B843C7
:101B20002060002E04D02068012149020843206073
:101B30003046FEBDFFB581B00546AF4C02981F464A
:101B400001262062039860622068C008C000801CE3
:101B50002060F00328436060A068C007FCD0032227
:101B6000002092032946114304E06160401CA268F2
:101B7000D207FCD0A2685207920F02D00A2802D0E6
:101B8000F3E70A281FD12846039A029900F041F989
:101B90000646B74317D02068C008C0002060206800
:101BA000C00510D42846039A0299FFF794FF002835
:101BB00009D02068C008C00020602068C008C000AC
:101BC000401C206001262068C008C000206030460C
:101BD00005B0F0BD8849002008607047864900289C
:101BE00002D0FF20023000E0012008607047FEB5FF
:101BF000074601201E460290002B05D000250C460A
:101C0000012A03D0700817E00120FEBDFF20E1008B
:101C1000C0040A180898FFF7E1FF1168764A00200F
:101C2000106020460125641C3A68089BFFF782FF7C
:101C30000028EAD0701E40080190002000900EE0BD
:101C4000A800C1194A6839582046089BFFF772FF5F
:101C50000028DAD00098641C401CAD1C009001994B
:101C60008842EDD3B54212D2FF20E100C0040A1829
:101C70000898FFF7B3FF6049526800200860A80089
:101C800039582046089BFFF755FF0028BDD0029821
:101C9000FEBD70B5584C049DE0604800012A09D093
:101CA0000021084320615B1E6361002D04D0FF20EA
:101CB000153002E00121F4E71420206000F0A4F8C0
:101CC000A068800701D5002070BD012070BD70B5EF
:101CD000494C049DE0604800012A09D000210843D6
:101CE00020615B1E6361002D04D0FF20143002E0F0
:101CF0000121F4E71320206000F086F870BD70B574
:101D00004900049D012A00D000223B4C114321616F
:101D1000591E6161002D02D0FF21053103E02168C9
:101D2000C908C900091D2160002108E0A268120548
:101D3000120F082AFAD08A008258A261491C9942DF
:101D4000F4D300F061F8A068800701D5002070BDD1
:101D5000012070BDF8B5284C069FA5682E06802589
:101D6000002E02DAA6682E43A6604900012A00D0A0
:101D7000002211432161591E6161002F02D0FF2111
:101D8000043100E003212160002107E0A268120570
:101D9000120FFBD0A2698E008251491C9942F5D3E3
:101DA00000F032F8A068000604D5A0682843A060BF
:101DB0000020F8BD0120F8BDC01C80080E49401E5F
:101DC00048611048016910221143016170470D48B4
:101DD0000169102291430161704710B5052000F0A0
:101DE00050F810BD10B5062000F04BF810BD10B52E
:101DF000072000F046F810BD0000F407204F101A2D
:101E0000F0E5FC0702000050264881684906FCD531
:101E10007047F0B5234B1C68FF25C000ED04451941
:101E20001868C008C0001860BFF35F8F18684026AC
:101E300030431860BFF35F8F1868C008C000401CB3
:101E40001860986806068020002E02DA9E68064315
:101E50009E602E686D681F68FF08FF001F60BFF35B
:101E60005F8F1C609C68240603D5996801439960C4
:101E700005E0AA4203D1B14201D10120F0BD00200A
:101E8000F0BD08490A68D208D20002430A60886897
:101E9000C006FCD58868800601D501207047002067
:101EA000704700000000F4078307FF22DB0E9A4012
:101EB0008907090E994000280BDA0007000F08383F
:101EC0008308C5489B001818C36993430B43C3613B
:101ED00070478308C1489B001B181868904308434B
:101EE000186070470122BE489104016049000160FA
:101EF000EFF3108182F31088BA488388120293436B
:101F00008380C3889343C380002903D0012080F3DA
:101F1000108870470020FAE7F8B50446FFF7E2FFA3
:101F2000204600F0FFF8EFF31080012181F31088C4
:101F3000AC4DA9880122520291432279D207920D19
:101F40001143A980002800D0012080F31088207957
:101F5000FF26013601281AD1E07B002800D1082095
:101F6000EFF31082012181F31088AB8869460B8062
:101F700009880B0A1B02034369460B80088830431B
:101F80000880A880002A29D0012080F31088627977
:101F9000617C207C636900F0E5F8A179607900F04C
:101FA000FBF8EFF31081012080F31088EA8868467F
:101FB00002800088020A12026846521C02800288CF
:101FC00032430280EA8000290AD0012080F3108881
:101FD000A079854F854D012804D01BE00020D4E76F
:101FE0000020F3E70120A16866794003B94201D9D6
:101FF000801004E07E4A914201D901200003484349
:1020000064215BF7D9FF002E0BD06968090E090621
:1020100001436960A16862790020B94207D90320B1
:1020200009E0A968090E09060143A960F2E7704BAF
:10203000994200D901202968002A08D03022914312
:102040000001014329606079002805D007E00322E0
:10205000120491430004F4E7A07900283CD000204A
:102060002A684003012149038A43104328606079AC
:10207000002833D0A079002830D000202968400003
:1020800002229143084328602868032109078843F6
:1020900061798907890808432860286851038843C3
:1020A000217BC907490C084328602868042188431C
:1020B000617BC907490F084328602868802188434D
:1020C000A17B00290CD00021C901084328602868A1
:1020D000012108432860F8BD0120C1E70120CDE7B8
:1020E0000121F1E71FB543480168002909D000200C
:1020F000009001903D480C300290001D039068460E
:1021000088471FBD1FB53B480168002909D03748E3
:102110004269009280690190002002900390684615
:1021200088471FBDF8B5044602790326002536020C
:1021300000786178012A00950ED01F230022FFF756
:10214000D6FA607900950028E178A07807D01E23A0
:102150003246FFF7CCFAF8BD1F233246EFE71E23C5
:102160000022F6E770B5234C002812D023601C4CE7
:102170002148803C002A07D00125AD0405601220CB
:10218000FFF792FE256070BD0125ED040560132068
:10219000F6E70020206070BD144A4023012909D0D1
:1021A0000028908B10D0C008C000401C9083908BFA
:1021B000984307E00028908B03D0C008C000801C23
:1021C000F4E718439083704718439083908B38212D
:1021D00088430830F6E7000000ED00E000E400E08E
:1021E00080E100E0401C00500077010000400050FA
:1021F00080BB0000A825FD0780E200E070B5494CD7
:10220000C8206168484A0823484D00290FD0267825
:10221000002E0FD00220FFF73DFA616888476188E1
:102220004018401E81B20220FFF75EF970BD108099
:102230006B80FEE73E4CA489E40702D010806B80DF
:10224000FEE7384C0834A08B8847A0612046FFF792
:1022500014F901210220FFF74DF970BD10B50446B5
:102260004169304886B04160A1790170218941807F
:10227000618968460180A1894180012202710021A3
:1022800041718271206902906846017341738273C3
:102290000522C2730174032242740591FFF73CFECC
:1022A000A188206800F011F81E480121083000784C
:1022B000FFF720F906B010BD1A4810B508300078B5
:1022C000FFF7E1F9FFF70EFE10BD10B5154A022326
:1022D00008321370174B53610023D37120241472FA
:1022E00004245470144C14620124E40294810324E5
:1022F000D381240254810924147410249471082475
:10230000947053625382131B1C78002C00D08024DD
:102310005472918390615888908002480830FEF78B
:10232000F9FF10BDAC25FD0700310050003300500F
:102330002036005014400050FD21FC0710B54F48D6
:1023400041780078FFF7BFF910BD10B54B484178D0
:102350000078FFF7C2F910BDF8B50E46154647499B
:102360000278079F0A7040781C464870FFF7EDFF1F
:102370000520000781880122D20211438180404854
:1023800001884908490001800188FF228132914378
:10239000F20111430180018840229143AA011143B7
:1023A0000180018804229143A20011430180018829
:1023B00002229143069A52001143018001880122B2
:1023C00092039143BA03114301800188182291437B
:1023D000089AD20011430180018801221143018033
:1023E000F8BD27490A88520852000A800A88FF234C
:1023F00081339A43C00102430A80088801221043B6
:102400000880704710B51E480188490849000180BE
:102410000520000781880122D2029143818017485C
:1024200041780078FFF759F910BD1548018849082F
:1024300049000180704710B5114900230A88D20570
:10244000920F012A01D9040C8C80488008888004EE
:10245000FCD50120C880012A01D988880304488856
:10246000C01810BD10B50446FFF768FF2046FFF7FF
:10247000E2FF0446FFF769FF204610BDDC25FD079B
:1024800000120050FC4AD1609060704710B50120E6
:10249000FFF7A7FF05200002FFF7E4FFC0B210BD61
:1024A00070B50024F54DFFF7F1FFC00704D0641CA0
:1024B000AC42F8D30020C04370BD70B5FFF7F0FF09
:1024C000002817D1FFF78DFFFFF738FF9F20FFF798
:1024D000B2FF0020FFF7AFFF05040020FFF7ABFFBE
:1024E00004022C430020FFF7A6FF20430546FFF718
:1024F0002CFF284670BD70B5FFF7DFFF0025DE4AD0
:1025000000281BD0411C19D0DD4B002114244C4362
:102510001E59E418646826400440A64212D11424CF
:1025200008B24C431080E418A5689560E468D46054
:1025300014246043C018506048B270BD0120C043ED
:10254000556070BD491C89B20629DFD30020C04305
:10255000556070BD70B5FFF7A3FF002815D1FFF7D8
:1025600040FFC64E00250620FFF77CFF0024FFF742
:102570008DFFC10703D1800701D5002070BD641C09
:10258000B442F4D36D1C322DEDD30020C04370BD96
:1025900070B5FFF785FF002815D1FFF722FFB74E72
:1025A00000255020FFF75EFF0024FFF76FFFC107F3
:1025B00003D1800701D5002070BD641CB442F4D360
:1025C0006D1C322DEDD30020C04370BD70B5FFF7F8
:1025D00067FF002811D1FFF704FFA84E0025042053
:1025E000FFF740FF0024FFF751FF800707D0641C6E
:1025F000B442F8D36D1C322DF1D30020C04370BD1E
:1026000010B50446FFF74CFF002808D10120FFF762
:10261000E8FEE01DF930FFF725FFFFF741FF10BD91
:1026200070B5064694480D4680685119814201D91B
:10263000441B00E01446FFF733FF00281AD10220A4
:10264000FFF7CFFEFFF77AFE03212846090608436D
:10265000FFF7F1FE0020FFF7C4FE002505E0002093
:10266000FFF7E9FE30706D1C761CA542F7D3FFF72B
:102670006CFE204670BD70B505467F480E46C068AA
:102680001446824200D984B2FFF70AFF00281ED107
:10269000FFF760FF00281AD10220FFF7A2FEFFF724
:1026A0004DFE0121304649060843FFF7C4FE0020D5
:1026B000FFF797FE05E028786D1CFFF7BCFE641E4F
:1026C000A4B2002CF7D1FFF740FEFFF7E9FE70BD82
:1026D00070B50D460446FFF73DFF002802D00020EC
:1026E000C04370BD0220FFF77CFE28062043FFF7A1
:1026F000B9FEFFF7D5FE70BD70B50D460446FFF775
:1027000029FF002802D00020C04370BD0220FFF73F
:1027100068FE28062043FFF7A5FE002070BD10B517
:10272000FFF718FF002802D00020C04310BD002092
:10273000FFF757FEC720FFF795FEFFF7B1FE40B247
:1027400010BD10B50024FFF7ABFE002811D1012009
:10275000FFF747FEFFF7F2FD09200003FFF76BFECE
:102760000020FFF768FE0020FFF765FE84B2FFF748
:10277000ECFD20B210BD70B500252C46FFF790FE91
:10278000002818D1FFF72DFEFFF7D8FD4B20FFF7EB
:1027900052FE0220FFF725FE0020FFF74CFE00202E
:1027A000FFF749FE002604463046FFF744FE30435B
:1027B0000546FFF7CAFD2846214670BDF7B582B031
:1027C0002D4F0E460091F96814460D4630465BF7D2
:1027D000F3FB401C6843451E0020FFF702FEB8686B
:1027E000801BA04200D204462646002719E000982C
:1027F0008019A84202D900982E1A761C0298B2B20B
:10280000C0190099FFF737FF002803D00020C0430C
:1028100005B0F0BD681C00901748BF19C0682D189E
:10282000E61BA742E3D33846F2E710B5FFF738FEC0
:10283000002805D1FFF7D5FDB920FFF713FE0020D2
:1028400010BD10B5FFF77AFDFFF77FFD0020FFF701
:10285000C8FDAB20FFF706FE002010BD70B5064C8A
:102860000546606800280DD0FFF774FE00280CD0E4
:102870000020C04370BD0000E025FD0780841E00DD
:1028800000E6FC070520C043F4E7FFF7FFFD6168A1
:10289000097C884329400843FFF7B2FEEAE710B5F8
:1028A00040484068407CFFF7D9FF002801D040B283
:1028B00010BDFFF734FF10BD70B5054639480E4610
:1028C000C0681446824200D984B2FFF7E9FD0028AF
:1028D000D0D1FFF73FFE0028CCD10220FFF781FDC9
:1028E000FFF72CFD0121304649060843FFF7A3FD01
:1028F0000020FFF776FD04E02846FFF79CFD641EEC
:10290000A4B2002CF8D1FFF720FDFFF7C9FDB1E715
:10291000F7B582B0234F0E460091F96814460D4674
:1029200030465BF749FB401C6843451E0020FFF71B
:1029300058FDB868801BA04200D2044626460027F6
:1029400017E000988019A84202D900982E1A761C28
:10295000B2B200990298FFF7AFFF002802D0002022
:10296000C04355E7681C00900E48BF19C0682D1879
:10297000E61BA742E5D338464AE71FB56A465173BE
:102980001073002000900190034602460146029019
:1029900003A8FFF7E1FCFFF754FFFFF7ACFD04B01D
:1029A00010BD0000E025FD070F4A518807235B0298
:1029B0009943400201435180704705200007018878
:1029C00030221143018001880322114301807047A6
:1029D0000520000701883022914301800188890881
:1029E0008900018070470000800000502049086085
:1029F00070471F480068002800D0004770471D4AF4
:102A000013695B085B00136153691B0E1B06401EB4
:102A1000034353619069000E000690611069022320
:102A200098434900084310611069042188431061EC
:102A3000106901210843106170470E488169090E31
:102A4000090681610169490849000161704700B5C3
:102A50000021FFF7D4FF07480169C903FCD5FFF740
:102A6000ECFF00BD034880690002000A70470000C7
:102A7000F025FD0700E000E030B51A4B1C88082562
:102A8000C907AC43090F0C431C8019880424D207E2
:102A9000A143520F1143198019880222C0079143A4
:102AA000800F01431980104801680902090A0207D2
:102AB0001143016030BD0D4B58809980DA8070471A
:102AC00001200B49C0030860704701200849C0037A
:102AD00080310860704707480068002800D0004730
:102AE00070470000003400500CE400E00034005057
:102AF00000E100E0F425FD0770B5054614460E46DA
:102B000001200BF0EFFB28460BF0F8FB30460BF0F2
:102B100007FC0148C48170BD00340050F1B5614824
:102B200092B0614904460490088A079089220520E2
:102B30000007028101225D4B52031A800288802324
:102B40001A4302800288920892000280088A0222B8
:102B500010430882A41C00F0ECFA3FF731FF3FF766
:102B600035FF0020694601E00888401C088008887D
:102B70009128F9D34E4801881191418810914D490F
:102B8000CA880F920A890E92C2880D92408B0C90CF
:102B9000494840880B9048880A9000F053F8414813
:102BA000002580B22B468446444861464180FF217F
:102BB000818001210180C188C907FCD10A460846ED
:102BC000049E275C365C7E40F607F60F8E40164367
:102BD000491CC9B2F2B2082905D112994A556D1C97
:102BE0000021ADB20A46304FC82620373E80103053
:102BF000FF2680B2B600B042E2D95B1C9BB2022B2A
:102C0000D2D32949079808822D49002008802848F6
:102C1000119901801099418026490F9ACA800E9A15
:102C20000A810D9AC2800C9A4283234A0B985080E5
:102C30000A98488005200007028880218A43028084
:102C400013B0F0BD08B51A49002008804880194A21
:102C50001C4BD380FF23D2331381C880C321518002
:102C6000174A082111806946088003E06A461188E6
:102C7000491C1180694609889129F7D36946088063
:102C800003E06A461188491C118069460988912928
:102C9000F7D3694601E00888401C0880088891281D
:102CA000F9D308BD1001FC07E030005000020040DD
:102CB00000240050602800500026005000350050CD
:102CC0002020005080800000854B30B4844A854825
:102CD000603309E0016800290CD04468257815604C
:102CE000491E641C12C00838998B8907C90FF1D19D
:102CF00030BC70470021416053680224A3435360F5
:102D00008268002AF4D0816030BC0020104770B582
:102D100005231B079C8840252C439C80704B9C8975
:102D20008025AC439C8107241C8100249C809E89C3
:102D30002E439E81060A9E80C0B218809A81684800
:102D4000C03001809889A8439881674908200860AD
:102D500066490A6803231202120A9B071A430A6093
:102D6000614980390860624908605E480476046100
:102D7000C4604460046070BD5949222008617047F6
:102D800008B5574901204A695206D20F13D04A6943
:102D90009206D20F0FD000220A610092FF225F320A
:102DA000009B5B1C00939342FAD34A69D207D20F6F
:102DB00002D022200861002008BD4948A0210161FD
:102DC00041698906C90FFBD041694906C90FF7D08F
:102DD0007047444B5A61D9601861414801214268EB
:102DE0008A430A434260704710B53E4CA26021609E
:102DF0006060FFF769FF6068002805D038494868BF
:102E0000022290431043486010BD10B5354B344C3E
:102E10009A6019605860324A603409E0596808784D
:102E200010601868491C401E03C3083B002809D0E5
:102E3000A08B8007C00FF1D151680220814301436C
:102E4000516010BD00205860F6E710B52448816835
:102E50000907090F01291AD002291CD0042917D00B
:102E60000C2914D11F4A117E012910D1416909068C
:102E7000C90F0CD00021D160116183885B085B0011
:102E800083805369002B02D001205161984710BD07
:102E900000F007F810BDFFF717FF10BD11490862D9
:102EA000704710490E4809E002680B691A70CA6839
:102EB0005B1C521E0B61CA60002A04D04269D20713
:102EC000D20FF1D1704700220A6143685B085B00B2
:102ED00043604B69002BF5D000204A611847000081
:102EE00000110050802DFD0780E100E000E400E0CB
:102EF00080E200E08307FF22DB0E9A408907090E7B
:102F0000994000280BDA0007000F0838830878483A
:102F10009B001818C36993430B43C3617047830830
:102F200074489B001B18186890430843186070474A
:102F300071480078002802D00020C043704701206B
:102F40006E49000408600020704710B5FFF740FD8F
:102F5000052109078888684AC30B104618D0684BBA
:102F60001C88640714D51178890710D519880222A6
:102F70001143198019884908490019804468002CB8
:102F800005D0985E0421595E0A229A5EA04710BDC2
:102F90008988C906FBD51178C907F8D0594901229B
:102FA0008A800A8880239A430A8080680028EED0AD
:102FB000804710BDF8B505242407A58810263543A1
:102FC000A580504C00252581D2B262802A46D700C8
:102FD0000546FD40EEB255002D196E810E46FE40AD
:102FE000F6B26E82521C042AF1DBE28903252D021F
:102FF0000004800FAA4300020243E281E08A090430
:10300000890FA84309020843E0820125A5803E48B4
:103010002E0406609806800E8030208029461020FD
:10302000FFF768FF3448017829430170334880383E
:103030000660F8BD30480178490849000170314800
:1030400001218180018880229143018070E72A4913
:1030500088607047284948607047052109078A88B9
:103060000123DB031A438A800178427811434288A6
:103070001143234A11818088D08070471E48FD2269
:103080000178114001701E4801880222114301801D
:1030900001884908490001804AE719490020088150
:1030A0000520000781884904490C8180E6E770B556
:1030B00013490A88022422430A800123124ACD01BF
:1030C00015600A887F26F600B243C00002430A80DA
:1030D00008881843088019461020FFF70BFF0648A0
:1030E00001782143017005488038056070BD0000FB
:1030F00000ED00E000E400E0A42DFD0780E100E029
:10310000000200500001005080E200E00020704703
:103110007047704770470020704701218907086B8E
:103120000722104308637047704740087038C0B2E8
:1031300070474A49484808604A49494848814A48CE
:10314000418806229143891C4180484A6321D180ED
:103150004749444A0988603A1182464909880180F2
:1031600045480078002802D0444930200883704741
:1031700000B58BB0424A4262424A8262424A426190
:10318000424AC262424A0260424A0262424A426083
:10319000424AC261314A3048002110602F4840380D
:1031A000426B1F231B049A434313D21842633C48CB
:1031B0000268C3129A430260026803139A430260D2
:1031C00068464154491CC9B22829FAD301463548FA
:1031D0002822006840305AF769FFFFF7AAFFFDF781
:1031E00080FD314908800AF03BFF0BB000BD10B5EF
:1031F0001A491948086019484038416B1F221204C7
:10320000914342138918416300060168C908C90047
:10321000016005200007018989088900491C018196
:103220000189082211430181FFF783FF01200AF081
:1032300041FF10BD1048007870470F490120087009
:103240000E493020088370470B49002008700B4955
:1032500016480883704700004C0554078000004062
:10326000EBE600006028005000260050002C0050C3
:103270005A2DFD07582DFD07B02DFD0700240050E5
:103280000D31FC071131FC071731FC071B31FC071E
:103290001331FC072931FC071531FC072B31FC07E2
:1032A000000200404C76FD07542DFD0730D0000091
:1032B000F0B5AE4AD3785479C01AC3B2AC48007D99
:1032C0001EE0AB4D0A26203D2D6B4643AD19AE786E
:1032D000D5786D1CEDB2D570A54201D9F7070CD198
:1032E000760604D09668651BAD19956005E01579E2
:1032F0006D1C1571D5686D1CD560401C4007400FD2
:103300001D465B1EDBB2002DDBD11079A04200D937
:103310005071002902D00020D0701071F0BD70B53E
:103320000124A407A06BFDF74BFD9049914E0A695B
:10333000851800200861314628465AF73DFE8E491F
:10334000486032465043281A00D0301A80B20860D4
:10335000206B082188430843206370BD10B5FFF738
:1033600037FB052000074189890708D04189890872
:103370008900418181494A88520852004A80018966
:10338000802211430181018A042291430182818AB2
:103390008907FCD500F00AF901208007016901695D
:1033A0004907FCD510BDF8B505263607708980079A
:1033B00020D0B08A400701D505F0CCFE6F4D28889B
:1033C0008027384328806E4CFF20608004202080B6
:1033D000FFF7F3FA7D21C900E088A2880004801875
:1033E0008842F9D9052020806048C08870802888EC
:1033F000B8432880634801894907FCD4FFF7AEFF32
:10340000F8BD70477047F8B50127584EBD072C69C5
:10341000002C7DD0200606D58020A86149F793FCBA
:103420001420FDF7DFFBA0070BD50220A86156484A
:10343000002100688030008EC0B2FFF739FF45F7E9
:1034400048FC200726D50820A86150485221006872
:103450006430808848434E4909684018C030808BEA
:103460000121000AFFF724FF05F07FF8B07800285B
:103470000BD046480268243207D04032D07E002864
:1034800003D1D07F08210843D077002045F7E1FB26
:1034900004203070E00505D5FF200130A86101202F
:1034A00045F7D7FBA00504D501204002A86149F7E4
:1034B000B3FC600603D54020A86145F7C5FBE006D4
:1034C00003D51020A86143F7FAFF600726D5042032
:1034D000A8612C48018949084900018158F7E0FF9B
:1034E0003FF7EAF81420FDF77DFB002030702348F9
:1034F0004089800512D5707800280FD12548777053
:103500000088C0070AD10120FDF718FE8B2100E0DA
:1035100015E08900884201D902207070E00708D0C8
:103520000120A86158F7D8FF49F70DFC377005F066
:1035300022F8A00600D46AE72020A86167E7F8BD5A
:10354000704710B51448C18840880A460240D30726
:10355000064A01D003231370890703D5C00501D59E
:103560000220107005F008F810BD0000B42DFD0712
:103570000079FD077102000040000040200000506B
:1035800000160050003300505876FD073879FD07CB
:103590004C76FD07001500502020005010B53EF776
:1035A000C2FE5C4880685C49086010BD10B53EF7FB
:1035B000E6FE594857490068886010BDF8B50025F7
:1035C00000F0A4F800270090FDF7B5FA534E00284C
:1035D00002D13079022801D100200090FDF7F9FBDB
:1035E00000280DD158F7B3F8002809D0F07801254C
:1035F000002805D005200007808AC00701D00425D7
:1036000082E0308800287FD14548806A002802D0B7
:1036100000F07CF80090B178684658F7A3FD0028C8
:1036200072D00124A407206940066DD43B488178FC
:10363000684649F7DFFC002866D00099002906D0CB
:10364000206AFF383938DA2801D8491E00913548F8
:10365000FDF7B5FB054606463348123600780228CA
:1036600000D11136314840893148FDF7A8FBE16BA4
:10367000281A890A89020143E163E06B2D49084059
:10368000B1020843E063E06BC002C00A6905084369
:10369000E063294B04250CCB002100985AF7B6FCB7
:1036A0000903000D08431D49401E0979002900D077
:1036B000012145F774FC2148C06A8047FDF7A0FB53
:1036C000002802D0FFF779F90127206B0004C00F12
:1036D000FBD010480168C905FCD5002F01D0FFF7C9
:1036E00077F917484189462904D24622154B511AC9
:1036F00019604281FFF752FF0520000701898022EF
:10370000914300E000E001812846F8BD0E480068C2
:10371000806A704700020040C82DFD075877FD07FA
:10372000787EFD071D0D0000B477FD0720000050D6
:10373000540B0000FF03E0FF782DFD07B47FFD0769
:1037400000330050C42DFD075876FD07FFB58BB040
:1037500000241746169E159D74486A4600941084EE
:10376000002904D0042201A85AF7A0FC02E000209E
:10377000C04301900120019907E00A460241D207A7
:1037800001D0641CE4B2401CC0B2B842F5D318208A
:1037900060430321183058F7FDF804460B98314672
:1037A00000882080149860804020014321711022FD
:1037B000A01D29695AF77AFC01266DE00198304175
:1037C000C00767D03046142148430A904019099039
:1037D0000079022804D0042813D010283DD055E0E9
:1037E000182102A85AF77BFC0A98285801786846E5
:1037F00001720A9828584178684641720998806891
:103800001CE0182102A85AF76AFC0A982858017887
:10381000684601720A9828584178684641720A98A9
:1038200028588178684681720A982858C178684675
:10383000C17209980121806889040843069009989B
:10384000818968468183182100980A4648430019F7
:1038500002A918305AF72AFC18E00A9818222958A9
:103860000098504300190290102218305AF71EFC9D
:103870000298012201460998D20480682831104339
:103880005AF74FFC09988189029881850098401C5D
:10389000C0B20090761CF6B2BE428FD30098607121
:1038A00020464CF7F0FA0290002838D10B98218876
:1038B0000180002001260390012F30D9019830416A
:1038C000C00725D003981421401CC0B20390304695
:1038D0004843411900918989090419D40099C9897B
:1038E000002915D000990979022906D12858022209
:1038F00008A95AF7FFFB00280AD000982288C1893E
:1039000003690398101880B200224CF796FB0290CE
:10391000761CF6B2BE4202D202980028CED02046D3
:1039200058F7B3F802980FB0F0BD0000032800006C
:10393000FFB58DB00546169800270078401E012877
:1039400078D80121282058F725F8044628215AF76D
:10395000C6FB16980178204620300B908171002616
:1039600060E00720694608760B980822417916988E
:103970008019074605904078B04001430B9841718B
:103980001699F00041180019001D091D5AF78EFB09
:103990007878012805D16946087E082108436946E0
:1039A00008760B988079012805D96946087E102190
:1039B0000843694608760E987100028809A80791A5
:1039C000425210981E221040AB8A8030039009A802
:1039D0000818BD4F002269468CC1052306AABB49C1
:1039E0004CF709FE070018D1079809AA115A059843
:1039F0004078012801D0012000E00020081A0E992B
:103A0000401D088005984078012806D10798B049E4
:103A1000105A801C80B24CF7ACFC07206946761C1B
:103A20000876F6B216980078B04205D9002F98D0E3
:103A300004E0FFE7812706E0002F07D0002C02D02A
:103A4000204658F722F8384611B0F0BD2C61684680
:103A50000E99808C088020831098C00701D0012027
:103A6000C0030F9908432080A88A60802420E88240
:103A70000120E8811C349748AC606860A88A002166
:103A800058F719FADFE770B5056904466869002838
:103A900001D057F7FAFF00202061284657F7F5FFBD
:103AA00070BD00690022401842777047006900220B
:103AB000401842777047F8B505460C46242001F0BF
:103AC00072FF06462030002183790A46AB422BD98B
:103AD000318B052709E04679D640F607F617BE1B5D
:103AE0007118491E521C89B2D2B2AA42F3D3032CD8
:103AF00001D2081915E0032C02D0042C07D012E0E3
:103B00004079D040C0070ED0C91C89B20CE0012B0F
:103B100009D94079D040C007C0170422101A4018B4
:103B2000401E81B200E000210846F8BD70B50C4689
:103B300015460646002101F04BFF02462102C12036
:103B400009230001083158F733F804461220207089
:103B500002212846FFF7AFFFA0800120E080701906
:103B6000807E2072204658F73CF870BD56483C30A5
:103B70007047F8B5044616460D46242001F013FFA1
:103B8000038B002280212A7020301EE09F1CBC4243
:103B900001D8E01A09E04379BFB2D340DB0707D070
:103BA0007F1CBFB2BC4203D103203070002113E060
:103BB0006346012B05D97F1CBFB2BC4201D1042052
:103BC000F3E77F1C521CBBB22A708779D2B2BC4685
:103BD000BA4201D29C42D9D20846F8BDF8B5242099
:103BE00001F0E1FE0446FF2000906069092281880F
:103BF0009202914220D1027B009202460E329646FA
:103C000022461A32D71C951D014694460C310FE00E
:103C10000E780123F65D93401E4207D07346D65CB2
:103C20006346D35C9E4201D0097817E0521CEA71CA
:103C3000EA79022AECD31DE0274A91421AD12146A3
:103C400002461D310C328C46CD1C10E06346CE5C22
:103C500017780123BB401E4207D0FAB22046FFF777
:103C600065FFE879401CE871F8BD491CE971E97904
:103C70000829EBD3818809229202002591420AD1BA
:103C8000C288018914480223401E57F791FF00990A
:103C9000017045700AE0104A914209D1C288018939
:103CA0000D480123401C57F783FF057057F799FF14
:103CB000606957F7EAFE00212046656101F088FE41
:103CC000002158F7F8F8F8BD78E6FC070F18000057
:103CD00001020000F4E6FC0702240000FFB581B0F9
:103CE0001F460C460226039858F717F900282FD1D3
:103CF000242001F058FE05462078082804D850F703
:103D0000BFFF9C49884212D1022339469A48039A40
:103D100057F74EFF217801702178082901D94021F9
:103D200000E08921417057F75CFF002610E0012672
:103D30003146039858F7BFF86178227828461D303D
:103D400011540C3C6C6100202035E871FFF746FFF0
:103D5000304605B0F0BDFFB581B00C460226039891
:103D600058F7DBF8002826D1242001F01CFE054678
:103D70002F4620372078B979884210D2617864299B
:103D80000DD8BA1F815401263146039858F793F88D
:103D90000C3C00206C61F871FFF720FF0BE07648C7
:103DA0000123801C039A049957F702FF81210170B7
:103DB00057F717FF00263046CBE7FFB583B0002545
:103DC00068460571057017460E4608886A4601A9BF
:103DD000FFF7CFFE044606233A466848069957F790
:103DE000E7FE31880180002C05D169460978032956
:103DF00007D045800324047157F7F3FE002007B075
:103E0000F0BD02214180F6E7FFB583B00F460020E8
:103E1000694608700871069801AA040A3888FFF7F5
:103E2000A8FE060011D1242001F0BDFD0546F87959
:103E3000B9790002084369460979032904D10121AF
:103E4000002810D0012816D080264C480423801E5C
:103E5000059A069957F7ACFE39880180867057F7A6
:103E6000C0FE0020CBE76B4628191B78427F9940A3
:103E70008A43427706E06B462A191B78507F9940A7
:103E8000084350772146284601F0AAFD01463A48EA
:103E90000223C01C059A57F78BFE04702919497F2D
:103EA000417057F79EFED0E7FFB583B0002069460A
:103EB00008700871180A029004981C46008801AA2C
:103EC000FFF757FE06460025242001F06CFD07464B
:103ED000002E08D168460079022814D0032814D097
:103EE000042814D080262548AB1D2146001F059AC2
:103EF00057F75EFE04460498002E01882180267143
:103F0000658006D028E00125EDE70225EBE70725CF
:103F1000E9E768460079022804D0032808D004287D
:103F200012D019E0684600783818807E607113E07E
:103F3000029869463818407F0978C840C107C90F00
:103F40006171090AA17107E068460078C000C119D3
:103F5000601D091D01F038FC204657F742FE002085
:103F60004DE710B50878122801D1FFF737FE002081
:103F700010BD0000FFFF000001240000180C00002D
:103F800002468B880020022B01D00D207047C98883
:103F9000002A05D00029F9D00129F7D081207047E7
:103FA0000029FCD00229F9D17047F0B589B0044648
:103FB0004BF7BAFF05460026384F14E005A9204606
:103FC0004BF7D1FF002301AA07A905A800964CF7DB
:103FD000BDF868468088B84203D1641CA0B209B01D
:103FE000F0BD641EA4B2A888A04202D8E888A0420E
:103FF000E4D20020F3E7F0B58BB004464BF794FF12
:10400000264F00260546FF371BE008A920464BF740
:10401000AAFF002301AA05A908A800964CF796F864
:1040200068468088B84203D16946097D022911D0CB
:104030001A49884203D16846007D022807D0641CD3
:10404000A4B2A888A04202D8E888A042DDD200200D
:104050000BB0F0BD2046FBE710B50446382001F058
:10406000A2FC82790021A24202D98088001981B283
:10407000084610BD70B504460D46382001F093FC8B
:1040800081888022A14206D880790818A04202D9EE
:10409000601A28700022104670BD0000032800003E
:1040A000FFB504460F4618461E21084083B0A18A7A
:1040B0001D463F4A803000230192009102900C225D
:1040C00019463846FFF742FB060025D1012128207A
:1040D00057F760FC2061398881800C218171E907E4
:1040E00001D00121C903059A11430180A18A4180B1
:1040F0003821E1820121E18101462431A1602D496D
:10410000103061603EF706FD0C21294800F0A7F849
:10411000A08A002157F7CFFE304607B0F0BD70B53A
:1041200004690546264610362069002805D0304629
:104130003EF7F8FC57F7A9FCF6E700202861204677
:1041400057F7A3FC70BDF8B5194D1B4E0F4601245F
:1041500020461421484341190979022908D12858D9
:104160000088B04204D1E1B20022384600F094F851
:10417000641C0C2CECDBF8BDF8B50D4D0E4E0F4653
:10418000012420461421484341190979022908D104
:1041900028580088B04204D1E1B20022384600F02D
:1041A0007BF8641C0C2CECDBF8BD04487047000065
:1041B00014F6FC073CE7FC0702290000FCE6FC07BC
:1041C000F7B507460D46382001F0EDFB06460469B9
:1041D00010E02079B8420CD16079A8420DD0304669
:1041E0000022214610303EF70DFD204657F74DFCCA
:1041F00005E02468002CECD101E0002C0AD128460F
:104200000121083057F7C6FB0446014630461030FE
:104210003EF7A4FC277165712A46A01D029959F743
:1042200045FF0020FEBD70B5064614460D463820F9
:1042300001F0B9FB03690BE01879B04207D1587956
:104240002880981D2060002B04D0002070BD1B68C2
:10425000002BF1D10020288020600A2070BDFEB51F
:10426000054600200E4600900124F24F019010E018
:1042700020461421484341190979022908D12858B8
:104280000088B84204D1E0B26A460821FFF798FFDF
:10429000641CB442ECDBFEBD7FB50E4614460546F9
:1042A00001AA69463046FFF7BEFF6846028802A8A9
:1042B000019959F7FBFE02A8445502466846018859
:1042C0003046FFF77DFF7FBD7CB5382001F06BFBEA
:1042D00084680546407B6A4601A90C34FFF7A3FFBA
:1042E00000992DE0421C2A736278002A0A5C02D0F1
:1042F000D20725D001E0920722D5A18808318BB2E0
:10430000A968CA880102C1200001083157F750FC92
:1043100006466078002801D0122000E0132030709B
:10432000A88861884018B080A088F0803046A288B4
:10433000A11D083059F7BAFE304657F752FC7CBD34
:10434000287B0828CED3607800260028A868C28879
:10435000018907D00423B84857F72AFC61880180F7
:10436000867007E0B4480623801C57F721FC61885B
:104370004180067157F735FCA86857F786FB002186
:104380002846AE6001F024FB002157F794FD7CBD68
:1043900010B50C46382001F006FB2078122801D019
:1043A000132801D1FFF790FF002010BD10B50C4677
:1043B000382001F0F8FA80886188A31D401880B287
:1043C000A18800224BF739FE002010BDFEB517462C
:1043D0000C46382001F0E7FA0546808861884018CD
:1043E00086B2384657F799FD012820D0A188A31D31
:1043F000002230464BF721FE3046FFF7FCFD6946B0
:10440000FFF738FE684601AA02A90078FFF70BFF04
:104410000121384657F74FFD0C3C0020AC60287353
:10442000684600786873FFF74FFF0120FEBD022049
:10443000FEBDFEB51E4617460C46382001F0B3FA05
:104440000546A1886088A31D00224BF7F6FDA888C9
:104450006188401880B2FFF7CEFD6A4601A94BF78C
:10446000E0FE00980088022810D073488B250623B0
:104470003A463146801C57F79BFB61884180217882
:104480000170057157F7ADFB0020FEBD20780823B1
:104490000102C1203A460001083157F789FB132178
:1044A000017061888180EDE7FFB589B00F4600207B
:1044B000694608740C9804A9060A3888FFF7DAFDE3
:1044C0000546002469468C82382001F06CFA002DE4
:1044D0001CD1382003F0E2FC43686846007C1422BB
:1044E000014651430A1D9A5C022A0ED15958514A7D
:1044F0000988914209D16A4603A9FFF794FE009802
:104500006946805D8882022400E08025A31D4B4817
:104510000B9A0C9957F74CFB06463888308035715A
:104520007480002D04D1224605A9701D59F7BEFDE7
:10453000304657F756FB00200DB0F0BDFFB585B0F3
:104540000C46382001F02FFA0490002668460670C9
:1045500008986946050A2088FFF78CFD07005AD1A4
:10456000382003F09BFC0146476868460078142316
:1045700002465A43131DFB5C022B1ED1BA582D4B29
:1045800012889A4219D1019602962088FFF70DFDF4
:1045900001AB002203A94BF76CFF0398214680056D
:1045A000C00FFFF7EDFC07063F0E34D168460178D7
:1045B000E2882846FFF770FE12E0002908D08E69D5
:1045C000002E05D0A2886188A31DB047070022D124
:1045D0006288A1882088A31D4BF72FFD07001AD100
:1045E0002946049801F0FCF90146A088079A801D2D
:1045F00083B21148C01C57F7DBFA0546A288A11DFB
:10460000801D59F753FD684600786880A088A8800F
:10461000284657F7E6FA09480423801C079A0899A8
:1046200057F7C6FA21880180877057F7DAFA002019
:1046300009B0F0BD0229000005380000140C00008C
:1046400030B503460120002103241A46CA40D20790
:1046500004D04D0022466D1CAA401043491CC9B22B
:104660000929F2D330BDFFB585B00E9F04461D4623
:104670003888FFF7E5FF049028461E210840A18AEC
:10468000494A002380300191009302920390132342
:1046900004AA464906984BF7AEFF060022D1012135
:1046A000202057F777F92061069909880183398816
:1046B0004183E90701D00121C903079A1143018011
:1046C000A18A41801421E1820121E18101461E314C
:1046D000A1603749001D61603EF71CFAA08A0021E5
:1046E00057F7E9FB304609B0F0BD70B504690546DF
:1046F0006068002805D0201D3EF714FA57F7C5F969
:10470000F6E700202861204657F7BFF970BD7047D3
:1047100070472548E430704730B50446228B0920A5
:10472000521C93B2648B00222546D540ED0706D07B
:104730005D1C8D4201D1104630BD9B1C9BB2521CAA
:10474000D2B2092AF0D330BD10B50346008B5B8B83
:10475000401C80B200221C46D440E40706D091429F
:1047600002D1401C80B205E0801C80B2521C52B2C3
:10477000092AF0DB092A00D1002010BD02460020E2
:10478000802901D98D207047062A06D0072A07D034
:10479000082AF8D10729F5D170470829F2D17047C6
:1047A0000629EFD37047000044E7FC070A18000011
:1047B00050E8FC07FFB581B00C46142001F0F3F877
:1047C00021780746092931D2FFF7BEFF00282BD0F8
:1047D00061782078FFF7D2FF060028D17D680DE0D0
:1047E00028792178884208D100222946381D3EF7D1
:1047F00009FA284657F749F902E02D68002DEFD154
:1048000060780121083057F7C5F8054620782871EF
:10481000607868716278A11CA81D59F747FC294689
:10482000381D3EF79BF902E0822600E08126022334
:104830005248039A049957F7BBF9217801704670E2
:1048400057F7CFF9002005B0F0BDFFB581B00020CB
:1048500000900E46039857F760FB002802D001280D
:104860004CD04DE0142001F09EF807463188FFF748
:1048700053FF05464248092D36D27C6803E0217972
:10488000A94203D02468002CF9D117E0002C15D0E0
:104890006379039A9B1D049957F78AF90546308876
:1048A000288000202871607968806279A11D681DC8
:1048B00059F7FCFB284657F794F921E03D77049817
:1048C000010A7977384601F08BF801462B4801231D
:1048D000401C039A57F76CF9057057F782F90121CC
:1048E000039857F7E8FA0BE00623039A049957F761
:1048F0005FF93188018080210171DCE7022000909E
:104900000098A0E7F8B517460D46104657F705FB87
:10491000012831D1142001F046F80446017FFFF749
:1049200013FF0646217F2A781548914214D1617FF2
:104930006B7809023A4608319B1D57F739F904464E
:10494000068000202071687860806A78A91C601D4C
:1049500059F7ACFB204609E0617F062309023A467D
:10496000083157F725F906808021017157F739F989
:104970000021384657F79FFA0020F8BD01140000C7
:10498000140C0000F0B5054637260020765D04467D
:104990008E4249D9172A47D216270E467E437619EA
:1049A000132A02D3F77D9F423ED9288E07E01627AF
:1049B00067437F19BF7D3818641C80B2E4B28C4213
:1049C000F5D3132A35D28018B18880B2CB0709D12C
:1049D0000F2A02D9401F80B204E013460B3B042B80
:1049E00000D800208B0709D4122A02D9C01E80B239
:1049F00004E01346103B022B00D800204B0709D4DB
:104A00000A2A02D9801E80B204E01346093B012B1A
:104A100000D80020090707D4082A01D9801E02E027
:104A2000012A02D9401E80B2F0BD012AFCD100202B
:104A3000F0BD317E0818002180B240240AE0C01C7D
:104A4000B78825468D4080B22F4201D0401C80B2ED
:104A5000491CC9B29942F2D3162A03D1B1889C40AD
:104A60002142E4D180181338DDE7FFB597B000206C
:104A700005461590209F0121382056F78BFF0590A1
:104A8000002012901390089009900A900B90382102
:104A9000059859F724FB3878002801D0022800D95E
:104AA00081250020F7E01A214843C0190290C07800
:104AB000082801D9812522E10298162180788206F2
:104AC0000498920E4843059944180F94A2800298C6
:104AD0000321C078E0759920800056F75BFF0246FD
:104AE0000498FD26810012A80E914250049A08AB4A
:104AF000D20014929E50A27DD21DA2754058E4228D
:104B0000FB4959F7D3FA02988078000711D5149918
:104B100008A84158721D1143149A81500F980F999B
:104B2000807D801C8875029812A9028B0E98085807
:104B300082820298807840070CD5149808A90A58F8
:104B400003204002024314980A500F980F99807D69
:104B5000801C887502988078C00718D0149908A81E
:104B600041581F22D2021143149A81500F980F9975
:104B7000807D401D887502988078C00607D50E9903
:104B800012A84058DB4A80304169114341610298C4
:104B90008078800718D5149908A841580722120474
:104BA0001143149A81500F980F99807DC01C88750D
:104BB00002988078800607D50E9912A84058CD4AF1
:104BC0008030016D114301650F980026817D0176CB
:104BD00054E000201090149908A80818B400214649
:104BE00013314A0993000D909C46C258CB06DB0E48
:104BF000012199400A4363462146C25014314A09B3
:104C000093009C46C258CB06DB0E012199400A4313
:104C100063462146C25015314A0993009C46C2584A
:104C2000CB06DB0E012199400A436346C2500F9820
:104C30000F99807D3022C01C88750E9812A90958E2
:104C40000C206043E4300818A949E43159F72EFAE2
:104C50000298801901798907890F012923D0022937
:104C600041D0032941D081250E9812AA1258302034
:104C70007043F4301099761C1150F6B20298C07847
:104C8000B042A6D80F98817D15980818C0B215902B
:104C90000498401CC0B204903978814228D9002D74
:104CA00000D100E72BE09449109116346109890086
:104CB0000D9AE4065258E40E0123A3401A430D9BBB
:104CC0005A500F990F9A897D491C91750F998A88BE
:104CD0004021B1400A430F998A800079C006C3D5AC
:104CE00086481090C0E78648FBE78248401CF8E7FA
:104CF000002D04D1159918984BF704FD0546189816
:104D00006946008888831898018805980186059867
:104D100039782030C17500206946087604466CE079
:104D20001A981E210840A20012A9179B89589B8A35
:104D300080300022029103900092E10008A80A1836
:104D4000019333236F4907A84BF755FC05461620FE
:104D500005996043401800906946807D898B401812
:104D600069468883002D20D100230322214605981F
:104D7000FFF708FE1A216143CE193346143300228F
:104D800004214BF75AF905000FD1B07800070ED572
:104D90000023082221460598FFF7F4FD33461A3315
:104DA000002202214BF749F90546002617E00026AC
:104DB00017E08019027B69460A760079334680073E
:104DC000800F4876152221460598FFF7DBFD06ABDC
:104DD000002202214BF731F9761C0546F6B2002D70
:104DE00006D120461A214843C019C178B142E0D803
:104DF00001200099641C4876E4B23878A04202D9B8
:104E0000002D8DD001E0002D13D00598002801D091
:104E100056F73BFE002412AEA0003058002801D007
:104E200056F733FE641CE4B2022CF5D328461BB0BF
:104E3000F0BD1799059808611A98C00701D00120A4
:104E4000C003199908430599088017980599808A25
:104E5000488017982621C18217990120C88105989A
:104E600017993630886017982749416017980021B4
:104E7000808A57F720F8CDE710B50022016902615A
:104E8000084656F702FE10BD704730B50269002093
:104E9000490013460446203306E016254543AD1865
:104EA0006D18401CEC80C0B2DD7D8542F5D830BD68
:104EB00016487047F0B58025AC46048E17251D7046
:104EC000002506461570203609E016276F433F1867
:104ED000BF7D3F198F421BD86D1CBCB21570F77D8A
:104EE000EDB2BD4201D2A142EFD26046F0BD00005A
:104EF00058E8FC0708000200010200000902020055
:104F00000980020012180000BCE9FC076CE9FC07EC
:104F10000025059EAC462F4635701578162675433C
:104F20002E18357E2D198D4238D9A14201D11F701E
:104F3000DBE7B288100705D5641CA4B2A14201D1F9
:104F4000012041E0E41DA0B20824814202D8401AA9
:104F5000201A39E0150705D5401C80B2814201D1E5
:104F60001C70C2E7540706D5801C80B2814202D86B
:104F7000401A0B2110E0D40706D0401D80B28142B8
:104F800002D8401A102107E09207AED5C01C80B2AB
:104F90008142AAD8401A1321081A15E0059EACB226
:104FA000377016E0E41CA4B2A14203D8611A16209F
:104FB000401A09E0B7884026AE40374206D0641C4C
:104FC000A4B2A14202D1162018708EE7059E6D1C76
:104FD000357016781627059D7E4336182D78F77D97
:104FE000BD42DFD381E7F3B583B00C46262000F045
:104FF000DAFC002584460195607817222F462E465C
:10500000002804D002280BD0042810D10CE021790C
:105010004020884014222D2786B20120019006E00E
:105020000C220827012602E01122082702262379F4
:1050300021786046FFF7A6FC0090002804D0608825
:10504000B84217D98D2549E0002E11D06146203194
:105050002078C97D88420BD21621484360442279CA
:10506000C17D8A4204D28088304201D18C2535E04E
:10507000812533E020781621484303996044490094
:105080004118C988314201D18A2527E0427E019921
:105090008A4204D00079400701D589251EE0604688
:1050A000039900F095FC02466088083083B20398AB
:1050B0000102C1200001083156F77AFD0646122090
:1050C00030700098B0806088F08030466288611D42
:1050D000083058F7EBFF304656F783FD284605B0F9
:1050E00004E7FFB50746002081B00446009016464D
:1050F000262000F058FC05460D2E08D0122E08D0B0
:10510000162E07D10498402181408CB202E0012480
:1051100000E00224029816220A997E0050430029DA
:1051200004D0012907D080200090D8E740198019C9
:10513000C188A14303E040198019C1882143C1807F
:105140003946284600F044FC04463946284600F01B
:1051500047FC0146062322460B4856F729FD014627
:1051600007700020162242434300521992195B181F
:10517000401CD288C0B25A800228F3D3084656F7A2
:1051800030FD0098ABE7000008260000FFB581B0B5
:105190000D460026262000F006FC04462878082844
:1051A00007D84FF76DFDFC49884206D128780828BA
:1051B00001D9402614E0892612E000222046203042
:1051C0000BE0510049194B8816212F7851430919DA
:1051D0007F00C919521CCB80D2B2C17D9142F0D858
:1051E0000223EE48039A049956F7E2FC29780170ED
:1051F000467056F7F6FC002005B0F0BDFFB581B053
:105200000D460027039856F788FE0446C00702D0D3
:1052100002273846F0E72878082807D84FF730FDEE
:10522000DD498842287805D1082801D9402606E0C2
:10523000892604E0A91CFFF7D6FE06000CD0D7484B
:105240000223801C039A049956F7B2FC2978017056
:10525000467056F7C6FCDCE701200443214603985C
:1052600056F729FED5E7FFB583B00D46059856F7EA
:1052700054FE0190800771D58026262000F093FB14
:105280000446A878002803D006463320005D29E0B4
:10529000274620376978F87C814223D12978BA7C67
:1052A00091421FD168790022030058F753FF05048B
:1052B00006080A0C0D00142206E0072204E00C2266
:1052C00002E00F2200E011222B7A29792046FFF715
:1052D00059FBA18E814204D1F87C0026012810D010
:1052E00002E0F87C01280ED03220005D0423010288
:1052F000AB480831059A56F75BFCA18E0180867099
:105300001DE0E88800E000200090801D83B232207C
:10531000005D059A0102A2480831801E56F748FC3C
:105320000746A08E38803E7100987880002E05D107
:1053300029460931781D009A58F7B8FE384656F7C5
:1053400050FC204600212030C174A186FF218174C9
:105350000199FD200140059856F7ADFD002007B0EA
:10536000F0BDFFB581B00F46039856F7D6FD06464F
:10537000800742D58025262000F015FB044678786A
:10538000002801D0054618E020462030C17C0329C2
:1053900013D13978807C814214D1B97800230A2254
:1053A0002046FFF7EFFAA18E814206D1B878162287
:1053B00000255043F9780019417620462030C17C01
:1053C00001291CD03220005D0423010274480831F9
:1053D000039A56F7EDFBA18E0180857056F701FC0C
:1053E000204600212030C174A186FF218174FD2058
:1053F00006403146039856F75EFD0020FCE6807CAF
:105400000623010266480831801E039A56F7D0FB36
:10541000A18E01800571E1E7F0B585B01F46164603
:105420000D46262000F0BFFA03A90091298801ABA0
:1054300002AAFFF73FFD0446594806233246394683
:10544000801C56F7B5FB29880180002C13D16946D2
:105450000A7900210C3A130058F77CFE0B07090B60
:10546000070B07090B070B090B00418003E0022122
:10547000FBE741800324047156F7B3FB0020BBE631
:10548000FFB58BB000200A900D460D9856F745FDEC
:10549000099080077ED40E98070A262000F083FA30
:1054A000059003A80090298804AB02AA0598FFF78D
:1054B00001FD059E044620360020B774F07405985F
:1054C00029888186002C16D16846027C0F2A3ED09E
:1054D00008DC052A10D00A2A22D00C2A37D00D2A3F
:1054E00008D174E0112A32D0122A70D0142A2ED09A
:1054F000162A6CD0802480E03946059800F070FAB6
:1055000001462648032308300D9A56F751FB0770D1
:105510006946097A4170A979817056F762FB62E0A9
:105520003946059800F05CFA01461C480423401DEA
:105530000D9A56F73DFB0770032444706946097ABB
:105540008170A979C17056F74CFBF4744EE039466E
:10555000059800F045FA0146A8880D9A083083B2F4
:105560000E48C01C56F724FB0770022704464770FC
:10557000A888A0806846007AA0706846007BA07169
:10558000AA88A91DE01D58F791FD6846007C0C28EB
:105590000FD007E03DE00000FFFF00000126000003
:1055A000160C00000F2806D0112806D0142806D1AA
:1055B0000AE0E77003E0032000E00420E0702046EA
:1055C00056F70FFBF77411E00020F7E7FFE7E879E3
:1055D000A9790002084300906846037B017A3846A7
:1055E000FFF77FFD0446F07C002806D009990220D1
:1055F00001430D9856F75FFC0DE0042370480D9AA7
:105600000E9956F7D5FA29880180847056F7E9FA81
:1056100001E002200A900A980FB0F0BDFFB58DB0EE
:1056200000200A900F9856F778FC0B90800774D4EE
:10563000002669468E843446262000F0B4F90546DB
:10564000109805AB000A029004A800900E9803AAD7
:1056500001882846FFF72EFC070072D16846017DBD
:105660001098C91F000A40000B0058F773FD100F77
:10567000696938690942690B690D4C691069576994
:10568000022604E0032602E0042600E00126284664
:10569000029900F0A5F9014608234A480F9A56F7E7
:1056A00087FA0299017001244470002181806946C3
:1056B000097B8170C6706946097C817156F791FA41
:1056C0002846203002998174C4740E980088A886F8
:1056D0000B99022001430F9856F7EDFB49E068460D
:1056E000007B162148434019417E6846818401248D
:1056F00027E06946097B1622514349190818807929
:10570000C007C00F18E06946097B162251434919AA
:10571000081880798007C00F0EE028E06946097BF1
:10572000162251434919081869460A7CC08840214D
:105730009140084000D0012069468884022400E09E
:1057400080271F48A31D801E0F9A109956F730FA24
:1057500005460E982246008828802F716C8009A982
:10576000681D58F7A3FC284656F73BFA01E00220D3
:105770000A900A9811B0F0BD70B5087816460D462B
:1057800012281AD11C0A262000F00DF9214600F03B
:1057900027F901460B4802233246401E56F708FA05
:1057A00004706978417056F71CFA304656F7B5FB1D
:1057B00041084900304656F77EFB002070BD0000CE
:1057C000160C0000042600000A7902704A79427023
:1057D0000B8883701B0AC3708A79027149884171F2
:1057E000090A817170470A880270120A42708A7829
:1057F0008270CA78C2700A7902714A7942718979D5
:105800008171072070474278037812021A430A8098
:1058100082788A70C278CA7002790A7142794A71B4
:105820008079887107207047014610B50020C9B201
:10583000262911D006DC14290BD0242901D1FEF72A
:1058400095F910BD37290AD03829FAD1FEF7ADFCF9
:1058500010BDFEF75EFF10BDFFF72AFB10BD00F084
:1058600098FA10BDF8B50025794EFF27002818D00A
:105870000024182060438719F88AFFF7D5FF002815
:1058800002D0416838468847FF20F8827D60BD60BD
:10589000FD81387D56F754FB641CE4B2052CE8D337
:1058A000F8BD0024204618214843811922461032B1
:1058B0000D618A82CF824D608D60CD818D813550A2
:1058C000087D56F7C6FA641CE4B2052CEAD3F8BD8D
:1058D000F3B5054681B000264088FFF7A5FF01001B
:1058E0000AD05B4F6A88002018234343DB19DB8A08
:1058F000934203D1422628E0402626E0401CC0B255
:105900000528F1D3002418206043C019C08AFF285D
:1059100006D0641CE4B2052CF5D3052C14D014E099
:1059200028460830009018206043C0190E686B7834
:10593000AA880746A91DB0470600EED16888F882FC
:105940000298B98A0180E8E74B263046FEBDF8B5DB
:105950003F4E07460024182060438519E88AFFF768
:1059600063FF002803D08268394628469047641CAC
:10597000E4B2052CEFD3F8BDF3B5354E81B00F4638
:105980000024182060438519E88AFFF74DFF00289E
:1059900004D0C3683A46284601999847641CE4B28B
:1059A000052CEED3FEBD034610B50020284A014663
:1059B00018244C43A418E48A9C4204D11820414383
:1059C0008818006910BD491CC9B20529F0D310BD63
:1059D00042885004400CD20B01D0090208437047A2
:1059E00002885004400CD20B01D0090208437047D2
:1059F00030B5FF21020AC4B2154B002018254543DB
:105A0000ED18AD8AA54204D118214843C018C18AB7
:105A100003E0401CC0B20528F0D31002084330BD9B
:105A200030B5FF21020AC4B2094B002018254543B6
:105A3000ED18ED8AA54204D118214843C018818A87
:105A400003E0401CC0B20528F0D31002084330BD6B
:105A5000CC2DFD07FFB50646FF20FBB01F460321F6
:105A6000E13055F797FF04467C983946008820803E
:105A7000B08A60801E2001408031C74B21710FCB5E
:105A80006D460FC510226946A01D58F70FFB18215F
:105A900009A858F724FBC0491822103109A858F763
:105AA00005FB204618300546182209A958F7FEFACA
:105AB0001822BA4945A858F7F9FA2846183018228A
:105AC00045A958F7F3FA18210FA858F708FBB2496F
:105AD000182228310FA858F7E9FA20464830182232
:105AE0000FA958F7E3FAAD49182218314BA858F717
:105AF000DDFA2046603018224BA958F7D7FA182152
:105B000015A858F7ECFAA4491822403115A858F7FF
:105B1000CDFA20467830182215A958F7C7FA9F49C0
:105B20001822303151A858F7C1FA20469030182277
:105B300051A958F7BBFA18211BA858F7D0FA964973
:105B4000182258311BA858F7B1FA2046A83018225D
:105B50001BA958F7ABFA91491822483157A858F7B2
:105B6000A5FA2046C030182257A958F79FFA1821E5
:105B700021A858F7B4FA88491822703121A858F79B
:105B800095FA2046D830182221A958F78FFA834970
:105B9000182260315DA858F789FA2046F0301822A3
:105BA0005DA958F783FA182127A858F798FA7B4976
:105BB0001822783927A858F779FA2046FF3009309B
:105BC000182227A958F772FA74491822783163A865
:105BD00058F76CFA2046FF302130182263A958F795
:105BE00065FA18212DA858F77AFA6C4918226039FD
:105BF0002DA858F75BFA2046FF30393018222DA91E
:105C000058F754FA182133A858F769FA634918224B
:105C1000483933A858F74AFA2046FF305130182245
:105C200033A958F743FA5D491822903169A858F70B
:105C30003DFA2046FF306930182269A958F736FA34
:105C4000182139A858F74BFA54491822303939A885
:105C500058F72CFA2046FF308130182239A958F71E
:105C600025FA4E491822A8316FA858F71FFA204686
:105C7000FF30993018226FA958F718FA18213FA859
:105C800058F72DFA4549182218393FA858F70EFA47
:105C90002046FF30B13018223FA958F707FA3F4994
:105CA0001822C03175A858F701FA2046FF30C930D4
:105CB0001325182275A958F7F9F9657120464AF796
:105CC000E2F8059000283DD100210C2055F762FE36
:105CD00005460C2158F703FA2088E880849800785C
:105CE000287100206881F80701D00120C0037D9948
:105CF00008432880B08A68803720F0820120F08134
:105D000028460830B0602648356170607C98E98884
:105D10000180B08A002156F7CEF8ED880D20694643
:105D20000874F420088428460F3080B204AB0022A7
:105D300001214AF782F91135A8B208AB00220221ED
:105D40004AF77BF9204655F7A0FE05987FB0F0BDD5
:105D500010B5002201690261084655F796FE10BD94
:105D6000704708B5006900216A4611704181C088FA
:105D70000A460C3080B26B4601214AF75EF90028D2
:105D800006D00849C8200880074908204880FEE757
:105D900008BD014810387047D4E9FC07D4EAFC0775
:105DA000CCEBFC070031005000330050F8B51F4623
:105DB00014460E463720FFF7F6FD0546C088B31C93
:105DC0000C3080B2002201214AF737F9002806D0B2
:105DD000B649C8200880B64908204880FEE768898F
:105DE00000281DD0390A0902C120092322460001DA
:105DF000083155F7DDFE04466889012812D01320CA
:105E0000207000206080E88801220C30A0802046AD
:105E1000E280B11C083058F749F9204655F7E1FEF9
:105E20000020F8BD1220EBE710B50C463720FFF735
:105E3000BAFDC0882346801D80B2002204214AF7A3
:105E4000FCF8002806D09949C82008809849082005
:105E50004880FEE710BDFEB50C4600211F461546E2
:105E60001046019156F759F8002805D0284656F7F4
:105E700054F8012872D0C3E004232A4639468D48DD
:105E800055F796FE05463720FFF78DFD064621881B
:105E900080793A0A081A009229808021C0B200272E
:105EA000A97002280CD0042831D00A2857D008281D
:105EB00079D00D2876D0A970284655F792FE9FE03C
:105EC0006288A1882088A31D4AF7B7F8A8703046D9
:105ED0000099FFF785FD014637220823100255F788
:105EE00067FE064600984EF7CBFE30807760607AFA
:105EF00001067160207A000401437160E0790002BC
:105F000001437160A0790143012071606AE06288F9
:105F1000A1882088A31D4AF790F8A8703046009900
:105F2000FFF75EFD014608233722634855F740FE20
:105F3000064600984EF7A4FE30807760607A01062E
