:0200000407FCF7
:1000000070CDFC077105FC077905FC079105FC071D
:1000100000000000000000000000000000000000E0
:10002000000000000000000000000000A905FC071F
:100030000000000000000000AB05FC07AB1EFC0741
:100040009725FC07F725FC071D27F0071321FC0760
:10005000AF05FC07AF05FC07AF05FC071BA1FC07BC
:100060003327FC07AF05FC07C315FC07C715FC07C2
:10007000CB15FC07CF15FC07D315FC07111FFC0798
:10008000FF21FC07AF05FC076518FC078518FC0776
:10009000E913FC07AF05FC07AF05FC07AF05FC073C
:0200000407FCF7
:10051000044885460BF010F800480047D906FC0750
:10052000C046C04670CDFC070D4906200880012258
:100530000C48D10301600221016000210260052006
:1005400000070180028A0F231B021A430282064A17
:10055000064802C2401E0028FBDA62B6704700005F
:100560000034005080E100E0005CFD07FF0800005F
:100570000F4880470F48004704207146084203D0C7
:10058000EFF309800C490847EFF308800A49084750
:1005900004207146084203D0EFF309800749084759
:1005A000EFF3088005490847FEE7FEE7FEE7FEE7B0
:1005B0002905FC071105FC07D905FC07C105FC0747
:1005C0000349C8200880034908204880FEE700004E
:1005D000003100500033005005200007018A04223A
:1005E00011430182018A02221143018201894022C2
:1005F00011430181054A01211160418A01228908C4
:100600008900D203114341827047000080E200E07C
:10061000F8B503460C460120154600212B4E024634
:10062000412B3BD00ADC012B16D00222072B26D00F
:10063000402B23D12078022824D32AE0422B33D028
:10064000432B37D0442B19D1207800281AD01F48CB
:10065000407B2870227010E006221D491D485DF77E
:1006600049FD0627002802D006221A4901E0062289
:10067000B11C28465DF71AFD27700020F8BD2078D0
:10068000022802D221700420F8BD307828707078DA
:1006900002E0307A2870707A6870DBE720780028F2
:1006A000F0D00A48807AD4E720780028EAD00748BA
:1006B000C07ACEE720780028E4D0307BC9E700205C
:1006C000704701207047012070470000D8B5FC0733
:1006D00090E1F1074C2DFD0708B50F23944C954987
:1006E0009548A37004276370814201D3082323E057
:1006F000934D904E914A7519914205D3854201D28E
:100700003B4619E00C2317E08E4EB14209D39542C7
:1007100001D2022310E0854201D206230CE00E2311
:100720000AE0B54201D2012306E0954201D203233B
:1007300002E0854200D20723237000F01BFB052650
:10074000360710E000200090142000F0CDF90421BD
:1007500068464CF74FFC002801D000F091FA06F0F3
:1007600049F900280BD03089000608D50120800700
:10077000006B000403D474480078C0070BD006F067
:100780005BF90028EFD172B606F076F902F00EF8A8
:10079000042807D00BE05BF720FE6C4800780428A3
:1007A000DDD1CFE76A480078012810D003206946E0
:1007B0000546087006F064F969460870002825D0DF
:1007C000022D06D0032D04D0012D1ED01EE00220E4
:1007D000EDE7284600F01FF8B08A800602D55D4993
:1007E0000820088030BFE078002807D05A48006809
:1007F00001898AB2416803205BF73EF806F056F99A
:1008000056480169B943016100E030BF62B6C820B3
:1008100053490880A7E738B505242407218A042214
:10082000114321826946087006F02AF9694608706A
:1008300000F028F86946087806F032F96946087829
:10084000022801D003281CD146484188FF220132EA
:10085000914341806188444A1180418801221143BB
:100860004180002000900099491C00911429FADB76
:10087000618989088900491C618161894906FCD523
:10088000608038BD70B5022801D0032839D1334AC1
:10089000136904210B43136105242407628A202372
:1008A0009A436282228A02231A4322820F2610234D
:1008B000360202281E4D608A24D088436082208A36
:1008C000A978B04309020843208268682288C01CC6
:1008D000800880210A4322800022521CD2B20A2AB8
:1008E000FBD3628A1A436282204A401E50612088EC
:1008F0008843208003205AF7E5FF00280BD0012011
:10090000E87070BD98436082208A6978B04309021C
:1009100008432082EEE70020E870208A218AB04355
:1009200009052A78090F114309020843208270BD86
:10093000202DFD0770CDFC070000FD0700C0FC075F
:100940000C0100000080FC075877FD07942DFD077F
:10095000B477FD07003300505876FD0700ED00E046
:1009600000310050200000509A2DFD070000F407D0
:10097000704770B50D46002441F7FDFF2855641CF3
:10098000E4B2202CF8D3002070BD10B55DF77CFBDD
:1009900010BD10B55DF781FB10BD70477047052194
:1009A0000907488A012280088000D2031043488248
:1009B0007047000048480178002902D0802141702A
:1009C00070474649002008704549C8707047424941
:1009D0000A78002A03D000280CD002200BE000285F
:1009E00001D0022000E001203C4908703C49012070
:1009F000C87070470120803048707047002805D0CB
:100A0000012804D0022804D10120E0E7D2E7002029
:100A1000FBE77047314900200978002904D00129FB
:100A200003D0022900D102207047012070472A48D4
:100A30008178002904D0491E0906090E817019D158
:100A400042780021002A04D09207920F0270417070
:100A500004E00278002A01D0521E02701206120E23
:100A6000017007D0012A03D0022A03D10120AEE78A
:100A70000020FCE7704700B5174A9078401C907042
:100A80001078002805D1FFF7C5FF431CFFF792FF40
:100A9000137000BD10490120C87070470E49002036
:100AA000C87070470C48C07870470020EFF3108181
:100AB000012282F31088052212071289120605D43A
:100AC0000848028901231A4302811846002900D0F0
:100AD000012181F310887047282DFD07B477FD07A9
:100AE0005877FD070033005070B5E74D044668782D
:100AF000002822D0E54801884907FCD4C1888088B5
:100B000009040E18E2492046484331465DF754FA7D
:100B1000002169706861B00121465DF74DFAA86156
:100B2000DC4800234443E0170105220B1143200554
:100B300032460AF0BFFCE962A86270BDD349488022
:100B40000888032210430880088804221043088084
:100B5000CD4901204870704770B505210907088903
:100B6000302290430881088980231843088108892E
:100B700080088000401C08810889082210430881F1
:100B8000C54804881C4304804C8A94434C820D89D8
:100B9000402425430D810D8A0426B5430D828D8A9C
:100BA000AD07FCD5B84EAA2535618588F026B5433A
:100BB000B0358580858803263602B54385808588D3
:100BC0002D092D01858085880126B6023543858053
:100BD0008588760035438580858876003543858015
:100BE0004D8A95434D820288520852000280028845
:100BF0009A4302800A89A2430A814089800503D56D
:100C0000A549052060318880012080070168821590
:100C100091430160A14801683F225202914342146E
:100C200089180160016802031143016070BD10B5AD
:100C30009B485BF75FFC10BD10B597494888C0061C
:100C4000040F488801221043488048881E229043A0
:100C500048808E484B0143800523038003885B074F
:100C6000FCD480884B88934314334B804B885B08BB
:100C70005B004B804B889343620013434B8010BD55
:100C800070B588490120C863C86B0028FCD10120D9
:100C90008007C0697C4C0021E268904200D2E1608C
:100CA000A2780125002A04D0A170E060FFF7C4FFFC
:100CB00011E0E1681922411AD201914211D3E0609A
:100CC000FFF7BAFFA188884201D9411A00E0091A4A
:100CD00089B2182905D3A0800AF052FB002800D160
:100CE000A57070BD10B56849496948436E495DF704
:100CF00063F910BD10B564490122D203896990429D
:100D000005D30AF042FC8905800A084310BD484318
:100D1000800A10BDE6E7EDE71FB5684601F000F96F
:100D2000009841F72EFE1FBD574B0020197800296F
:100D30000DD05C490122CA63CA6B002AFCD1012193
:100D40008907C969594A1268914201D20120704746
:100D50000021197070470020704710B554490020D9
:100D60000860FFF764FF01208007016B4900490814
:100D7000016310BDF8B54449012008704D48C821F1
:100D80000180002545804C4F08267E8041F7E0F920
:100D900000F0A0F800F0ACFB00F041F83E4C2089D8
:100DA0008004000F07D120890F218902884309217F
:100DB00089024018208106F03FFC012041F7E1FD47
:100DC000FFF7CAFE3D48006841F774FA3C48C57019
:100DD0000571012080070168821511430160FFF74A
:100DE0009BFF1420FFF7AAFE1420FFF77DFEFFF7FC
:100DF000E1FD04F044FB05F0D9FDFFF7AEFF05204F
:100E00000007C5826088E0218843A030608001200F
:100E10000AF0E0FA2749C82008807E80F8BD38B57E
:100E200028480021016005242407638A40221343D7
:100E30006382638A934363824161234A826201220F
:100E40001204C262208880252843208000910098E7
:100E5000401C00906428FADB002000F0D9FB0A480F
:100E600006221A491C305DF721F919480188064805
:100E700001811749891C0988418100F0C5FB208840
:100E8000A843208038BD0000302DFD07001600501B
:100E90000024F40010270000200000500002004051
:100EA000E2040000C000004040420F0014C6FC07EE
:100EB000AC76FD0700310050003300504C76FD0742
:100EC0005877FD070000F407204F101AA8FFF80715
:100ED00010FEF80710B50AF009F9302219491A482E
:100EE0005DF7E4F81949002008701A4A18491160A2
:100EF0001A4A194911601B4A194911601A4A0A21F4
:100F000011701A491C4A0870194932200870194991
:100F10001220086001211160184908601849132047
:100F200008601849142008601749152008601749FF
:100F30007620086016499420086017491548086013
:100F400010BD000058ECF107FC76FD07F976FD07AF
:100F500028B8FC075076FD07E8B5FC075476FD0776
:100F60006CB7FC075876FD07B476FD07B576FD072C
:100F7000DD76FD075C76FD076076FD076476FD078C
:100F80006876FD076C76FD077076FD074876FD07ED
:100F90004476FD07005CFD074C76FD070843012100
:100FA000890303460B4341490B80414B184308809A
:100FB000092002434A8070473C490A880F239B015D
:100FC00000079A43800D02430A8070473748394929
:100FD000028802231A430280491E02D30288920724
:100FE000FAD400210181408970470AE000BF00BFA8
:100FF00000BF00BF00BF00BF00BF00BF00BF00BFF9
:1010000000BF401EF2D2704770B502225102044662
:101010004E003046FFF7C2FF1420FFF7E6FF002C1A
:1010200001D0092000E00720FFF7C6FFFFF7CEFF41
:1010300005460120FFF7D9FF022200213046FFF7C5
:10104000ADFF002C01D0092000E00720FFF7B4FF1E
:10105000FFF7BCFF4019154A0021118070BDF0B5A3
:10106000124C154820801420FFF7BFFF01256D02A8
:10107000A580E5802088E9000843208020888E1024
:10108000B0432080FFF7A2FF07462088304320802E
:10109000FFF79CFF0246780071424018281A520060
:1010A0005118691AA080E180F0BD000000150050C1
:1010B00001400000A086010001480000444910B52D
:1010C000884201D9642010BD4249411878290BD8C3
:1010D00063210901401A000479215CF783FF48214C
:1010E000484300141C300FE03A49E0314118DF2931
:1010F0000CD855210901401A0004E0215CF772FF69
:10110000182148430014001DC0B210BD32494118D7
:10111000DF2908D847210901401A0004E0215CF7C3
:1011200061FF8013F0E7002010BD2B4910B5494244
:10113000884209D349424018642148434721C900E5
:101140005CF750FFC0B210BD002010BD10B52349A0
:10115000498989050BD5FF21B131884205D3FF3874
:101160006421B138484389000AE0002010BD5521B0
:1011700009018842F9D3401A64214843FF216131B3
:101180005CF730FFC0B210BD10B50446FFF767FF33
:10119000032C11D11148408980050DD50120FFF79E
:1011A00033FF80B200F013F8012C07D0022C08D0D6
:1011B000032C09D0002010BD0020F0E7FFF77EFFD0
:1011C00010BDFFF7B2FF10BDFFF7C0FF10BD7047A5
:1011D000A9060000CFF9FFFF8FFBFFFF20000050A2
:1011E000FCB50178BF4B09010C3BCB189E46BD4BAB
:1011F000BC4A0A3BCB180193BA4B8A18083BCB1860
:101200009C46B84B9B1FCE181B1DCB180093B54BAB
:101210001B1FCC1811884908490011804178837838
:10122000057A194383792B431943C3791943437AC8
:1012300019434389194383891943C3891943438A4D
:1012400019431180037C0F2B40D0A64902787431DA
:10125000002A06D0012A04D0022A0DD0032A1AD16E
:101260000AE0EFF31082012585F310880D882D091F
:101270002D010AE001220CE0EFF31082012585F335
:1012800010880D88F027BD431B011D430D80002AE7
:10129000F0D182F31088EFF31082012383F31088DA
:1012A0000378012B0DD0022B01D0032B09D10B8821
:1012B000057C1B071B0FAB4203D10B880F252B436B
:1012C0000B80002A24D0012181F3108873464169E4
:1012D000826919800B0C01990B8061460A80110C00
:1012E00031808188002915D0491E2180818B009A88
:1012F000491E118082787C49002A00D0026A037856
:10130000DB00CA50426A0078C00040184260FCBD51
:101310000021D9E7818BE7E710B50178714B09010E
:10132000704A704C083B8A18CB18A41F0C191188FE
:1013300049084900118081691980090C218082784F
:101340006949002A00D0026A0378DB00CA50426A69
:101350000078C0004018426010BD624A0001121FB0
:1013600080180180704718B55E4B0201D21808231F
:10137000012907D010884008400010801088984349
:10138000108018BD148869460C800C8801210C431C
:1013900069460C805449C0000858002803D06946AB
:1013A00008881843088068460088108001204F494B
:1013B0000005086018BDF8B58C4601274B493F056C
:1013C00080310F60484CC600A559002A03D0002187
:1013D000A151FFF7C8FF002D03D0301940686146C6
:1013E000A84742480760F8BDF8B53E4F74377E887D
:1013F0000025012463E0F0075ED03A482901001F70
:101400000B18801C374A081889181A8800888242ED
:1014100004D10888000601D4012000E00020B9882A
:1014200084462046A8408143C20701D0002238E00C
:10143000820701D5012234E0420701D5022230E0C3
:10144000020701D503222CE0C20601D5042228E0C0
:10145000820601D5052224E0420601D5062220E0BD
:10146000020601D507221CE0C20501D5082218E0BA
:10147000820501D5092214E0420501D50A2210E0B7
:10148000020501D50B220CE0C20401D50C2208E0B4
:10149000820401D50D2204E0420401D50E2200E0B1
:1014A0000F22204690400143B98018886246401CB4
:1014B00081B22846FFF77FFF6D1CEDB27608002E43
:1014C00001D0082D97D3F8BD064A0101921C891856
:1014D000098801226FE703490001891C4018008830
:1014E000704700000C3600507425FD0700E100E055
:1014F000704710B5032800D104203F4C400100196B
:10150000490008181A43C28010BD032800D10420E6
:10151000394A4001801801228A408280704703289E
:1015200000D10420344A4001801801228A404280C0
:10153000704770B506460498144600280D4630469C
:1015400002D0FFF7ECFF01E0FFF7DFFF224629465C
:101550003046FFF7CEFF70BD032800D10420264A95
:1015600040018018008801228A40104000D00120EC
:10157000704770B5012421460A3881400D4688B273
:1015800000F029F884401D48C189A9430C43C48157
:1015900070BD10B504460A3804280AD82046FFF763
:1015A000E8FF1749A00040188038806D002801D05E
:1015B000804710BDE106C90E01208840114908602E
:1015C00010BD0A20E5E70B20E3E70C20E1E70D2042
:1015D000DFE70E20DDE700280BD0411E4840C003A6
:1015E000010C002002E04908401C80B20029FAD119
:1015F0007047102070470000003000500014005069
:101600009425FD0780E200E006490020086070474D
:101610000449002802D0FF20023000E001200860C9
:10162000704700000000F4078307FF22DB0E9A409A
:101630008907090E994000280BDA0007000F0838C7
:101640008308C5489B001818C36993430B43C361C3
:1016500070478308C1489B001B18186890430843D3
:10166000186070470122BE48910401604900016082
:10167000EFF3108182F31088BA48838812029343F3
:101680008380C3889343C380002903D0012080F363
:10169000108870470020FAE7F8B50446FFF7E2FF2C
:1016A000204600F0FFF8EFF31080012181F310884D
:1016B000AC4DA9880122520291432279D207920DA2
:1016C0001143A980002800D0012080F310882079E0
:1016D000FF26013601281AD1E07B002800D108201E
:1016E000EFF31082012181F31088AB8869460B80EB
:1016F00009880B0A1B02034369460B8008883043A4
:101700000880A880002A29D0012080F310886279FF
:10171000617C207C636900F0E5F8A179607900F0D4
:10172000FBF8EFF31081012080F31088EA88684607
:1017300002800088020A12026846521C0280028857
:1017400032430280EA8000290AD0012080F3108809
:10175000A079854F854D012804D01BE00020D4E7F7
:101760000020F3E70120A16866794003B94201D95E
:10177000801004E07E4A914201D9012000034843D1
:1017800064215CF719FC002E0BD06968090E09066C
:1017900001436960A16862790020B94207D903203A
:1017A00009E0A968090E09060143A960F2E7704B38
:1017B000994200D901202968002A08D0302291439B
:1017C0000001014329606079002805D007E0032269
:1017D000120491430004F4E7A07900283CD00020D3
:1017E0002A684003012149038A4310432860607935
:1017F000002833D0A079002830D00020296840008C
:10180000022291430843286028680321090788437E
:10181000617989078908084328602868510388434B
:10182000217BC907490C08432860286804218843A4
:10183000617BC907490F08432860286880218843D5
:10184000A17B00290CD00021C90108432860286829
:10185000012108432860F8BD0120C1E70120CDE740
:101860000121F1E71FB543480168002909D0002094
:10187000009001903D480C300290001D0390684696
:1018800088471FBD1FB53B480168002909D037486C
:10189000426900928069019000200290039068469E
:1018A00088471FBDF8B50446027903260025360295
:1018B00000786178012A00950ED01F230022FFF7DF
:1018C00038FE607900950028E178A07807D01E23C3
:1018D0003246FFF72EFEF8BD1F233246EFE71E23E8
:1018E0000022F6E770B5234C002812D023601C4C70
:1018F0002148803C002A07D00125AD040560122054
:10190000FFF792FE256070BD0125ED0405601320F0
:10191000F6E70020206070BD144A4023012909D059
:101920000028908B10D0C008C000401C9083908B82
:10193000984307E00028908B03D0C008C000801CAB
:10194000F4E718439083704718439083908B3821B5
:1019500088430830F6E7000000ED00E000E400E016
:1019600080E100E0401C0050007701000040005082
:1019700080BB0000A825FD0780E200E070B5494C5F
:10198000C8206168484A0823484D00290FD02678AE
:10199000002E0FD00220FFF79EFD61688847618806
:1019A0004018401E81B20220FFF7D7FC70BD1080A6
:1019B0006B80FEE73E4CA489E40702D010806B8068
:1019C000FEE7384C0834A08B8847A0612046FFF71B
:1019D000A3FC01210220FFF7C6FC70BD10B5044630
:1019E0004169304886B04160A17901702189418008
:1019F000618968460180A18941800122027100212C
:101A0000417182712069029068460173417382734B
:101A10000522C2730174032242740591FFF73CFE54
:101A2000A188206800F011F81E48012108300078D4
:101A3000FFF799FC06B010BD1A4810B508300078C1
:101A4000FFF742FDFFF70EFE10BD10B5154A022349
:101A500008321370174B53610023D3712024147282
:101A600004245470144C14620124E402948103246D
:101A7000D3812402548109241474102494710824FD
:101A8000947053625382131B1C78002C00D0802466
:101A90005472918390615888908002480830FFF713
:101AA0009FFB10BDAC25FD070031005000330050F6
:101AB00020360050144000507D19FC0710B54C48EA
:101AC00041780078FFF721FD10BD10B548484178F6
:101AD0000078FFF724FD10BDF8B50E4615464449C1
:101AE0000278079F0A7040781C464870FFF7EDFFA8
:101AF0000520000781880122D202114381803D48E0
:101B000001884908490001800188FF228132914300
:101B1000F20111430180018840229143AA0111433F
:101B20000180018804229143A200114301800188B1
:101B300002229143069A520011430180018801223A
:101B400092039143BA031143018001881822914303
:101B5000089AD200114301800188012211430180BB
:101B6000F8BD24490A88520852000A800A88FF23D7
:101B700081339A43C00102430A800888012210433E
:101B80000880704710B51B4801884908490001804A
:101B90000520000781880122D202914381801448E8
:101BA00041780078FFF7BBFC10BD10B51149002348
:101BB0000A88D205920F012A01D9040C8C80488032
:101BC00008888004FCD50120C880012A01D98888B2
:101BD00003044888C01810BD10B50446FFF76EFF17
:101BE0002046FFF7E2FF0446FFF76FFF204610BDD7
:101BF000DC25FD07001200509D4AD16090607047BF
:101C000010B50120FFF7ADFF05200002FFF7E4FF4C
:101C1000C0B210BD70B50024964DFFF7F1FFC007AC
:101C200004D0641CAC42F8D30020C04370BD70B532
:101C3000FFF7F0FF002815D1FFF793FF8D4E002529
:101C40000620FFF7C9FF0024FFF7DAFFC10703D121
:101C5000800701D5002070BD641CB442F4D36D1C14
:101C6000322DEDD30020C04370BD70B5FFF7D2FF19
:101C7000002811D1FFF775FF7E4E00250420FFF7E5
:101C8000ABFF0024FFF7BCFF800707D0641CB44201
:101C9000F8D36D1C322DF1D30020C04370BD70B558
:101CA000064673480D4680685119814201D9441B8C
:101CB00000E01446FFF7AEFF00281AD10220FFF71C
:101CC00050FFFFF7FBFE0321284609060843FFF7F4
:101CD0006CFF0020FFF745FF002505E00020FFF71F
:101CE00064FF30706D1C761CA542F7D3FFF7EDFE44
:101CF000204670BD70B505465D480E46C068144666
:101D0000824200D984B2FFF785FF00281ED1FFF779
:101D10008EFF00281AD10220FFF723FFFFF7CEFE27
:101D20000121304649060843FFF73FFF0020FFF737
:101D300018FF05E028786D1CFFF737FF641EA4B27A
:101D4000002CF7D1FFF7C1FEFFF764FF70BD70B53F
:101D50000D460446FFF76BFF002802D00020C04369
:101D600070BD0220FFF7FDFE28062043FFF734FF79
:101D7000FFF750FF70BD70B50D460446FFF757FFE3
:101D8000002802D00020C04370BD0220FFF7E9FE0A
:101D900028062043FFF720FF002070BD10B5002467
:101DA000FFF738FF002811D10120FFF7DAFEFFF717
:101DB00085FE09200003FFF7F8FE0020FFF7F5FE7F
:101DC0000020FFF7F2FE84B2FFF77FFE20B210BDC5
:101DD000F7B582B0264F0E460091F96814460D46BD
:101DE00030465CF7E9F8401C6843451E0020FFF7C9
:101DF000B8FEB868801BA04200D2044626460027E1
:101E000019E000988019A84202D900982E1A761C71
:101E10000298B2B2C0190099FFF76CFF002803D0F6
:101E20000020C04305B0F0BD681C00901048BF19E9
:101E3000C0682D18E61BA742E3D33846F2E710B579
:101E4000FFF7E8FE002805D1FFF78BFEB920FFF76A
:101E5000C3FE002010BD10B5FFF730FEFFF735FEC2
:101E60000020FFF77EFEAB20FFF7B6FE002010BD7E
:101E7000E025FD0780841E00052000070188302230
:101E8000114301800188032211430180704705201E
:101E90000007018830229143018001888908890068
:101EA000018070471849086070471748006800288B
:101EB00000D000477047154A13695B085B00136147
:101EC00053691B0E1B06401E034353619069000EAD
:101ED000000690611069022398434900084310618D
:101EE00010690421884310611069012108431061C1
:101EF000704706488169090E090681610169490830
:101F00004900016170470000F025FD0700E000E096
:101F100002480068002800D000477047F425FD07FC
:101F2000F1B5614892B0614904460490088A07906F
:101F3000892205200007028101225D4B52031A808D
:101F4000028880231A43028002889208920002804D
:101F5000088A022210430882A41C00F0F6F940F718
:101F60002FFD40F733FD0020694601E00888401C42
:101F7000088008889128F9D34E480188119141883A
:101F800010914D49CA880F920A890E92C2880D920B
:101F9000408B0C90494840880B9048880A9000F08C
:101FA00053F84148002580B22B4684464448614698
:101FB0004180FF21818001210180C188C907FCD1B6
:101FC0000A460846049E275C365C7E40F607F60FFC
:101FD0008E401643491CC9B2F2B2082905D11299A4
:101FE0004A556D1C0021ADB20A46304FC826203735
:101FF0003E801030FF2680B2B600B042E2D95B1CB2
:102000009BB2022BD2D32949079808822D49002080
:1020100008802848119901801099418026490F9A1B
:10202000CA800E9A0A810D9AC2800C9A4283234A72
:102030000B9850800A98488005200007028880216C
:102040008A43028013B0F0BD08B51A490020088009
:102050004880194A1C4BD380FF23D2331381C88098
:10206000C3215180174A082111806946088003E086
:102070006A461188491C1180694609889129F7D35D
:102080006946088003E06A461188491C1180694648
:1020900009889129F7D3694601E00888401C088027
:1020A00008889128F9D308BD1001FC07E0300050E2
:1020B000000200400024005060280050002600501C
:1020C000003500502020005080800000344B30B498
:1020D000334A3448603309E0016800290CD0446871
:1020E00025781560491E641C12C00838998B890731
:1020F000C90FF1D130BC7047002141605368022400
:10210000A34353608268002AF4D0816030BC002071
:10211000104710B5224881680907090F01291AD014
:1021200002291CD0042917D00C2914D11D4A117E74
:10213000012910D141690906C90F0CD00021D160D5
:10214000116183885B085B0083805369002B02D098
:1021500001205161984710BD00F004F810BDFFF751
:10216000B5FF10BD0F490E4809E002680B691A70EF
:10217000CA685B1C521E0B61CA60002A04D0426907
:10218000D207D20FF1D1704700220A6143685B0881
:102190005B0043604B69002BF5D000204A61184773
:1021A00000110050602DFD078307FF22DB0E9A40CF
:1021B0008907090E994000280BDA0007000F08383C
:1021C000830851489B001818C36993430B43C361AC
:1021D000704783084D489B001B18186890430843BC
:1021E000186070474A480078002802D00020C04399
:1021F000704701204749000408600020704710B56F
:10220000FFF745FE052109078888414AC30B1046A0
:1022100018D0414B1C88640714D51178890710D554
:102220001988022211431980198849084900198028
:102230004468002C05D0985E0421595E0A229A5EFB
:10224000A04710BD8988C906FBD51178C907F8D009
:10225000324901228A800A8880239A430A80806852
:102260000028EED0804710BDF8B505242407A588C6
:1022700010263543A580294C00252581D2B26280E5
:102280002A46D7000546FD40EEB255002D196E8155
:102290000E46FE40F6B26E82521C042AF1DBE28941
:1022A00003252D020004800FAA4300020243E281AD
:1022B000E08A0904890FA84309020843E082012546
:1022C000A58017482E0406609806800E8030208076
:1022D00029461020FFF768FF0D4801782943017057
:1022E0000C4880380660F8BD094801784908490063
:1022F00001700A4801218180018880229143018078
:1023000070E703498860704700ED00E000E400E0FA
:10231000842DFD0780E100E0000200500001005024
:1023200080E200E00020704770477047704700204F
:10233000704701218907086B072210430863704723
:10234000704740087038C0B2704741493F48086044
:102350004149404848814148418806229143891CAF
:1023600041803F4A6321D1803E493B4A0988603A17
:1023700011823D49098801803C480078002802D03C
:102380003B4930200883704700B58BB0394A426220
:10239000394A8262394A4261394AC262394A026024
:1023A000394A0262394A4260394AC261284A27489A
:1023B0000021106026484038426B1F231B049A43BB
:1023C0004313D218426333480268C3129A4302602F
:1023D000026803139A43026068464154491CC9B21B
:1023E0002829FAD301462C482822006840305BF7A0
:1023F0005DFEFFF7AAFFFEF71FFC2849088008F0E2
:10240000BFFF0BB000BD10B511491048086010485F
:102410004038416B1F2212049143421389184163D3
:1024200000060168C908C90001600520000701898C
:1024300089088900491C0181018908221143018111
:10244000FFF783FF012008F0C5FF10BD4C055407BE
:1024500080000040EBE6000060280050002600509D
:10246000002C00503A2DFD07382DFD07902DFD075B
:10247000002400502523FC072923FC072F23FC07F9
:102480003323FC072B23FC074123FC072D23FC07E8
:102490004323FC07000200404C76FD07342DFD0766
:1024A000F0B5AE4AD3785479C01AC3B2AC48007DB7
:1024B0001EE0AB4D0A26203D2D6B4643AD19AE788C
:1024C000D5786D1CEDB2D570A54201D9F7070CD1B6
:1024D000760604D09668651BAD19956005E0157900
:1024E0006D1C1571D5686D1CD560401C4007400FF0
:1024F0001D465B1EDBB2002DDBD11079A04200D956
:102500005071002902D00020D0701071F0BD70B55C
:102510000124A407A06BFEF7FEFB9049914E0A69C7
:10252000851800200861314628465BF745FD8E4935
:10253000486032465043281A00D0301A80B20860F2
:10254000206B082188430843206370BD10B5FFF756
:102550009EFC052000074189890708D04189890828
:102560008900418181494A88520852004A80018984
:10257000802211430181018A042291430182818AD0
:102580008907FCD500F00AF901208007016901697B
:102590004907FCD510BDF8B50526360770898007B8
:1025A00020D0B08A400701D505F046F86F4D288845
:1025B0008027384328806E4CFF20608004202080D4
:1025C000FFF75AFC7D21C900E088A288000480182A
:1025D0008842F9D9052020806048C088708028880A
:1025E000B8432880634801894907FCD4FFF7AEFF50
:1025F000F8BD70477047F8B50127584EBD072C69E4
:10260000002C7DD0200606D58020A8614AF79BFBD0
:102610001420FEF793FAA0070BD50220A8615648B4
:10262000002100688030008EC0B2FFF739FF46F706
:1026300050FB200726D50820A86150485221006889
:102640006430808848434E4909684018C030808B08
:102650000121000AFFF724FF04F04FFBB0780028A7
:102660000BD046480268243207D04032D07E002882
:1026700003D1D07F08210843D077002046F7E9FA3C
:1026800004203070E00505D5FF200130A86101204D
:1026900046F7DFFAA00504D501204002A8614AF7F9
:1026A000BBFB600603D54020A86146F7CDFAE006E3
:1026B00003D51020A86144F702FF600726D5042047
:1026C000A8612C48018949084900018159F7E8FEB1
:1026D0003FF7F2FF1420FEF731FA00203070234854
:1026E0004089800512D5707800280FD12548777071
:1026F0000088C0070AD10120FEF786FC8B2100E08C
:1027000015E08900884201D902207070E00708D0E6
:102710000120A86159F7E0FE4AF715FB377004F075
:10272000F0FAA00600D46AE72020A86167E7F8BDA8
:10273000704710B51448C18840880A460240D30744
:10274000064A01D003231370890703D5C00501D5BC
:102750000220107004F0D6FA10BD0000942DFD0781
:102760000079FD0771020000400000402000005089
:1027700000160050003300505876FD073879FD07E9
:102780004C76FD07001500502020005010B53FF793
:10279000CAFD5C4880685C49086010BD10B53FF711
:1027A000EEFD594857490068886010BDF8B500250E
:1027B00000F0A4F800270090FEF774F9534E0028AB
:1027C00002D13079022801D100200090FEF7ACFA46
:1027D00000280DD158F7BBFF002809D0F07801255B
:1027E000002805D005200007808AC00701D00425F5
:1027F00082E0308800287FD14548806A002802D0D6
:1028000000F07CF80090B178684659F7ABFC0028DE
:1028100072D00124A407206940066DD43B4881781A
:1028200068464AF7E7FB002866D00099002906D0E1
:10283000206AFF383938DA2801D8491E0091354816
:10284000FEF768FA05460646334812360078022835
:1028500000D11136314840893148FEF75BFAE16B0F
:10286000281A890A89020143E163E06B2D49084077
:10287000B1020843E063E06BC002C00A6905084387
:10288000E063294B04250CCB002100985BF7BEFBCD
:102890000903000D08431D49401E0979002900D095
:1028A000012146F77CFB2148C06A8047FEF753FAB6
:1028B000002802D0FFF7E0FA0127206B0004C00FC8
:1028C000FBD010480168C905FCD5002F01D0FFF7E7
:1028D000DEFA17484189462904D24622154B511A7F
:1028E00019604281FFF752FF05200007018980220D
:1028F000914300E000E001812846F8BD0E480068E1
:10290000806A704700020040A82DFD075877FD0738
:10291000787EFD071D0D0000B477FD0720000050F4
:10292000540B0000FF03E0FF582DFD07B47FFD07A7
:1029300000330050A42DFD075876FD07FFB58BB07E
:1029400000241746169E159D74486A46009410840C
:10295000002904D0042201A85BF7A8FB02E00020B4
:10296000C04301900120019907E00A460241D207C5
:1029700001D0641CE4B2401CC0B2B842F5D31820A8
:1029800060430321183059F705F804460B98314687
:10299000008820801498608040200143217110221B
:1029A000A01D29695BF782FB01266DE0019830418B
:1029B000C00767D03046142148430A904019099057
:1029C0000079022804D0042813D010283DD055E007
:1029D000182102A85BF783FB0A98285801786846FB
:1029E00001720A98285841786846417209988068AF
:1029F0001CE0182102A85BF772FB0A98285801789E
:102A0000684601720A9828584178684641720A98C7
:102A100028588178684681720A982858C178684693
:102A2000C1720998012180688904084306900998B9
:102A3000818968468183182100980A464843001915
:102A400002A918305BF732FB18E00A9818222958BF
:102A50000098504300190290102218305BF726FBB3
:102A60000298012201460998D20480682831104357
:102A70005BF757FB09988189029881850098401C73
:102A8000C0B20090761CF6B2BE428FD3009860713F
:102A900020464DF7F8F90290002838D10B9821888C
:102AA0000180002001260390012F30D90198304188
:102AB000C00725D003981421401CC0B203903046B3
:102AC0004843411900918989090419D40099C98999
:102AD000002915D000990979022906D12858022227
:102AE00008A95BF707FB00280AD000982288C18953
:102AF00003690398101880B200224DF79EFA0290E5
:102B0000761CF6B2BE4202D202980028CED02046F1
:102B100058F7BBFF02980FB0F0BD0000032800007B
:102B2000FFB58DB00546169800270078401E012895
:102B300078D80121282058F72DFF044628215BF77B
:102B4000CEFA16980178204620300B90817100262D
:102B500060E00720694608760B98082241791698AC
:102B60008019074605904078B04001430B984171A9
:102B70001699F00041180019001D091D5BF796FA1F
:102B80007878012805D16946087E082108436946FE
:102B900008760B988079012805D96946087E1021AE
:102BA0000843694608760E987100028809A80791C3
:102BB000425210981E221040AB8A8030039009A820
:102BC0000818BD4F002269468CC1052306AABB49DF
:102BD0004DF711FD070018D1079809AA115A059859
:102BE0004078012801D0012000E00020081A0E9949
:102BF000401D088005984078012806D10798B04903
:102C0000105A801C80B24DF7B4FB07206946761C31
:102C10000876F6B216980078B04205D9002F98D001
:102C200004E0FFE7812706E0002F07D0002C02D048
:102C3000204658F72AFF384611B0F0BD2C6168468F
:102C40000E99808C088020831098C00701D0012045
:102C5000C0030F9908432080A88A60802420E8825E
:102C60000120E8811C349748AC606860A88A002184
:102C700059F721F9DFE770B505690446686900284E
:102C800001D058F702FF00202061284658F7FDFECA
:102C900070BD006900224018427770470069002229
:102CA000401842777047F8B505460C46242001F0DD
:102CB00052FF06462030002183790A46AB422BD9C9
:102CC000318B052709E04679D640F607F617BE1B7B
:102CD0007118491E521C89B2D2B2AA42F3D3032CF6
:102CE00001D2081915E0032C02D0042C07D012E001
:102CF0004079D040C0070ED0C91C89B20CE0012B2E
:102D000009D94079D040C007C0170422101A4018D2
:102D1000401E81B200E000210846F8BD70B50C46A7
:102D200015460646002101F02BFF02462102C12074
:102D300009230001083158F73BFF04461220207098
:102D400002212846FFF7AFFFA0800120E080701924
:102D5000807E2072204658F744FF70BD56483C30B4
:102D60007047F8B5044616460D46242001F0F3FEE0
:102D7000038B002280212A7020301EE09F1CBC4261
:102D800001D8E01A09E04379BFB2D340DB0707D08E
:102D90007F1CBFB2BC4203D103203070002113E07E
:102DA0006346012B05D97F1CBFB2BC4201D1042070
:102DB000F3E77F1C521CBBB22A708779D2B2BC46A3
:102DC000BA4201D29C42D9D20846F8BDF8B52420B7
:102DD00001F0C1FE0446FF2000906069092281884D
:102DE0009202914220D1027B009202460E32964618
:102DF00022461A32D71C951D014694460C310FE02D
:102E00000E780123F65D93401E4207D07346D65CD0
:102E10006346D35C9E4201D0097817E0521CEA71E8
:102E2000EA79022AECD31DE0274A91421AD12146C1
:102E300002461D310C328C46CD1C10E06346CE5C40
:102E400017780123BB401E4207D0FAB22046FFF795
:102E500065FFE879401CE871F8BD491CE971E97922
:102E60000829EBD3818809229202002591420AD1D8
:102E7000C288018914480223401E58F799FE009920
:102E8000017045700AE0104A914209D1C288018957
:102E90000D480123401C58F78BFE057058F7A1FE22
:102EA000606958F7F2FD00212046656101F068FE77
:102EB000002159F700F8F8BD84B8FC070F1800008E
:102EC0000102000000B9FC0702240000FFB581B038
:102ED0001F460C460226039859F71FF800282FD1E9
:102EE000242001F038FE05462078082804D851F740
:102EF000C7FE9C49884212D1022339469A48039A58
:102F000058F756FE217801702178082901D940210F
:102F100000E08921417058F764FE002610E0012688
:102F20003146039858F7C7FF6178227828461D304C
:102F300011540C3C6C6100202035E871FFF746FF0E
:102F4000304605B0F0BDFFB581B00C4602260398AF
:102F500058F7E3FF002826D1242001F0FCFD0546A8
:102F60002F4620372078B979884210D261786429B9
:102F70000DD8BA1F815401263146039858F79BFF9C
:102F80000C3C00206C61F871FFF720FF0BE07648E5
:102F90000123801C039A049958F70AFE81210170CD
:102FA00058F71FFE00263046CBE7FFB583B000255B
:102FB00068460571057017460E4608886A4601A9DD
:102FC000FFF7CFFE044606233A466848069958F7AD
:102FD000EFFD31880180002C05D16946097803296D
:102FE00007D045800324047158F7FBFD002007B08B
:102FF000F0BD02214180F6E7FFB583B00F46002007
:10300000694608700871069801AA040A3888FFF713
:10301000A8FE060011D1242001F09DFD0546F87997
:10302000B9790002084369460979032904D10121CD
:10303000002810D0012816D080264C480423801E7A
:10304000059A069958F7B4FD39880180867058F7BB
:10305000C8FD0020CBE76B4628191B78427F9940BA
:103060008A43427706E06B462A191B78507F9940C5
:10307000084350772146284601F08AFD01463A4828
:103080000223C01C059A58F793FD04702919497F43
:10309000417058F7A6FDD0E7FFB583B00020694620
:1030A00008700871180A029004981C46008801AA4A
:1030B000FFF757FE06460025242001F04CFD074689
:1030C000002E08D168460079022814D0032814D0B5
:1030D000042814D080262548AB1D2146001F059AE0
:1030E00058F766FD04460498002E01882180267159
:1030F000658006D028E00125EDE70225EBE70725EE
:10310000E9E768460079022804D0032808D004289B
:1031100012D019E0684600783818807E607113E09C
:10312000029869463818407F0978C840C107C90F1E
:103130006171090AA17107E068460078C000C119F1
:10314000601D091D01F038FC204658F74AFD00209B
:103150004DE710B50878122801D1FFF737FE00209F
:1031600010BD0000FFFF000001240000180C00004B
:1031700002468B880020022B01D00D207047C988A1
:10318000002A05D00029F9D00129F7D08120704705
:103190000029FCD00229F9D17047F0B589B0044666
:1031A0004CF7C2FE05460026384F14E005A920461C
:1031B0004CF7D9FE002301AA07A905A800964CF7F1
:1031C000C5FF68468088B84203D1641CA0B209B02C
:1031D000F0BD641EA4B2A888A04202D8E888A0422C
:1031E000E4D20020F3E7F0B58BB004464CF79CFE28
:1031F000264F00260546FF371BE008A920464CF75E
:10320000B2FE002301AA05A908A800964CF79EFF6C
:1032100068468088B84203D16946097D022911D0E9
:103220001A49884203D16846007D022807D0641CF1
:10323000A4B2A888A04202D8E888A042DDD200202B
:103240000BB0F0BD2046FBE710B50446382001F076
:1032500082FC82790021A24202D98088001981B2C1
:10326000084610BD70B504460D46382001F073FCC9
:1032700081888022A14206D880790818A04202D90C
:10328000601A28700022104670BD0000032800005C
:10329000FFB504460F4618461E21084083B0A18A98
:1032A0001D463F4A803000230192009102900C227B
:1032B00019463846FFF742FB060025D10121282098
:1032C00058F768FB2061398881800C218171E907FA
:1032D00001D00121C903059A11430180A18A4180CF
:1032E0003821E1820121E18101462431A1602D498B
:1032F000103061603FF70EFC0C21294800F0A7F860
:10330000A08A002158F7D7FD304607B0F0BD70B550
:1033100004690546264610362069002805D0304647
:103320003FF700FC58F7B1FBF6E700202861204684
:1033300058F7ABFB70BDF8B5194D1B4E0F46012475
:1033400020461421484341190979022908D12858F7
:103350000088B04204D1E1B20022384600F094F86F
:10336000641C0C2CECDBF8BDF8B50D4D0E4E0F4671
:10337000012420461421484341190979022908D122
:1033800028580088B04204D1E1B20022384600F04B
:103390007BF8641C0C2CECDBF8BD04487047000083
:1033A00060C6FC0748B9FC070229000008B9FC0701
:1033B000F7B507460D46382001F0CDFB06460469F7
:1033C00010E02079B8420CD16079A8420DD0304687
:1033D0000022214610303FF715FC204658F755FBD8
:1033E00005E02468002CECD101E0002C0AD128462D
:1033F0000121083058F7CEFA044601463046103015
:103400003FF7ACFB277165712A46A01D02995AF758
:103410004DFE0020FEBD70B5064614460D46382010
:1034200001F099FB03690BE01879B04207D1587994
:103430002880981D2060002B04D0002070BD1B68E0
:10344000002BF1D10020288020600A2070BDFEB53D
:10345000054600200E4600900124F24F019010E036
:1034600020461421484341190979022908D12858D6
:103470000088B84204D1E0B26A460821FFF798FFFD
:10348000641CB442ECDBFEBD7FB50E461446054617
:1034900001AA69463046FFF7BEFF6846028802A8C7
:1034A00001995AF703FE02A844550246684601886E
:1034B0003046FFF77DFF7FBD7CB5382001F04BFB28
:1034C00084680546407B6A4601A90C34FFF7A3FFD8
:1034D00000992DE0421C2A736278002A0A5C02D00F
:1034E000D20725D001E0920722D5A18808318BB2FE
:1034F000A968CA880102C1200001083158F758FBA9
:1035000006466078002801D0122000E013203070B9
:10351000A88861884018B080A088F0803046A288D2
:10352000A11D08305AF7C2FD304658F75AFB7CBD42
:10353000287B0828CED3607800260028A868C28897
:10354000018907D00423B84858F732FB618801800D
:10355000867007E0B4480623801C58F729FB618871
:103560004180067158F73DFBA86858F78EFA002194
:103570002846AE6001F004FB002158F79CFC7CBD9E
:1035800010B50C46382001F0E6FA2078122801D058
:10359000132801D1FFF790FF002010BD10B50C4695
:1035A000382001F0D8FA80886188A31D401880B2C5
:1035B000A18800224CF741FD002010BDFEB5174642
:1035C0000C46382001F0C7FA05468088618840180B
:1035D00086B2384658F7A1FC012820D0A188A31D47
:1035E000002230464CF729FD3046FFF7FCFD6946C6
:1035F000FFF738FE684601AA02A90078FFF70BFF23
:103600000121384658F757FC0C3C0020AC60287369
:10361000684600786873FFF74FFF0120FEBD022067
:10362000FEBDFEB51E4617460C46382001F093FA43
:103630000546A1886088A31D00224CF7FEFCA888DF
:103640006188401880B2FFF7CEFD6A4601A94CF7A9
:10365000E8FD00980088022810D073488B250623C7
:103660003A463146801C58F7A3FA61884180217898
:103670000170057158F7B5FA0020FEBD20780823C7
:103680000102C1203A460001083158F791FA13218E
:10369000017061888180EDE7FFB589B00F46002099
:1036A000694608740C9804A9060A3888FFF7DAFD01
:1036B0000546002469468C82382001F04CFA002D22
:1036C0001CD1382003F01AF843686846007C1422A5
:1036D000014651430A1D9A5C022A0ED15958514A9B
:1036E0000988914209D16A4603A9FFF794FE009820
:1036F0006946805D8882022400E08025A31D4B4836
:103700000B9A0C9958F754FA064638883080357170
:103710007480002D04D1224605A9701D5AF7C6FCFD
:10372000304658F75EFA00200DB0F0BDFFB585B009
:103730000C46382001F00FFA049000266846067007
:1037400008986946050A2088FFF78CFD07005AD1C2
:10375000382002F0D3FF01464768684600781423FA
:1037600002465A43131DFB5C022B1ED1BA582D4B47
:1037700012889A4219D1019602962088FFF70DFD12
:1037800001AB002203A94CF774FE03982146800583
:10379000C00FFFF7EDFC07063F0E34D168460178F5
:1037A000E2882846FFF770FE12E0002908D08E69F3
:1037B000002E05D0A2886188A31DB047070022D142
:1037C0006288A1882088A31D4CF737FC07001AD116
:1037D0002946049801F0DCF90146A088079A801D6B
:1037E00083B21148C01C58F7E3F90546A288A11D11
:1037F000801D5AF75BFC684600786880A088A88026
:10380000284658F7EEF909480423801C079A0899BE
:1038100058F7CEF921880180877058F7E2F9002027
:1038200009B0F0BD0229000005380000140C0000AA
:1038300030B503460120002103241A46CA40D207AE
:1038400004D04D0022466D1CAA401043491CC9B249
:103850000929F2D330BDFFB585B00E9F04461D4641
:103860003888FFF7E5FF049028461E210840A18A0A
:10387000494A002380300191009302920390132360
:1038800004AA464906984CF7B6FE060022D101214B
:10389000202058F77FF8206106990988018339882C
:1038A0004183E90701D00121C903079A114301802F
:1038B000A18A41801421E1820121E18101461E316A
:1038C000A1603749001D61603FF724F9A08A0021FB
:1038D00058F7F1FA304609B0F0BD70B504690546F5
:1038E0006068002805D0201D3FF71CF958F7CDF877
:1038F000F6E700202861204658F7C7F870BD7047EA
:1039000070472548E430704730B50446228B0920C3
:10391000521C93B2648B00222546D540ED0706D099
:103920005D1C8D4201D1104630BD9B1C9BB2521CC8
:10393000D2B2092AF0D330BD10B50346008B5B8BA1
:10394000401C80B200221C46D440E40706D09142BD
:1039500002D1401C80B205E0801C80B2521C52B2E1
:10396000092AF0DB092A00D1002010BD0246002000
:10397000802901D98D207047062A06D0072A07D052
:10398000082AF8D10729F5D170470829F2D17047E4
:103990000629EFD37047000050B9FC070A18000051
:1039A0005CBAFC07FFB581B00C46142001F0D3F8D7
:1039B00021780746092931D2FFF7BEFF00282BD016
:1039C00061782078FFF7D2FF060028D17D680DE0EE
:1039D00028792178884208D100222946381D3FF7EE
:1039E00011F9284658F751F802E02D68002DEFD163
:1039F00060780121083057F7CDFF054620782871FF
:103A0000607868716278A11CA81D5AF74FFB29469F
:103A1000381D3FF7A3F802E0822600E0812602234A
:103A20005248039A049958F7C3F8217801704670F8
:103A300058F7D7F8002005B0F0BDFFB581B00020E1
:103A400000900E46039858F768FA002802D0012823
:103A50004CD04DE0142001F07EF807463188FFF786
:103A600053FF05464248092D36D27C6803E0217990
:103A7000A94203D02468002CF9D117E0002C15D0FE
:103A80006379039A9B1D049958F792F8054630888C
:103A9000288000202871607968806279A11D681DE6
:103AA0005AF704FB284658F79CF821E03D77049824
:103AB000010A7977384601F06BF801462B4801235B
:103AC000401C039A58F774F8057058F78AF80121DA
:103AD000039858F7F0F90BE00623039A049958F776
:103AE00067F83188018080210171DCE702200090B5
:103AF0000098A0E7F8B517460D46104658F70DFA9E
:103B0000012831D1142001F026F80446017FFFF787
:103B100013FF0646217F2A781548914214D1617F10
:103B20006B7809023A4608319B1D58F741F8044664
:103B3000068000202071687860806A78A91C601D6A
:103B40005AF7B4FA204609E0617F062309023A4693
:103B5000083158F72DF806808021017158F741F897
:103B60000021384658F7A7F90020F8BD01140000DD
:103B7000140C0000F0B5054637260020765D04469B
:103B80008E4249D9172A47D216270E467E43761908
:103B9000132A02D3F77D9F423ED9288E07E01627CD
:103BA00067437F19BF7D3818641C80B2E4B28C4231
:103BB000F5D3132A35D28018B18880B2CB0709D14A
:103BC0000F2A02D9401F80B204E013460B3B042B9E
:103BD00000D800208B0709D4122A02D9C01E80B257
:103BE00004E01346103B022B00D800204B0709D4F9
:103BF0000A2A02D9801E80B204E01346093B012B39
:103C000000D80020090707D4082A01D9801E02E045
:103C1000012A02D9401E80B2F0BD012AFCD1002049
:103C2000F0BD317E0818002180B240240AE0C01C9B
:103C3000B78825468D4080B22F4201D0401C80B20B
:103C4000491CC9B29942F2D3162A03D1B1889C40CB
:103C50002142E4D180181338DDE7FFB597B000208A
:103C600005461590209F0121382057F793FE0590B7
:103C7000002012901390089009900A900B90382120
:103C800005985AF72CFA3878002801D0022800D974
:103C900081250020F7E01A214843C0190290C0781E
:103CA000082801D9812522E1029816218078820610
:103CB0000498920E4843059944180F94A2800298E4
:103CC0000321C078E0759920800057F763FE024613
:103CD0000498FD26810012A80E914250049A08AB68
:103CE000D20014929E50A27DD21DA2754058E422AB
:103CF000FB495AF7DBF902988078000711D514992F
:103D000008A84158721D1143149A81500F980F99B9
:103D1000807D801C8875029812A9028B0E98085825
:103D200082820298807840070CD5149808A90A5816
:103D300003204002024314980A500F980F99807D87
:103D4000801C887502988078C00718D0149908A83C
:103D500041581F22D2021143149A81500F980F9993
:103D6000807D401D887502988078C00607D50E9921
:103D700012A84058DB4A80304169114341610298E2
:103D80008078800718D5149908A841580722120492
:103D90001143149A81500F980F99807DC01C88752B
:103DA00002988078800607D50E9912A84058CD4A0F
:103DB0008030016D114301650F980026817D0176E9
:103DC00054E000201090149908A80818B400214667
:103DD00013314A0993000D909C46C258CB06DB0E66
:103DE000012199400A4363462146C25014314A09D1
:103DF00093009C46C258CB06DB0E012199400A4332
:103E000063462146C25015314A0993009C46C25868
:103E1000CB06DB0E012199400A436346C2500F983E
:103E20000F99807D3022C01C88750E9812A9095800
:103E30000C206043E4300818A949E4315AF736F9F8
:103E40000298801901798907890F012923D0022955
:103E500041D0032941D081250E9812AA1258302052
:103E60007043F4301099761C1150F6B20298C07865
:103E7000B042A6D80F98817D15980818C0B2159049
:103E80000498401CC0B204903978814228D9002D92
:103E900000D100E72BE094491091163461098900A4
:103EA0000D9AE4065258E40E0123A3401A430D9BD9
:103EB0005A500F990F9A897D491C91750F998A88DC
:103EC0004021B1400A430F998A800079C006C3D5CA
:103ED00086481090C0E78648FBE78248401CF8E718
:103EE000002D04D1159918984CF70CFC054618982C
:103EF0006946008888831898018805980186059886
:103F000039782030C17500206946087604466CE097
:103F10001A981E210840A20012A9179B89589B8A53
:103F200080300022029103900092E10008A80A1854
:103F3000019333236F4907A84CF75DFB0546162014
:103F400005996043401800906946807D898B401830
:103F500069468883002D20D100230322214605983D
:103F6000FFF708FE1A216143CE19334614330022AD
:103F700004214CF762F805000FD1B07800070ED588
:103F80000023082221460598FFF7F4FD33461A3333
:103F9000002202214CF751F80546002617E00026C2
:103FA00017E08019027B69460A760079334680075C
:103FB000800F4876152221460598FFF7DBFD06ABFA
:103FC000002202214CF739F8761C0546F6B2002D86
:103FD00006D120461A214843C019C178B142E0D821
:103FE00001200099641C4876E4B23878A04202D9D6
:103FF000002D8DD001E0002D13D00598002801D0B0
:1040000057F743FD002412AEA0003058002801D01D
:1040100057F73BFD641CE4B2022CF5D328461BB0D5
:10402000F0BD1799059808611A98C00701D00120C2
:10403000C003199908430599088017980599808A43
:10404000488017982621C18217990120C8810598B8
:1040500017993630886017982749416017980021D2
:10406000808A57F728FFCDE710B500220169026169
:10407000084657F70AFD10BD704730B502690020A9
:10408000490013460446203306E016254543AD1883
:104090006D18401CEC80C0B2DD7D8542F5D830BD86
:1040A00016487047F0B58025AC46048E17251D7064
:1040B000002506461570203609E016276F433F1885
:1040C000BF7D3F198F421BD86D1CBCB21570F77DA8
:1040D000EDB2BD4201D2A142EFD26046F0BD000078
:1040E00064BAFC0708000200010200000902020095
:1040F0000980020012180000C8BBFC0778BBFC074F
:104100000025059EAC462F4635701578162675435A
:104110002E18357E2D198D4238D9A14201D11F703C
:10412000DBE7B288100705D5641CA4B2A14201D117
:10413000012041E0E41DA0B20824814202D8401AC7
:10414000201A39E0150705D5401C80B2814201D103
:104150001C70C2E7540706D5801C80B2814202D889
:10416000401A0B2110E0D40706D0401D80B28142D6
:1041700002D8401A102107E09207AED5C01C80B2C9
:104180008142AAD8401A1321081A15E0059EACB244
:10419000377016E0E41CA4B2A14203D8611A1620BD
:1041A000401A09E0B7884026AE40374206D0641C6A
:1041B000A4B2A14202D1162018708EE7059E6D1C94
:1041C000357016781627059D7E4336182D78F77DB5
:1041D000BD42DFD381E7F3B583B00C46262000F063
:1041E000BAFC002584460195607817222F462E469A
:1041F000002804D002280BD0042810D10CE021792B
:104200004020884014222D2786B20120019006E02C
:104210000C220827012602E0112208270226237912
:1042200021786046FFF7A6FC0090002804D0608843
:10423000B84217D98D2549E0002E11D061462031B2
:104240002078C97D88420BD21621484360442279E8
:10425000C17D8A4204D28088304201D18C2535E06C
:10426000812533E0207816214843039960444900B2
:104270004118C988314201D18A2527E0427E01993F
:104280008A4204D00079400701D589251EE06046A6
:10429000039900F075FC02466088083083B20398E9
:1042A0000102C1200001083157F782FC06461220A6
:1042B00030700098B0806088F08030466288611D60
:1042C000083059F7F3FE304657F78BFC284605B007
:1042D00004E7FFB50746002081B00446009016466B
:1042E000262000F038FC05460D2E08D0122E08D0EE
:1042F000162E07D10498402181408CB202E001249F
:1043000000E00224029816220A997E0050430029F8
:1043100004D0012907D080200090D8E740198019E7
:10432000C188A14303E040198019C1882143C1809D
:104330003946284600F024FC04463946284600F059
:1043400027FC0146062322460B4857F731FC01465D
:1043500007700020162242434300521992195B183D
:10436000401CD288C0B25A800228F3D3084657F7BF
:1043700038FC0098ABE7000008260000FFB581B0CC
:104380000D460026262000F0E6FB04462878082883
:1043900007D850F775FCFC49884206D128780828D0
:1043A00001D9402614E0892612E000222046203060
:1043B0000BE0510049194B8816212F7851430919F8
:1043C0007F00C919521CCB80D2B2C17D9142F0D876
:1043D0000223EE48039A049957F7EAFB2978017003
:1043E000467057F7FEFB002005B0F0BDFFB581B069
:1043F0000D460027039857F790FD0446C00702D0EA
:1044000002273846F0E72878082807D850F738FC04
:10441000DD498842287805D1082801D9402606E0E0
:10442000892604E0A91CFFF7D6FE06000CD0D74869
:104430000223801C039A049957F7BAFB297801706C
:10444000467057F7CEFBDCE7012004432146039872
:1044500057F731FDD5E7FFB583B00D46059857F7FF
:104460005CFD0190800771D58026262000F073FB4B
:104470000446A878002803D006463320005D29E0D2
:10448000274620376978F87C814223D12978BA7C85
:1044900091421FD168790022030059F75BFE0504A1
:1044A00006080A0C0D00142206E0072204E00C2284
:1044B00002E00F2200E011222B7A29792046FFF733
:1044C00059FBA18E814204D1F87C0026012810D02E
:1044D00002E0F87C01280ED03220005D04230102A6
:1044E000AB480831059A57F763FBA18E01808670AF
:1044F0001DE0E88800E000200090801D83B232209B
:10450000005D059A0102A2480831801E57F750FB52
:104510000746A08E38803E7100987880002E05D125
:1045200029460931781D009A59F7C0FD384657F7DA
:1045300058FB204600212030C174A186FF218174E0
:104540000199FD200140059857F7B5FC002007B000
:10455000F0BDFFB581B00F46039857F7DEFC064665
:10456000800742D58025262000F0F5FA04467878A9
:10457000002801D0054618E020462030C17C0329E0
:1045800013D13978807C814214D1B97800230A2272
:104590002046FFF7EFFAA18E814206D1B8781622A5
:1045A00000255043F9780019417620462030C17C1F
:1045B00001291CD03220005D042301027448083117
:1045C000039A57F7F5FAA18E0180857057F709FB1A
:1045D000204600212030C174A186FF218174FD2076
:1045E00006403146039857F766FC0020FCE6807CC5
:1045F0000623010266480831801E039A57F7D8FA4D
:10460000A18E01800571E1E7F0B585B01F46164621
:104610000D46262000F09FFA03A90091298801ABDE
:1046200002AAFFF73FFD04465948062332463946A1
:10463000801C57F7BDFA29880180002C13D16946E8
:104640000A7900210C3A130059F784FD0B07090B76
:10465000070B07090B070B090B00418003E0022140
:10466000FBE741800324047157F7BBFA0020BBE647
:10467000FFB58BB000200A900D460D9857F74DFC02
:10468000099080077ED40E98070A262000F063FA6E
:10469000059003A80090298804AB02AA0598FFF7AB
:1046A00001FD059E044620360020B774F07405987D
:1046B00029888186002C16D16846027C0F2A3ED0BC
:1046C00008DC052A10D00A2A22D00C2A37D00D2A5D
:1046D00008D174E0112A32D0122A70D0142A2ED0B8
:1046E000162A6CD0802480E03946059800F050FAF4
:1046F00001462648032308300D9A57F759FA0770E8
:104700006946097A4170A979817057F76AFA62E0BF
:104710003946059800F03CFA01461C480423401D28
:104720000D9A57F745FA0770032444706946097AD1
:104730008170A979C17057F754FAF4744EE0394684
:10474000059800F025FA0146A8880D9A083083B232
:104750000E48C01C57F72CFA077002270446477012
:10476000A888A0806846007AA0706846007BA07187
:10477000AA88A91DE01D59F799FC6846007C0C2801
:104780000FD007E03DE00000FFFF00000126000021
:10479000160C00000F2806D0112806D0142806D1C8
:1047A0000AE0E77003E0032000E00420E070204608
:1047B00057F717FAF77411E00020F7E7FFE7E879F9
:1047C000A9790002084300906846037B017A3846C5
:1047D000FFF77FFD0446F07C002806D009990220EF
:1047E00001430D9857F767FB0DE0042370480D9ABD
:1047F0000E9957F7DDF929880180847057F7F1F990
:1048000001E002200A900A980FB0F0BDFFB58DB00C
:1048100000200A900F9857F780FB0B90800774D404
:10482000002669468E843446262000F094F9054619
:10483000109805AB000A029004A800900E9803AAF5
:1048400001882846FFF72EFC070072D16846017DDB
:104850001098C91F000A40000B0059F77BFC100F8D
:10486000696938690942690B690D4C6910695769B2
:10487000022604E0032602E0042600E00126284682
:10488000029900F085F9014608234A480F9A57F724
:104890008FF90299017001244470002181806946DA
:1048A000097B8170C6706946097C817157F799F957
:1048B0002846203002998174C4740E980088A88616
:1048C0000B99022001430F9857F7F5FA49E0684623
:1048D000007B162148434019417E684681840124AB
:1048E00027E06946097B1622514349190818807947
:1048F000C007C00F18E06946097B162251434919C9
:10490000081880798007C00F0EE028E06946097B0F
:10491000162251434919081869460A7CC08840216B
:104920009140084000D0012069468884022400E0BC
:1049300080271F48A31D801E0F9A109957F738F93A
:1049400005460E982246008828802F716C8009A9A0
:10495000681D59F7ABFB284657F743F901E00220E1
:104960000A900A9811B0F0BD70B5087816460D4649
:1049700012281AD11C0A262000F0EDF8214600F07A
:1049800007F901460B4802233246401E57F710F93B
:1049900004706978417057F724F9304657F7BDFA2B
:1049A00041084900304657F786FA002070BD0000E4
:1049B000160C0000042600000A7902704A79427041
:1049C0000B8883701B0AC3708A7902714988417110
:1049D000090A817170470000014610B50020C9B274
:1049E000262911D006DC14290BD0242901D1FEF789
:1049F000B5F910BD37290AD03829FAD1FEF7CDFC18
:104A000010BDFEF77EFF10BDFFF74AFB10BD00F0A2
:104A100098FA10BDF8B50025794EFF27002818D068
:104A20000024182060438719F88AFFF7D5FF002873
:104A300002D0416838468847FF20F8827D60BD601B
:104A4000FD81387D57F77CFA641CE4B2052CE8D36D
:104A5000F8BD00242046182148438119224610320F
:104A60000D618A82CF824D608D60CD818D81355000
:104A7000087D57F7EEF9641CE4B2052CEAD3F8BDC3
:104A8000F3B5054681B000264088FFF7A5FF010079
:104A90000AD05B4F6A88002018234343DB19DB8A66
:104AA000934203D1422628E0402626E0401CC0B2B3
:104AB0000528F1D3002418206043C019C08AFF28BC
:104AC00006D0641CE4B2052CF5D3052C14D014E0F8
:104AD00028460830009018206043C0190E686B7893
:104AE000AA880746A91DB0470600EED16888F8825B
:104AF0000298B98A0180E8E74B263046FEBDF8B53A
:104B00003F4E07460024182060438519E88AFFF7C6
:104B100063FF002803D08268394628469047641C0A
:104B2000E4B2052CEFD3F8BDF3B5354E81B00F4696
:104B30000024182060438519E88AFFF74DFF0028FC
:104B400004D0C3683A46284601999847641CE4B2E9
:104B5000052CEED3FEBD034610B50020284A0146C1
:104B600018244C43A418E48A9C4204D118204143E1
:104B70008818006910BD491CC9B20529F0D310BDC1
:104B800042885004400CD20B01D009020843704700
:104B900002885004400CD20B01D009020843704730
:104BA00030B5FF21020AC4B2154B00201825454339
:104BB000ED18AD8AA54204D118214843C018C18A16
:104BC00003E0401CC0B20528F0D31002084330BDFA
:104BD00030B5FF21020AC4B2094B00201825454315
:104BE000ED18ED8AA54204D118214843C018818AE6
:104BF00003E0401CC0B20528F0D31002084330BDCA
:104C0000AC2DFD07FFB50646FF20FBB01F46032174
:104C1000E13056F7BFFE04467C9839460088208074
:104C2000B08A60801E2001408031C74B21710FCBBC
:104C30006D460FC510226946A01D59F737FA182195
:104C400009A859F74CFAC0491822103109A859F798
:104C50002DFA204618300546182209A959F726FAD8
:104C60001822BA4945A859F721FA284618301822BF
:104C700045A959F71BFA18210FA859F730FAB2497C
:104C8000182228310FA859F711FA20464830182267
:104C90000FA959F70BFAAD49182218314BA859F74B
:104CA00005FA2046603018224BA959F7FFF9182160
:104CB00015A859F714FAA4491822403115A859F734
:104CC000F5F920467830182215A959F7EFF99F49D0
:104CD0001822303151A859F7E9F9204690301822AE
:104CE00051A959F7E3F918211BA859F7F8F9964982
:104CF000182258311BA859F7D9F92046A830182294
:104D00001BA959F7D3F991491822483157A859F7E7
:104D1000CDF92046C030182257A959F7C7F91821F4
:104D200021A859F7DCF988491822703121A859F7D0
:104D3000BDF92046D830182221A959F7B7F983497F
:104D4000182260315DA859F7B1F92046F0301822D9
:104D50005DA959F7ABF9182127A859F7C0F97B4984
:104D60001822783927A859F7A1F92046FF300930D1
:104D7000182227A959F79AF974491822783163A89B
:104D800059F794F92046FF302130182263A959F7CA
:104D90008DF918212DA859F7A2F96C49182260390C
:104DA0002DA859F783F92046FF30393018222DA954
:104DB00059F77CF9182133A859F791F9634918225A
:104DC000483933A859F772F92046FF30513018227C
:104DD00033A959F76BF95D491822903169A859F741
:104DE00065F92046FF306930182269A959F75EF944
:104DF000182139A859F773F954491822303939A8BC
:104E000059F754F92046FF308130182239A959F753
:104E10004DF94E491822A8316FA859F747F9204695
:104E2000FF30993018226FA959F740F918213FA88F
:104E300059F755F94549182218393FA859F736F955
:104E40002046FF30B13018223FA959F72FF93F49CA
:104E50001822C03175A859F729F92046FF30C9300A
:104E60001325182275A959F721F9657120464BF7CA
:104E70000AF8059000283DD100210C2056F78AFD44
:104E800005460C2159F72BF92088E8808498007892
:104E9000287100206881F80701D00120C0037D99A6
:104EA00008432880B08A68803720F0820120F08192
:104EB00028460830B0602648356170607C98E988E3
:104EC0000180B08A002156F7F6FFED880D20694673
:104ED0000874F420088428460F3080B204AB002206
:104EE00001214BF7AAF81135A8B208AB0022022124
:104EF0004BF7A3F8204656F7C8FD05987FB0F0BDE4
:104F000010B5002201690261084656F7BEFD10BDCA
:104F1000704708B5006900216A4611704181C08858
:104F20000A460C3080B26B4601214BF786F8002808
:104F300006D00849C8200880074908204880FEE7B5
:104F400008BD014810387047E0BBFC07E0BCFC0717
:104F5000D8BDFC070031005000330050F8B51F46A3
:104F600014460E463720FFF7F6FD0546C088B31CF1
:104F70000C3080B2002201214BF75FF8002806D0E8
:104F8000B649C8200880B64908204880FEE76889ED
:104F900000281DD0390A0902C12009232246000138
:104FA000083156F705FE04466889012812D01320FF
:104FB000207000206080E88801220C30A08020460C
:104FC000E280B11C083059F771F8204656F709FE07
:104FD0000020F8BD1220EBE710B50C463720FFF794
:104FE000BAFDC0882346801D80B2002204214BF701
:104FF00024F8002806D09949C8200880984908203C
:105000004880FEE710BDFEB50C4600211F46154640
:105010001046019156F781FF002805D0284656F723
:105020007CFF012872D0C3E004232A4639468D480C
:1050300056F7BEFD05463720FFF78DFD0646218851
:1050400080793A0A081A009229808021C0B200278C
:10505000A97002280CD0042831D00A2857D008287B
:1050600079D00D2876D0A970284656F7BAFD9FE072
:105070006288A1882088A31D4AF7DFFFA870304608
:105080000099FFF785FD014637220823100256F7E5
:105090008FFD064600984FF7F3FD30807760607A09
:1050A00001067160207A000401437160E07900021A
:1050B00001437160A0790143012071606AE0628858
:1050C000A1882088A31D4AF7B8FFA8703046009930
:1050D000FFF75EFD014608233722634856F768FD57
:1050E000064600984FF7CCFD30807760607A010665
:1050F0007160207A000401437160E079000201438D
:105100007160A07901430220716043E04EE0628843
:10511000A1882088A31D4AF790FFA8703046009907
:10512000FFF736FD0146A0883722001D83B24E48A6
:10513000801C56F73DFD064600984FF7A1FD3080D4
:10514000A288A11D301D58F7B1FF2079F07004200E
:1051500020E000E023E06288A1882088A31D4AF7B0
:105160006CFFA87030460099FFF712FD01463E48DB
:1051700006233722401C56F71BFD064600984FF7C2
:105180007FFD3080B780E0790102B180A0790143D2
:10519000B1800320B070304656F723FD64E7E07914
:1051A000A179000208437081AF705DE70220019091
:1051B0000198FEBDFFB583B01C460E46002705983A
:1051C00056F7ABFE002805D0059856F7A6FE012835
:1051D00040D040E03720FFF7BEFC317882796B4643
:1051E000891ACAB2002119800191198102210D2A60
:1051F00022D0132A24D0308801AA19464BF711F87F
:105200000546684600882146801D83B21548059AE8
:10521000801E56F7CDFC3188018004460571684632
:1052200002886280002A03D0601D019958F73EFF72
:10523000204656F7D6FC0EE0002519800A3007E01C
:1052400000251980200A4CF778FC6A46108102A8D4
:105250000190D6E70227384607B0F0BD0031005074
:1052600000330050160C00000137000010B500F0AC
:1052700024FB00F0F7FB00F09BFC00F07FF901201D
:10528000FBF7BCFB10BD4822002801D0012800D14B
:105290000A7070470120087000204880888070479D
:1052A0000021BE4A05E0834201D101207047491C1C
:1052B000C9B20C234B43D35CFF2BF4D100207047C1
:1052C00070B5B649B64C0E463036B64D0DE05218A4
:1052D0005268002A07D0C2B20C235A4351184968B9
:1052E000401C60702DE0401C607060780C224243CE
:1052F0008B5CFF2BEBD10AE089194968002903D0A8
:10530000FFF7CEFF002809D02078401C20702178BC
:105310000C204143705CFF28EED117E020780C216F
:10532000414389194968401C20700AE04919C9683D
:10533000002909D0C1B21C2251434919C968401C37
:10534000A0708847002070BD401CA070A0781C2170
:1053500041436A5CFF2AE9D10020A0706070207090
:10536000012070BD10B50121042056F7A4FDFFF700
:10537000A7FF10BDA4E7F8B505460024874E0AE054
:1053800080198168002904D0641CE4B2284688474B
:1053900001E0641CE4B220460C214843315CFF2943
:1053A000EED17E4E0024303609E08F19B96800290D
:1053B00003D0FFF775FF002809D0641CE4B20C216C
:1053C0006143705CFF28F0D10024764E10E0641C2D
:1053D000B968E4B228468847F1E7801901690029D5
:1053E00004D0641CE4B22846884701E0641CE4B29F
:1053F00020461C214843315CFF29EED1F8BD70B531
:10540000674EB06800282BD12C230422092166485E
:1054100056F7CEFB032101700A21B060417085214F
:105420000184002585765D49044645801022663951
:105430000A3058F73BFE2A2005552021E176A58346
:10544000E5835A496584488F8922892800D9104606
:10545000E0849720898FC000814200D808462085CB
:10546000B06870BD504810B5012304220921401EC8
:1054700056F79EFB0221017056F7B3FB10BD48485A
:1054800010B50C21183058F72AFE45490020183174
:1054900001220C2343435B18401C00061A71000EC6
:1054A000F7D03E490420603156F7D3FC0021042098
:1054B00056F701FD10BD10B5010204460223042277
:1054C0003B480A3156F774FB0C220121544301700A
:1054D000334A1321417018320021A218D17056F7B7
:1054E00080FB10BD70B50D460102314814462C23D7
:1054F0000422801E0A3156F75BFB014620310D72F3
:105500004C7256F76EFB70BD2A4B10B59A4201D90A
:105510001A4602E0002A00D1012256F79BFD10BD79
:1055200010B5FFF76CFF56F75CFB1D490020886043
:1055300010BD1B4A002124324B00D35C834203D1AF
:105540004800801840787047491CC9B20A29F3D333
:105550000420704730B5124B0022243354001D5DE7
:10556000854206D0FF2D04D0521CD2B20A2AF5D3B0
:1055700030BD52009854E018417030BD084910B554
:105580000020FF232431042442008B545218401C75
:10559000C0B254700A28F7D310BD000064BEFC07E7
:1055A000242EFD0750C1FC07040D0000A479FD075F
:1055B000040E00003075000010B5104656F7ADFC23
:1055C000002806D0A349C8200880A34908204880A5
:1055D000FEE7012304220921A04856F7E9FA012138
:1055E000017056F7FEFA002010BDF8B50C7884461D
:1055F0000D2C28D00CDCC825964E08279648012C87
:105600000FD0022C27D0032C14D00C2C29D12FE042
:105610000E2C1CD0112C2BD0122C29D0132C20D1C5
:1056200026E04978002902D035804780FEE7FFF761
:1056300077FF1DE04978002902D035804780FEE7DA
:1056400001F0ADF814E0487804F0EDF810E0487887
:1056500004F0D7F80CE04C78002C02D0358047805D
:10566000FEE77F4C2068002802D024686046A047EF
:105670000020F8BD70B51D4610460C4656F74DFC8F
:10568000022806D07349C820088073490820488042
:10569000FEE7280A0C21734A414389188870214685
:1056A00001F091F8002070BD70B50D784C78092D8F
:1056B00008D0002C0FD06749C82008806649082010
:1056C0004880FEE7002C03D0204601F053F807E0A5
:1056D00001F060F804E0624C2568002D00D0A84776
:1056E000002070BD70B51D4610460C4656F715FCDF
:1056F0002A0A032806D05749C8200880564908209E
:105700004880FEE70C2042435648FF211018817064
:105710000021C170204601F0A9F8002070BD0020D2
:105720007047FEB508781F46154600244E4E03000C
:1057300058F710FD0303132725001523394630467B
:1057400056F736FA054604700B206880024647A1DA
:10575000281D58F7ABFC28460FE069460C806846C8
:1057600001F0CFF80A232A463946304656F720FA88
:105770000121017069460988418056F732FA0020FC
:10578000FEBD0A233946304656F712FA04466846EB
:1057900001F0BBF8022020706846008860806846EF
:1057A0004088A08068468088E0806846C088208164
:1057B0002046E2E738B50C46482069460870207854
:1057C000FFF761FD2848022304220921801C56F7B7
:1057D000EFF96946097841702178017056F701FAAE
:1057E000002038BD10B5104656F797FB012809D1A7
:1057F000FFF7C0FD002805D00221042056F75BFB0F
:1058000001F050F8002010BD70B518460D46014655
:10581000E1200623000156F7CBF90446014628464D
:10582000FFF738FD204656F7DCF9002070BD10B5B3
:10583000084601F073F8002010BDFEB51C46084D67
:10584000089B0B262D1D6F4668C71346224600F0A5
:1058500062FDFEBD0031005000330050020D00001B
:10586000D4BEFC073C2EFD070B0E00004441313432
:10587000353835205243550070B51C2304220921C8
:10588000484856F795F904461B2020702420FFF75E
:1058900050FE6070242060800423A3800021E180FA
:1058A000012222726272404DA581E18123746174EC
:1058B000A274204656F795F970BD10B50120FBF78C
:1058C00063FC3A49087010BD10B5384CE170227184
:1058D0006371207010BD10B534490A22C8800421BC
:1058E0003348FFF711FE10BD10B5044624203CF7E5
:1058F000A6FF0146042309201A46800256F758F9EC
:1059000004700021417029490978817056F769F9BE
:105910000021022301220846FFF7D6FF2548FFF7A2
:10592000DAFF10BD70B5214C01256570E0780028C4
:1059300003D061792079FBF7F2FD1D48A570C822DC
:105940000421401CFFF7E0FD70BD10B50446242083
:105950003CF775FF014602230422174856F728F941
:1059600000210170447056F73CF910BD70B501205C
:10597000FBF70AFC0D4D04462878844202D02046ED
:10598000FFF7E3FF2C70E878002803D0052C01D244
:10599000FFF7C8FF70BD10B50421054856F7A4FBFA
:1059A00010BD00001B0D0000AD2700005E2EFD079E
:1059B000010400007017000002240000002070475E
:1059C0000020704710B54A780878114600F0F4FEC0
:1059D000002010BD10B51446FFF7C8FF1A48214635
:1059E00002881A48FFF790FD002010BD70B51848D6
:1059F00015460078002818D0164C17491748134E42
:105A00002278761C09780078002A05D0FBF77DFD06
:105A100000202070142204E0FBF781FD012020709B
:105A2000052229463046FFF76FFD002070BDFEB508
:105A30001C46089B05260A4D6F4668C7134622463A
:105A400000F069FCFEBD0000642EFD0701040000AB
:105A5000612EFD07602EFD07632EFD07622EFD07F8
:105A600040BFFC07704710B50A23042209210B48E8
:105A700056F79EF804461B2020701420FFF759FDAE
:105A80006070142060800420A0800020E080FF214E
:105A900074312181204656F7A4F810BD1B0D00007B
:105AA000F8B50E46097818460B0058F753FB09065F
:105AB00009120915180C1B0F32000B241EA513E048
:105AC000072420A510E0082420A50DE0072422A526
:105AD0000AE00A2422A507E01A2424A504E00E24E3
:105AE00029A501E006242CA50146A31C2C4856F745
:105AF0005FF80746307838707C70002C04D022465E
:105B00002946B81C58F7D2FA384656F76AF80020EA
:105B1000F8BD2449C8200880234908204880FEE7B2
:105B2000FEB51C46089B0126204D6F4668C71346EC
:105B3000224600F0F0FBFEBD4469616C6F672053A4
:105B4000656D69004441313435383500123456FFF3
:105B5000FE9ABCDE0000000001D2008005000100BA
:105B6000312E302E302E302D4C450000765F765F82
:105B7000362E302E342E3332365F765F362E313469
:105B8000302E322E31370000765F765F362E31347C
:105B9000302E322E31370000FFEEDDCCBBAA0000E4
:105BA00003140000003100500033005068BFFC07B0
:105BB000FB480021017441618161C16001770246A7
:105BC000D162142101707047F548002101744161D0
:105BD000C160704710B5092304221946F14855F7F2
:105BE000E7FF04461B2020703720FFF7A2FC6070FF
:105BF000372060800420A0800021E18021722046AF
:105C000055F7EFFF10BD10B5044637203CF717FEDF
:105C1000014604231A46E44855F7CAFF847055F735
:105C2000E0FF10BD10B5DE4C2078032801D1FBF752
:105C3000A9FF14202070002000F049FE10BD70B5AF
:105C400002460020160BC04336030C0B090500D09A
:105C5000641C002C01D000250BE00124002520212C
:105C60003046FCF774F8012109037618002802D1A8
:105C70006D1CA542F3D370BD70B50C4606461546A3
:105C8000200B49190003A04202D11146204607E02B
:105C90000A0B230B9A4205D0012212038018091A1D
:105CA000FFF7CDFF2A4621463046FCF791F870BD3C
:105CB000FEB5064600200124A4040090019003468E
:105CC000024601460290A5123046FBF705FFFCF79D
:105CD00065F8B64980B24118B54805D0022904D00C
:105CE0002D221202914200D1044629462046FBF79C
:105CF00083FFFEBDF8B50446A9480326017A3602A3
:105D00000906090FA171017A08230907090FE1713A
:105D1000018909040D0F257001890905090F6170BA
:105D200082681202120FA27082681203120FE270D0
:105D30008268120F2271806832460001000F607184
:105D4000012000902846FBF7F4FB00250095E1793F
:105D5000A07907233246FBF7ECFB0095E178A078A9
:105D600006233246FBF7E5FB009561792079052390
:105D70000022FBF7DEFBF8BD3EB5AA216A46884C3F
:105D800011722178062013290FD11046FFF7B2FFB8
:105D90006846FFF78DFF6168012202A8891CFFF7A2
:105DA0006BFF40B2012800D10220C0B23EBD10B549
:105DB000012000F08CFD7A4C2078C00601D510201F
:105DC00000E00820FFF71FFF002020746061A06141
:105DD000E060207710BD70B50D46010E704C0A468C
:105DE00014290FD2227080B26060002A01D0012AEB
:105DF00001D170486060122A01D0132A02D1022812
:105E00000AD86074132917D008DC102917D011297B
:105E100015D0122908D10FE0112017E0FD2926D056
:105E2000FE2916D0FF290CD00820FFF7ECFE142025
:105E300020700020286070BDFFF7B9FF70BD0820FA
:105E400004E0FFF7EFFEFFF7BFFE0320FFF7DBFEE6
:105E500070BD207F002801D0042001E0FFF78CFFF7
:105E6000FFF7D1FEFFF7DEFEFFF7AEFE70BD524832
:105E70008078FF2806D04A49012220310A72FFF7B4
:105E80001AFB70BD4D483CF7ADFC70BD10B5044623
:105E900037203CF7D4FC0146434804231A46401EF1
:105EA00055F786FE046055F79CFE10BD0021FF28C3
:105EB00002D0401CC0B2704708467047FF2802D08D
:105EC000FF2905D006E0FF2908D0002906D001E00F
:105ED000002801D0884201D9022070470120704774
:105EE00010B52F4C034600202478C043132C02D158
:105EF0001846FBF7D4FE10BDF7B596B000261898EB
:105F00000C463546402805D32078702802D16078A9
:105F1000512802D0122019B0F0BD676820493846D8
:105F20004030086207210C22C9036846FFF7D8FFFA
:105F30000C2858D168460078702803D1684640780C
