:0200000407FCF7
:1000000050DFFC077105FC077905FC079105FC072B
:1000100000000000000000000000000000000000E0
:10002000000000000000000000000000A905FC071F
:100030000000000000000000AB05FC07831EFC0769
:10004000C926FC072F27FC071D27F0071F22FC07E6
:10005000AF05FC07AF05FC07AF05FC07AFACFC071D
:100060006B28FC07AF05FC07B719FC07BB19FC0799
:10007000BF19FC07C319FC07C719FC07471FFC077A
:100080001723FC07AF05FC074D1AFC076B1AFC078A
:100090009F16FC07AF05FC07AF05FC07AF05FC0783
:0200000407FCF7
:10051000044885460BF010FE00480047BB0BFC0763
:10052000C046C04650DFFC070D4906200880012266
:100530000C48D10301600221016000210260052006
:1005400000070180028A0F231B021A430282064A17
:10055000064802C2401E0028FBDA62B6704700005F
:100560000034005080E100E0005CFD07FF0800005F
:100570000F4880470F48004704207146084203D0C7
:10058000EFF309800C490847EFF308800A49084750
:1005900004207146084203D0EFF309800749084759
:1005A000EFF3088005490847FEE7FEE7FEE7FEE7B0
:1005B0002905FC071105FC072106FC07C105FC07FE
:1005C00005221207518A8023194351821249036878
:1005D0000B6043684B6083688B60C368CB600369C2
:1005E0000B6143694B6183698B61C369CB610862AD
:1005F0000A48836A4B62C36A8B62036BCB62C36B2C
:100600000B63436B4B63806B8863908A800601D5D4
:1006100000BE7047FEE700000000FD0700ED00E0AF
:10062000052109070A8A04231A430A820A8A022337
:100630001A430A820A8940231A430A811B4B01226A
:100640001A601B4B08221A804A8A80231A434A8266
:10065000184A036813614368536183689361C368F0
:10066000D361036913624369536283699362C36907
:10067000D36210631048836A5363C36A9363036B46
:10068000D363C36B0B4A40321360436B5360806B80
:100690009060888A800608D500BE488A01228008BA
:1006A0008000D203104348827047FEE780E200E0FA
:1006B000003300504000FD0700ED00E0FFB50026CC
:1006C00081B01D460F461C46102902D9002005B0F6
:1006D000F0BD002803DA0A2F01D101264042394635
:1006E0005DF76AFC0A2901DA303107E0039A002A33
:1006F00001D0412200E0612251180A392170641CA6
:100700000028ECDC601B302102E02170401C641CDE
:100710000A9A9042F9D3002E02D02D202070641C3A
:1007200000202070601B0021430807E0421A521984
:10073000203A6C5CD67F6E54D477491C8B42F5D836
:10074000C5E770B5044625680498691A511A4D1E0C
:10075000854200D22846002106E026685D5C35709F
:1007600025686D1C491C25608142F6D32168002054
:100770000870104670BDFFB589B00646079000208E
:10078000089013780F46541C0798801B401CB842F1
:1007900061D2252B05D03A46314607A800F024F94E
:1007A00055E025780021641C302D09D12078641C87
:1007B000002850D03038092800D8C1B22578641CF0
:1007C0006C2D01D0682D02D108952578641C692D07
:1007D00021D008DC002D3ED0582D24D0632D40D0F0
:1007E000642D06D117E0732D40D0752D1BD0782DC8
:1007F00019D02520009084A33A46314607A8FFF778
:10080000A0FF2B463A46314607A800F0EDF802203B
:1008100087A3009016E00C9A01CA0C920022009166
:1008200001AB0A210AE00C9A752D01CA0C92F5D091
:100830000091582D13D0002201AB1021FFF73EFF8D
:1008400001AB00903A46314607A8FFF77AFF2378BC
:10085000641C002B98D107980DB0801BF0BD0122BD
:10086000EAE70C980378001D0C9094E70C9820C8D8
:100870000C90284600F0B0F82B460090E2E710B547
:100880006C4A00201168002904D0084649681160AC
:100890000021416000F08FF86648001F4068002882
:1008A00008D00468204600F097F80146624A2046C6
:1008B00001F095FC10BD0FB470B5C0B0FF2145AB81
:1008C00068460131449AFFF756FF0025684600F05C
:1008D00083F8461C032108205BF75CF804002BD04A
:1008E000032130465BF756F8206000280FD0694698
:1008F00065600BF007FCEFF31081012080F3108896
:100900004C4A0123121F5068002804D004E02046FE
:100910005BF7BBF810E01370464A002802D1146060
:1009200005E010464268002AFBD14460656000295A
:1009300008D0012080F3108840B070BC08BC0120B2
:1009400004B018470020F5E701463CA0B3E770B5B6
:10095000384C0025241F21782046012640780029A4
:1009600010D0002802D100F0AEFA6670606800680E
:1009700000F032F8014660682F4A006801F01EFC62
:10098000257070BD0028FCD060680028F9D12C4883
:1009900041698906C90F08D040694006C00F04D0DC
:1009A00000F06DFA6570A57070BDA67070BD21482D
:1009B000001F8078704710B5040003D0206800281D
:1009C00002D002E0002010BD00BE5BF75EF82046BA
:1009D0005BF75BF8012010BD0146002000E0401CE1
:1009E0000A5C002AFBD1704710B50468611A491CE3
:1009F000914201D3002010BD23700168491C0160A1
:100A000000200870012010BD464154414C3A207529
:100A10006E737570706F72746564207072696E7435
:100A200066206368617261637465723A2000000039
:100A30002E0A0000A42DFD077F08FC072573000087
:100A400000110050F8B503460C4601201546002160
:100A50002B4E0246412B3BD00ADC012B16D0022242
:100A6000072B26D0402B23D12078022824D32AE03C
:100A7000422B33D0432B37D0442B19D12078002878
:100A80001AD01F48407B2870227010E006221D49B2
:100A90001D485DF72FFB0627002802D006221A49C1
:100AA00001E00622B11C28465DF700FB27700020FC
:100AB000F8BD2078022802D221700420F8BD3078D9
:100AC0002870707802E0307A2870707A6870DBE7FE
:100AD00020780028F0D00A48807AD4E720780028CF
:100AE000EAD00748C07ACEE720780028E4D0307BEF
:100AF000C9E70020704701207047012070470000BF
:100B000004C2FC0790E1F107D42DFD0770B502285F
:100B100001D003283CD198490B69042213430B618F
:100B200005242407618A202399436182218A0223B4
:100B300019432182914D0F2669781023090236024C
:100B40000228608A25D018436082608A1043608240
:100B5000208AB0430843208268682288C01C80082D
:100B600080210A4322800022521CD2B20A2AFBD3DF
:100B7000628A1A436282824A401E506120888843FA
:100B8000208003205AF79EFE002809D00120E8703B
:100B900070BD98436082208AB04308432082F0E70A
:100BA0000020E870208A218AB04309052A78090FBD
:100BB000114309020843208270BD08B50F236F4C12
:100BC00070497148A37004276370814201D30823E0
:100BD00023E06F4D6B4E6D4A7519914205D38542E6
:100BE00001D23B4619E00C2317E06A4EB14209D30B
:100BF000954201D2022310E0854201D206230CE087
:100C00000E230AE0B54201D2012306E0954201D24B
:100C1000032302E0854200D20723237000F0D2FABA
:100C20000526360713E000200090142000F084F918
:100C3000042168464CF7DEF9002801D000F048FA9C
:100C400005F0A2FF002802D1FFF781FE0BE03089FA
:100C5000000608D501208007006B000403D44E482D
:100C60000078C0070BD005F0ACFF0028EFD172B6BA
:100C700005F0C2FF01F03AFE042807D00BE05BF755
:100C8000ACFB464800780428DAD1CCE74448007829
:100C900001280ED0032069460546087005F0B0FF14
:100CA00069460870002806D0FFF781FE002829D188
:100CB00004E00220EFE7FFF77AFE23E0022D04D0E4
:100CC000032D02D0012D1CD01CE0284600F01CF89A
:100CD000B08A800602D533490820088030BFE0780A
:100CE000002807D03048006801898AB24168032093
:100CF0005AF7C2FD05F09AFF1F480169B943016127
:100D000000E030BF62B6A2E738B505242407218A87
:100D10000422114321826946087005F071FF69467B
:100D20000870FFF7F3FE6946087805F079FF694619
:100D30000878022801D003281CD11C484188FF22D2
:100D40000132914341806188194A11804188012212
:100D500011434180002000900099491C0091142902
:100D6000FADB618989088900491C6181618949062A
:100D7000FCD5608038BD000000ED00E0A82DFD0727
:100D80000000F40750DFFC070000FD0700C0FC076F
:100D90000C0100000080FC075877FD071C2EFD07A2
:100DA000B477FD07003300505876FD07200000504F
:100DB000222EFD07704770B50D46002441F7DBFD7C
:100DC0002855641CE4B2202CF8D3002070BD10B567
:100DD0005DF75AF910BD10B55DF75FF910BD7047AA
:100DE00070470749884200D000BE05210907488A9C
:100DF000012280088000D20310434882704700001F
:100E00001111111148480178002902D08021417048
:100E100070474649002008704549C87070474249EC
:100E20000A78002A03D000280CD002200BE000280A
:100E300001D0022000E001203C4908703C4901201B
:100E4000C87070470120803048707047002805D076
:100E5000012804D0022804D10120E0E7D2E70020D5
:100E6000FBE77047314900200978002904D00129A7
:100E700003D0022900D102207047012070472A4880
:100E80008178002904D0491E0906090E817019D104
:100E900042780021002A04D09207920F027041701C
:100EA00004E00278002A01D0521E02701206120ECF
:100EB000017007D0012A03D0022A03D10120AEE736
:100EC0000020FCE7704700B5174A9078401C9070EE
:100ED0001078002805D1FFF7C5FF431CFFF792FFEC
:100EE000137000BD10490120C87070470E490020E2
:100EF000C87070470C48C07870470020EFF310812D
:100F0000012282F31088052212071289120605D4E5
:100F10000848028901231A4302811846002900D09B
:100F2000012181F310887047B02DFD07B477FD07CC
:100F30005877FD070033005070B5E34D04466878DC
:100F4000002822D0E14801884907FCD4C188808864
:100F500009040E18DE492046484331465DF72CF857
:100F6000002169706861B00121465DF725F8A8612C
:100F7000D84800234443E0170105220B1143200504
:100F800032460BF08FF8E962A86270BDCF49488005
:100F90000888032210430880088804221043088030
:100FA000C94901204870704770B5052109070889B3
:100FB00030229043088108898023184308810889DA
:100FC00080088000401C088108890822104308819D
:100FD000C14804881C4304804C8A94434C820D8988
:100FE000402425430D810D8A0426B5430D828D8A48
:100FF000AD07FCD5B44EAA2535618588F026B543EA
:10100000B0358580858803263602B543858085887E
:101010002D092D01858085880126B60235438580FE
:1010200085887600354385808588760035438580C0
:101030004D8A95434D8202885208520002800288F0
:101040009A4302800A89A2430A814089800503D518
:10105000A149052060318880012080070168821540
:10106000914301609D4801683F225202914342141E
:1010700089180160016802031143016070BD10B559
:1010800097485BF737FA10BD10B593494888C006FA
:10109000040F488801221043488048881E2290434C
:1010A00048808A484B0143800523038003885B07FF
:1010B000FCD480884B88934314334B804B885B0867
:1010C0005B004B804B889343620013434B8010BD01
:1010D00070B584490120C863C86B0028FCD1012089
:1010E0008007C069784C0021E268904200D2E1603C
:1010F000A2780125002A04D0A170E060FFF7C4FFA8
:1011000011E0E1681922411AD201914211D3E06045
:10111000FFF7BAFFA188884201D9411A00E0091AF5
:1011200089B2182905D3A0800AF022FF002800D137
:10113000A57070BD10B56449496948436A495CF7B8
:101140003BFF10BD10B560490122D203896990426E
:1011500005D30BF01AF88905800A084310BD4843EF
:10116000800A10BDE6E7EDE71FB5684600F0FCFE1B
:10117000009841F706FC1FBD534B00201978002949
:101180000DD058490122CA63CA6B002AFCD1012143
:101190008907C969554A1268914201D201207047F6
:1011A0000021197070470020704710B55049002089
:1011B0000860FFF764FF01208007016B49004908C0
:1011C000016310BD70B540490120087049490820ED
:1011D000088040F7BDFF00F09BF800F0D7FA00F060
:1011E0003EF83D4C20898004000F07D120890F2153
:1011F00089028843092189024018208106F04AFCAF
:10120000012041F7BEFBFFF7CFFE3B48006841F7E6
:1012100051F83A480025C570057101208007016822
:10122000821511430160FFF79FFF1420FFF7AEFE08
:101230001420FFF781FEFFF7E5FD04F0AEF905F09D
:101240007CFCFFF7B2FF05200007C5826088E02123
:101250008843A030608001200AF0B4FE70BD38B52C
:1012600027480021016005242407638A4022134394
:101270006382638A934363824161224A82620122CC
:101280001204C262208880252843208000910098A3
:10129000401C00906428FADB002000F0C1FB0A48E3
:1012A000062219491C305CF701FF184801880648DE
:1012B00001811649891C0988418100F0A1FB208821
:1012C000A843208038BD0000B82DFD07001600504F
:1012D0000024F4001027000020000050000200400D
:1012E000E2040000C000004040420F00F4D7FC07B9
:1012F000AC76FD07003300504C76FD075877FD07AC
:101300000000F407204F101AA8FFF80710FEF80796
:1013100010B50AF0E3FC302219491A485CF7C6FE02
:101320001949002008701A4A184911601A4A1949C7
:1013300011601B4A194911601A4A0A2111701A4991
:101340001C4A087019493220087019491220086097
:1013500001211160184908601849132008601849D4
:101360001420086017491520086017497620086086
:1013700016499420086017491548086010BD000000
:1013800058ECF107FC76FD07F976FD0754C4FC071D
:101390005076FD0714C2FC075476FD0798C3FC077E
:1013A0005876FD07B476FD07B576FD07DD76FD07B7
:1013B0005C76FD076076FD076476FD076876FD07BD
:1013C0006C76FD077076FD074876FD074476FD07CD
:1013D000005CFD074C76FD070843012189030346A5
:1013E0000B4341490B80414B1843088009200243BD
:1013F0004A8070473C490A880F239B0100079A43A3
:10140000800D02430A807047374839490288022319
:101410001A430280491E02D302889207FAD400219F
:101420000181408970470AE000BF00BF00BF00BFD4
:1014300000BF00BF00BF00BF00BF00BF00BF401E15
:10144000F2D2704770B50222510204464E00304677
:10145000FFF7C2FF1420FFF7E6FF002C01D00920A0
:1014600000E00720FFF7C6FFFFF7CEFF054601208B
:10147000FFF7D9FF022200213046FFF7ADFF002C15
:1014800001D0092000E00720FFF7B4FFFFF7BCFF01
:101490004019154A0021118070BDF0B5124C154855
:1014A00020801420FFF7BFFF01256D02A580E58095
:1014B0002088E9000843208020888E10B0432080D7
:1014C000FFF7A2FF0746208830432080FFF79CFFEC
:1014D0000246780071424018281A52005118691AC1
:1014E000A080E180F0BD0000001500500140000028
:1014F000A086010001480000444910B5884201D986
:10150000642010BD4249411878290BD86321090194
:10151000401A000479215CF765FD48214843001416
:101520001C300FE03A49E0314118DF290CD8552131
:101530000901401A0004E0215CF754FD18214843DA
:101540000014001DC0B210BD32494118DF2908D86F
:1015500047210901401A0004E0215CF743FD801394
:10156000F0E7002010BD2B4910B54942884209D34D
:1015700049424018642148434721C9005CF732FDC5
:10158000C0B210BD002010BD10B52349498989059E
:101590000BD5FF21B131884205D3FF386421B13822
:1015A000484389000AE0002010BD55210901884206
:1015B000F9D3401A64214843FF2161315CF712FDE1
:1015C000C0B210BD10B50446FFF767FF032C11D160
:1015D0001148408980050DD50120FFF733FF80B207
:1015E00000F013F8012C07D0022C08D0032C09D0EE
:1015F000002010BD0020F0E7FFF77EFF10BDFFF7D1
:10160000B2FF10BDFFF7C0FF10BD7047A906000074
:10161000CFF9FFFF8FFBFFFF2000005018B5584B9C
:101620000201D2180823012907D010884008400081
:10163000108010889843108018BD148869460C806B
:101640000C8801210C4369460C804E49C0000858A3
:10165000002803D069460888184308806846008837
:101660001080012048490005086018BDF8B58C4677
:10167000012745493F0580310F60424CC600A559FE
:10168000002A03D00021A151FFF7C8FF002D03D08D
:10169000301940686146A8473B480760F8BDF8B577
:1016A000374F74377E880025012463E0F0075ED051
:1016B00033482901001F0B18801C314A081889186B
:1016C0001A880088824204D10888000601D40120CB
:1016D00000E00020B98884462046A8408143C20724
:1016E00001D0002238E0820701D5012234E0420710
:1016F00001D5022230E0020701D503222CE0C20608
:1017000001D5042228E0820601D5052224E0420604
:1017100001D5062220E0020601D507221CE0C20501
:1017200001D5082218E0820501D5092214E04205FE
:1017300001D50A2210E0020501D50B220CE0C204FB
:1017400001D50C2208E0820401D50D2204E04204F8
:1017500001D50E2200E00F22204690400143B980BF
:1017600018886246401C81B22846FFF77FFF6D1C37
:10177000EDB27608002E01D0082D97D3F8BD0000F9
:101780000C3600507425FD0700E100E0FEB5002096
:10179000964E034628220021424392198C00491C90
:1017A00013510A29FADB401C0428F3DB06F008F980
:1017B0008E480022083802604260154600248C489A
:1017C0006900475A0120A04080B207421CD028205F
:1017D00068438019A1004058411C19D0002810D03E
:1017E000C11722465CF7A6FC2A015CF7A3FC7F4BDD
:1017F000083B1A685B6810437C4A1943083A10603A
:101800005160641C0A2CDDDB6D1C042DD6DBFEBD93
:101810000095019400BEE3E7F8B5164604460D4670
:101820000A461F46012000215CF784FC22015CF778
:1018300081FC6E4B083B1A685B68104019400843F6
:1018400000D100BE032C00D104246A496001401875
:10185000690008183E43C680F8BD70B504460D46C1
:101860000A46012000215CF765FC22015CF762FC5E
:101870005E4A083A1368526818401140084300D184
:1018800000BE032C00D104245A49600140180121F4
:10189000A940818070BD70B504460D460A460120FE
:1018A00000215CF747FC22015CF744FC4F4A083AF0
:1018B0001368526818401140084300D100BE032C41
:1018C00000D104244B49600140180121A940418006
:1018D00070BDFFB581B00C4605460A461F46012083
:1018E00000210A9E5CF726FC2A015CF723FC3F4B93
:1018F000083B1A685B6810401940084300D100BEDD
:10190000002E2146284602D0FFF7C5FF01E0FFF771
:10191000A4FF3B4621462846039AFFF77DFF05B00A
:10192000F0BD70B504460D460A46012000215CF763
:1019300001FC22015CF7FEFB2C4A083A136852684E
:1019400018401140084300D100BE032C00D10424EC
:1019500028496001401800880121A940084000D0B2
:10196000012070BD70B5012421460A3881400D4622
:1019700088B200F02AF884401F48C189A9430C436B
:10198000C48170BD10B504460A3804280BD820461F
:10199000FFF7E8FF1549A000A03140188038806D9E
:1019A000002801D0804710BDE106C90E0120884003
:1019B0001249086010BD0A20E4E70B20E2E70C2082
:1019C000E0E70D20DEE70E20DCE700280BD0411E0B
:1019D0004840C003010C002002E04908401C80B2CE
:1019E0000029FAD17047102070470000A025FD079C
:1019F000AEC4FC07003000500014005080E200E04C
:101A0000052000070088000600D400BE0E480188AB
:101A10004907490F012900D000BE0021016070472D
:101A2000052109070988090600D400BE06490A886D
:101A3000520700D000BE002802D0FF20023000E094
:101A400001200860704700000000F4071FB50F4830
:101A50000168002908D00020009001900C480290F5
:101A6000001D0390684688471FBD1FB507480168E1
:101A700000290AD006480C3842690092806901901A
:101A8000002002900390684688471FBD5426FD073A
:101A90000C40005010B54C4841780078FFF7DDFE4F
:101AA00010BD10B5484841780078FFF7F4FE10BD2E
:101AB000F8B50E46154644490278079F0A704078EB
:101AC0001C464870FFF7EDFF0520000781880122C2
:101AD000D202114381803D480188490849000180B4
:101AE0000188FF2281329143F20111430180018874
:101AF00040229143AA0111430180018804229143AD
:101B0000A20011430180018802229143069A5200EB
:101B1000114301800188012292039143BA031143CA
:101B20000180018818229143089AD2001143018054
:101B30000188012211430180F8BD24490A88520816
:101B400052000A800A88FF2381339A43C00102436E
:101B50000A800888012210430880704710B51B488E
:101B60000188490849000180052000078188012279
:101B7000D20291438180144841780078FFF78BFEB0
:101B800010BD10B5114900230A88D205920F012A11
:101B900001D9040C8C80488008888004FCD5012081
:101BA000C880012A01D9888803044888C01810BD5C
:101BB00010B50446FFF76EFF2046FFF7E2FF04462C
:101BC000FFF76FFF204610BD5826FD07001200509A
:101BD0009D4AD1609060704710B50120FFF7ADFFBE
:101BE00005200002FFF7E4FFC0B210BD70B500246D
:101BF000964DFFF7F1FFC00704D0641CAC42F8D348
:101C00000020C04370BD70B5FFF7F0FF002815D16C
:101C1000FFF793FF8D4E00250620FFF7C9FF002434
:101C2000FFF7DAFFC10703D1800701D5002070BD9F
:101C3000641CB442F4D36D1C322DEDD30020C0439C
:101C400070BD70B5FFF7D2FF002811D1FFF775FF07
:101C50007E4E00250420FFF7ABFF0024FFF7BCFFFA
:101C6000800707D0641CB442F8D36D1C322DF1D329
:101C70000020C04370BD70B5064673480D468068AD
:101C80005119814201D9441B00E01446FFF7AEFF11
:101C900000281AD10220FFF750FFFFF7FBFE0321B7
:101CA000284609060843FFF76CFF0020FFF745FFB1
:101CB000002505E00020FFF764FF30706D1C761CE6
:101CC000A542F7D3FFF7EDFE204670BD70B505467F
:101CD0005D480E46C0681446824200D984B2FFF7C0
:101CE00085FF00281ED1FFF78EFF00281AD10220A1
:101CF000FFF723FFFFF7CEFE0121304649060843D8
:101D0000FFF73FFF0020FFF718FF05E028786D1C64
:101D1000FFF737FF641EA4B2002CF7D1FFF7C1FE16
:101D2000FFF764FF70BD70B50D460446FFF76BFF0B
:101D3000002802D00020C04370BD0220FFF7FDFE46
:101D400028062043FFF734FFFFF750FF70BD70B542
:101D50000D460446FFF757FF002802D00020C0437D
:101D600070BD0220FFF7E9FE28062043FFF720FFA1
:101D7000002070BD10B50024FFF738FF002811D1F6
:101D80000120FFF7DAFEFFF785FE09200003FFF7C9
:101D9000F8FE0020FFF7F5FE0020FFF7F2FE84B208
:101DA000FFF77FFE20B210BDF7B582B0264F0E467A
:101DB0000091F96814460D4630465CF7FDF8401C6A
:101DC0006843451E0020FFF7B8FEB868801BA0429C
:101DD00000D204462646002719E000988019A84240
:101DE00002D900982E1A761C0298B2B2C019009936
:101DF000FFF76CFF002803D00020C04305B0F0BD02
:101E0000681C00901048BF19C0682D18E61BA74237
:101E1000E3D33846F2E710B5FFF7E8FE002805D116
:101E2000FFF78BFEB920FFF7C3FE002010BD10B5F1
:101E3000FFF730FEFFF735FE0020FFF77EFEAB20F8
:101E4000FFF7B6FE002010BD5C26FD0780841E0053
:101E500005200007018830221143018001880322F8
:101E6000114301807047052000070188302291430B
:101E7000018001888908890001807047184908603D
:101E8000704717480068002800D000477047154A7F
:101E900013695B085B00136153691B0E1B06401E30
:101EA000034353619069000E00069061106902239C
:101EB0009843490008431061106904218843106168
:101EC0001069012108431061704706488169090EB5
:101ED00009068161016949084900016170470000F4
:101EE0006C26FD0700E000E030B51A4B1C88082581
:101EF000C907AC43090F0C431C8019880424D2077E
:101F0000A143520F1143198019880222C00791433F
:101F1000800F01431980104801680902090A02076D
:101F20001143016030BD0D4B58809980DA807047B5
:101F300001200B49C0030860704701200849C00315
:101F400080310860704707480068002800D00047CB
:101F500070470000003400500CE400E000340050F2
:101F600000E100E07026FD07F1B55F4892B05F49DF
:101F700004460490088A0790892205200007028100
:101F800001225B4B52031A80028880231A4302808D
:101F90000288920892000280088A02221043088276
:101FA000A41C00F05EFA40F70BFD40F70FFD002087
:101FB000694601E00888401C088008889128F9D308
:101FC0004C4801881191418810914B49CA880F9261
:101FD0000A890E92C2880D92408B0C904748408827
:101FE0000B9048880A9000F04FF83F48002580B2D7
:101FF0002B468446424861464180FF218180012171
:102000000180C188C907FCD10A460846049E275CA6
:10201000365C7E40F607F60F8E401643491CC9B267
:10202000F2B2082905D112994A556D1C0021ADB2B2
:102030000A461030FF2680B2B600B042E6D95B1CDB
:102040009BB2022BD6D32949079808822D4900203C
:1020500008802848119901801099418026490F9ADB
:10206000CA800E9A0A810D9AC2800C9A4283234A32
:102070000B9850800A98488005200007028880212C
:102080008A43028013B0F0BD08B51A4900200880C9
:102090004880194A1C4BD380FF23D2331381C88058
:1020A000C3215180174A082111806946088003E046
:1020B0006A461188491C1180694609889129F7D31D
:1020C0006946088003E06A461188491C1180694608
:1020D00009889129F7D3694601E00888401C0880E7
:1020E00008889128F9D308BD1001FC07E0300050A2
:1020F00000020040002400506028005000260050DC
:10210000003500502020005080800000674B30B424
:10211000664A6748603309E0016800290CD04468CA
:1021200025781560491E641C12C00838998B8907F0
:10213000C90FF1D130BC70470021416053680224BF
:10214000A34353608268002AF4D0816030BC002031
:10215000104770B505231B079C8840252C439C80A5
:10216000524B9C898025AC439C8107241C81002410
:102170009C809E892E439E81060A9E80C0B2188054
:102180009A814A48C03001809889A843988149497A
:102190000820086048490A6803231202120A9B07B4
:1021A0001A430A604349803908604449086040483E
:1021B00004760461C4604460046070BD10B53C4C9A
:1021C000A26021606060FFF7A1FF6068002805D071
:1021D00036494868022290431043486010BD10B54C
:1021E000334B324C9A6019605860304A603409E0D1
:1021F0005968087810601868491C401E03C3083BE2
:10220000002809D0A08B8007C00FF1D151680220AF
:1022100081430143516010BD00205860F6E710B5BE
:10222000224881680907090F01291AD002291CD008
:10223000042917D00C2914D11D4A117E012910D16F
:1022400041690906C90F0CD00021D1601161838852
:102250005B085B0083805369002B02D00120516131
:10226000984710BD00F004F810BDFFF74FFF10BDF8
:102270000F490E4809E002680B691A70CA685B1CB6
:10228000521E0B61CA60002A04D04269D207D20FE5
:10229000F1D1704700220A6143685B085B0043602C
:1022A0004B69002BF5D000204A61184700110050FF
:1022B000E82DFD0780E100E000E400E080E200E0BE
:1022C0008307FF22DB0E9A408907090E99400028F8
:1022D0000BDA0007000F0838830851489B001818D4
:1022E000C36993430B43C361704783084D489B0008
:1022F0001B18186890430843186070474A480078D4
:10230000002802D00020C043704701204749000444
:1023100008600020704710B5FFF7A5FD05210907EB
:102320008888414AC30B104618D0414B1C8864076B
:1023300014D51178890710D5198802221143198004
:1023400019884908490019804468002C05D0985E16
:102350000421595E0A229A5EA04710BD8988C906E9
:10236000FBD51178C907F8D0324901228A800A8842
:1023700080239A430A8080680028EED0804710BDF1
:10238000F8B505242407A58810263543A580294CD7
:1023900000252581D2B262802A46D7000546FD403D
:1023A000EEB255002D196E810E46FE40F6B26E82D9
:1023B000521C042AF1DBE28903252D020004800F60
:1023C000AA4300020243E281E08A0904890FA8437C
:1023D00009020843E0820125A58017482E04066003
:1023E0009806800E8030208029461020FFF768FF75
:1023F0000D480178294301700C4880380660F8BD0B
:10240000094801784908490001700A480121818082
:10241000018880229143018070E7034988607047FA
:1024200000ED00E000E400E00C2EFD0780E100E09C
:10243000000200500001005080E200E000207047E0
:102440007047704770470020704701218907086B6B
:102450000722104308637047704740087038C0B2C5
:10246000704741493F4808604149404848814148D8
:10247000418806229143891C41803F4A6321D180D3
:102480003E493B4A0988603A11823D4909880180EA
:102490003C480078002802D03B4930200883704730
:1024A00000B58BB0394A4262394A8262394A426188
:1024B000394AC262394A0260394A0262394A426084
:1024C000394AC261284A274800211060264840380E
:1024D000426B1F231B049A434313D21842633348B1
:1024E0000268C3129A430260026803139A430260AF
:1024F00068464154491CC9B22829FAD301462C48E0
:102500002822006840305BF7D1FDFFF7AAFFFEF7F5
:10251000BBFD2849088009F02BFD0BB000BD10B5AC
:1025200011491048086010484038416B1F221204BE
:10253000914342138918416300060168C908C90024
:10254000016005200007018989088900491C018173
:102550000189082211430181FFF783FF012009F05F
:1025600031FD10BD4C05540780000040EBE6000033
:102570006028005000260050002C0050C22DFD079E
:10258000C02DFD07182EFD07002400503D24FC0738
:102590004124FC074724FC074B24FC074324FC0789
:1025A0005924FC074524FC075B24FC07000200407B
:1025B0004C76FD07BC2DFD07F0B5B64AD3785479AB
:1025C000C01AC3B2B448007D1EE0B34D0A26203DB8
:1025D0002D6B4643AD19AE78D5786D1CEDB2D57034
:1025E000A54201D9F7070CD1760604D09668651B81
:1025F000AD19956005E015796D1C1571D5686D1CD8
:10260000D560401C4007400F1D465B1EDBB2002D0D
:10261000DBD11079A04200D95071002902D00020EE
:10262000D0701071F0BDF8B50125AD07AC6B204638
:10263000FEF799FD9749994F0A69861800200861AD
:10264000394630465BF7B8FC954948603A465043F6
:10265000301A00D0381A80B20860286B08218843ED
:10266000084328638F4804608F480068002802D020
:10267000A04200D200BEF8BD10B5FFF7F4FB052064
:1026800000074189890708D041898908890041816B
:1026900086494A88520852004A80018980221143A3
:1026A0000181018A042291430182818A8907FCD534
:1026B00000F014F9012080070169490700D500BE28
:1026C00001694907FCD510BDF8B5794F082038805D
:1026D000052636077089800721D0B08A400701D5CA
:1026E00005F0D8F9714D2888802108432880714C65
:1026F000FF20608004202080FFF7AAFB7D21C90015
:10270000E088A288000480188842F9D9052020803A
:102710006048C0887080298880208143298038895A
:102720004007FCD4FFF7A8FFF8BD70477047F8B525
:102730000127584EBD072C69002C7DD0200606D5F8
:102740008020A8614AF7FFFA1420FEF71FFCA007BB
:102750000BD50220A8615848002100688030008E07
:10276000C0B2FFF729FF46F7B4FA200726D50820A4
:10277000A86152485221006864308088484350491B
:1027800009684018C030808B0121000AFFF714FF50
:1027900004F06EFBB07800280BD048480268243261
:1027A00007D04032D07E002803D1D07F08210843D3
:1027B000D077002046F74DFA04203070E00505D5AB
:1027C000FF200130A861012046F743FAA00504D597
:1027D00001204002A8614AF71FFB600603D5402094
:1027E000A86146F731FAE00603D51020A86144F746
:1027F00066FE600726D50420A8612D480189490896
:102800004900018159F74CFE3FF756FF1420FEF7AF
:10281000BDFB0020307025484089800512D57078B6
:1028200000280FD1274877700088C0070AD10120FF
:10283000FEF708FE8B2100E015E08900884201D9EF
:1028400002207070E00708D00120A86159F744FE0B
:102850004AF779FA377004F00FFBA00600D46AE754
:102860002020A86167E7F8BD704710B51648C188F9
:1028700040880A460240D307064A01D0032313705A
:10288000890703D5C00501D50220107004F0F5FAC0
:1028900010BD00001C2EFD070079FD07710200002D
:1028A00040000040382EFD07302EFD07200000506C
:1028B00000330050001600505876FD073879FD07A8
:1028C0004C76FD07001500502020005010B53FF752
:1028D0002AFD5F4880685F49486010BD10B53FF72A
:1028E0004EFD5C485A494068886010BDF8B5002527
:1028F00000F0A9F800270090FEF7FCFA564E0028D9
:1029000002D13079022801D100200090FEF734FC7A
:1029100000280DD158F71BFF002809D0F0780125B9
:10292000002805D005200007808AC00701D00425B3
:1029300087E0308800287DD14848806A002802D08E
:1029400000F081F80090B178684659F70BFC002838
:1029500077D00124A4072069400672D43E488178CC
:1029600068464AF747FB00286BD00099002906D03B
:10297000206AFF383938DA2801D8491E00913848D2
:10298000FEF7F0FB05460646364812360078022868
:1029900000D1113634484089800500D500BE334847
:1029A000FEF7E0FBE16B281A890A89020143E16323
:1029B000E06B2F490840B1020843E063E06BC002BE
:1029C000C00A69050843E0632A4B04250CCB0021AB
:1029D00000985BF71BFB0903000D08431D49401ECF
:1029E00008601D490979002900D0012146F7D7FA6E
:1029F0002148C06A8047FEF7D6FB002802D0FFF7C7
:102A000027FA0127206B0004C00FFBD01048016893
:102A1000C905FCD5002F01D0FFF725FA17494889D1
:102A2000462804D24622164B101A18604A81FFF736
:102A30004DFF00E005E00520000701898022914359
:102A400001812846F8BD0F480068806A7047000081
:102A500000020040302EFD075877FD07787EFD0705
:102A60001D0D0000B477FD0720000050540B00003E
:102A7000FF03E0FFE02DFD07B47FFD0700330050AA
:102A80002C2EFD075876FD07FFB58BB000241746A6
:102A9000169E159D74486A4600941084002904D03F
:102AA000042201A85BF702FB02E00020C043019072
:102AB0000120019907E00A460241D20701D0641CB7
:102AC000E4B2401CC0B2B842F5D3182060430321E1
:102AD000183058F75FFF04460B9831460088208075
:102AE000149860804020014321711022A01D2969A3
:102AF0005BF7DCFA01266DE001983041C00767D032
:102B00003046142148430A90401909900079022860
:102B100004D0042813D010283DD055E0182102A875
:102B20005BF7DDFA0A9828580178684601720A981E
:102B30002858417868464172099880681CE018213D
:102B400002A85BF7CCFA0A98285801786846017207
:102B50000A9828584178684641720A98285881781E
:102B6000684681720A982858C1786846C1720998E7
:102B70000121806889040843069009988189684684
:102B80008183182100980A464843001902A9183089
:102B90005BF78CFA18E00A981822295800985043DD
:102BA00000190290102218305BF780FA0298012277
:102BB00001460998D2048068283110435BF7B1FAC6
:102BC00009988189029881850098401CC0B20090C4
:102BD000761CF6B2BE428FD30098607120464DF746
:102BE00052F90290002838D10B98218801800020EA
:102BF00001260390012F30D901983041C00725D01C
:102C000003981421401CC0B2039030464843411938
:102C100000918989090419D40099C989002915D01E
:102C200000990979022906D12858022208A95BF7E0
:102C300061FA00280AD000982288C18903690398A4
:102C4000101880B200224DF7F8F90290761CF6B207
:102C5000BE4202D202980028CED0204658F715FF77
:102C600002980FB0F0BD000003280000FFB58DB042
:102C70000546169800270078401E012878D80121C3
:102C8000282058F787FE044628215BF728FA169873
:102C90000178204620300B908171002660E00720EB
:102CA000694608760B9808224179169880190746DC
:102CB00005904078B04001430B9841711699F0009F
:102CC00041180019001D091D5BF7F0F978780128FB
:102CD00005D16946087E08210843694608760B98A5
:102CE0008079012805D96946087E10210843694684
:102CF00008760E987100028809A807914252109830
:102D00001E221040AB8A8030039009A80818BD4FDE
:102D1000002269468CC1052306AABB494DF76BFC0E
:102D2000070018D1079809AA115A05984078012878
:102D300001D0012000E00020081A0E99401D0880F3
:102D400005984078012806D10798B049105A801C90
:102D500080B24DF70EFB07206946761C0876F6B266
:102D600016980078B04205D9002F98D004E0FFE70C
:102D7000812706E0002F07D0002C02D0204658F70C
:102D800084FE384611B0F0BD2C6168460E99808CE7
:102D9000088020831098C00701D00120C0030F993C
:102DA00008432080A88A60802420E8820120E881EE
:102DB0001C349748AC606860A88A002159F77BF8FA
:102DC000DFE770B5056904466869002801D058F747
:102DD0005CFE00202061284658F757FE70BD006950
:102DE000002240184277704700690022401842775D
:102DF0007047F8B505460C46242001F052FF064600
:102E00002030002183790A46AB422BD9318B05272C
:102E100009E04679D640F607F617BE1B7118491E21
:102E2000521C89B2D2B2AA42F3D3032C01D20819A0
:102E300015E0032C02D0042C07D012E04079D040DA
:102E4000C0070ED0C91C89B20CE0012B09D940790A
:102E5000D040C007C0170422101A4018401E81B28B
:102E600000E000210846F8BD70B50C461546064640
:102E7000002101F02BFF02462102C120092300019D
:102E8000083158F795FE044612202070022128468A
:102E9000FFF7AFFFA0800120E0807019807E2072D4
:102EA000204658F79EFE70BD56483C307047F8B536
:102EB000044616460D46242001F0F3FE038B002243
:102EC00080212A7020301EE09F1CBC4201D8E01AED
:102ED00009E04379BFB2D340DB0707D07F1CBFB204
:102EE000BC4203D103203070002113E06346012B64
:102EF00005D97F1CBFB2BC4201D10420F3E77F1C7F
:102F0000521CBBB22A708779D2B2BC46BA4201D2F7
:102F10009C42D9D20846F8BDF8B5242001F0C1FE84
:102F20000446FF2000906069092281889202914244
:102F300020D1027B009202460E32964622461A3279
:102F4000D71C951D014694460C310FE00E780123E5
:102F5000F65D93401E4207D07346D65C6346D35C51
:102F60009E4201D0097817E0521CEA71EA79022AE0
:102F7000ECD31DE0274A91421AD1214602461D3169
:102F80000C328C46CD1C10E06346CE5C17780123D2
:102F9000BB401E4207D0FAB22046FFF765FFE87932
:102FA000401CE871F8BD491CE971E9790829EBD3A7
:102FB000818809229202002591420AD1C2880189A2
:102FC00014480223401E58F7F3FD00990170457024
:102FD0000AE0104A914209D1C28801890D480123B3
:102FE000401C58F7E5FD057058F7FBFD606958F780
:102FF0004CFD00212046656101F068FE002158F774
:103000005AFFF8BDB8C4FC070F1800000102000009
:1030100034C5FC0702240000FFB581B01F460C46F2
:103020000226039858F779FF00282FD1242001F0B9
:1030300038FE05462078082804D851F721FE9C491F
:10304000884212D1022339469A48039A58F7B0FDB4
:10305000217801702178082901D9402100E08921D7
:10306000417058F7BEFD002610E001263146039856
:1030700058F721FF6178227828461D3011540C3C06
:103080006C6100202035E871FFF746FF304605B03F
:10309000F0BDFFB581B00C460226039858F73DFFFE
:1030A000002826D1242001F0FCFD05462F462037BC
:1030B0002078B979884210D2617864290DD8BA1F76
:1030C000815401263146039858F7F5FE0C3C002048
:1030D0006C61F871FFF720FF0BE076480123801C3C
:1030E000039A049958F764FD8121017058F779FD1E
:1030F00000263046CBE7FFB583B000256846057152
:10310000057017460E4608886A4601A9FFF7CFFEEC
:10311000044606233A466848069958F749FD31881F
:103120000180002C05D169460978032907D0458024
:103130000324047158F755FD002007B0F0BD0221AB
:103140004180F6E7FFB583B00F460020694608705E
:103150000871069801AA040A3888FFF7A8FE06003D
:1031600011D1242001F09DFD0546F879B9790002BE
:10317000084369460979032904D10121002810D0A8
:10318000012816D080264C480423801E059A0699F3
:1031900058F70EFD39880180867058F722FD00200F
:1031A000CBE76B4628191B78427F99408A434277C8
:1031B00006E06B462A191B78507F994008435077E8
:1031C0002146284601F08AFD01463A480223C01CE8
:1031D000059A58F7EDFC04702919497F417058F79A
:1031E00000FDD0E7FFB583B0002069460870087184
:1031F000180A029004981C46008801AAFFF757FE9F
:1032000006460025242001F04CFD0746002E08D17B
:1032100068460079022814D0032814D0042814D05A
:1032200080262548AB1D2146001F059A58F7C0FC93
:1032300004460498002E018821802671658006D0FE
:1032400028E00125EDE70225EBE70725E9E76846D9
:103250000079022804D0032808D0042812D019E0ED
:10326000684600783818807E607113E002986946DD
:103270003818407F0978C840C107C90F6171090A31
:10328000A17107E068460078C000C119601D091DE2
:1032900001F038FC204658F7A4FC00204DE710B59B
:1032A0000878122801D1FFF737FE002010BD00007A
:1032B000FFFF000001240000180C000002468B886C
:1032C0000020022B01D00D207047C988002A05D0AC
:1032D0000029F9D00129F7D0812070470029FCD0BE
:1032E0000229F9D17047F0B589B004464CF71CFEAD
:1032F00005460026384F14E005A920464CF733FE5A
:10330000002301AA07A905A800964CF71FFF6846ED
:103310008088B84203D1641CA0B209B0F0BD641E1D
:10332000A4B2A888A04202D8E888A042E4D2002033
:10333000F3E7F0B58BB004464CF7F6FD264F0026B8
:103340000546FF371BE008A920464CF70CFE00237A
:1033500001AA05A908A800964CF7F8FE68468088DF
:10336000B84203D16946097D022911D01A49884221
:1033700003D16846007D022807D0641CA4B2A88847
:10338000A04202D8E888A042DDD200200BB0F0BDF8
:103390002046FBE710B50446382001F082FC827914
:1033A0000021A24202D98088001981B2084610BDCE
:1033B00070B504460D46382001F073FC81888022E8
:1033C000A14206D880790818A04202D9601A287054
:1033D0000022104670BD000003280000FFB504461F
:1033E0000F4618461E21084083B0A18A1D463F4A59
:1033F000803000230192009102900C221946384639
:10340000FFF742FB060025D10121282058F7C2FA18
:103410002061398881800C218171E90701D0012167
:10342000C903059A11430180A18A41803821E182B4
:103430000121E18101462431A1602D4910306160F4
:103440003FF768FB0C21294800F0A7F8A08A00216B
:1034500058F731FD304607B0F0BD70B50469054638
:10346000264610362069002805D030463FF75AFB23
:1034700058F70BFBF6E700202861204658F705FBBC
:1034800070BDF8B5194D1B4E0F460124204614217E
:10349000484341190979022908D128580088B042C7
:1034A00004D1E1B20022384600F094F8641C0C2CE0
:1034B000ECDBF8BDF8B50D4D0E4E0F46012420464D
:1034C0001421484341190979022908D12858008854
:1034D000B04204D1E1B20022384600F07BF8641C0F
:1034E0000C2CECDBF8BD04487047000040D8FC070A
:1034F0007CC5FC07022900003CC5FC07F7B5074660
:103500000D46382001F0CDFB0646046910E0207915
:10351000B8420CD16079A8420DD030460022214635
:1035200010303FF76FFB204658F7AFFA05E02468EC
:10353000002CECD101E0002C0AD1284601210830F2
:1035400058F728FA04460146304610303FF706FB8C
:10355000277165712A46A01D02995AF7A7FD002020
:10356000FEBD70B5064614460D46382001F099FBA5
:1035700003690BE01879B04207D158792880981D6B
:103580002060002B04D0002070BD1B68002BF1D1FF
:103590000020288020600A2070BDFEB5054600206E
:1035A0000E4600900124F24F019010E020461421B5
:1035B000484341190979022908D128580088B8429E
:1035C00004D1E0B26A460821FFF798FF641CB442B8
:1035D000ECDBFEBD7FB50E461446054601AA6946E2
:1035E0003046FFF7BEFF6846028802A801995AF7E5
:1035F0005DFD02A844550246684601883046FFF743
:103600007DFF7FBD7CB5382001F04BFB846805460B
:10361000407B6A4601A90C34FFF7A3FF00992DE017
:10362000421C2A736278002A0A5C02D0D20725D095
:1036300001E0920722D5A18808318BB2A968CA8817
:103640000102C1200001083158F7B2FA064660783D
:10365000002801D0122000E013203070A888618873
:103660004018B080A088F0803046A288A11D0830A4
:103670005AF71CFD304658F7B4FA7CBD287B082861
:10368000CED3607800260028A868C288018907D0B8
:103690000423B84858F78CFA61880180867007E0E7
:1036A000B4480623801C58F783FA6188418006716C
:1036B00058F797FAA86858F7E8F900212846AE604D
:1036C00001F004FB002158F7F6FB7CBD10B50C4659
:1036D000382001F0E6FA2078122801D0132801D111
:1036E000FFF790FF002010BD10B50C46382001F008
:1036F000D8FA80886188A31D401880B2A188002272
:103700004CF79BFC002010BDFEB517460C46382038
:1037100001F0C7FA054680886188401886B23846AD
:1037200058F7FBFB012820D0A188A31D00223046BA
:103730004CF783FC3046FFF7FCFD6946FFF738FE87
:10374000684601AA02A90078FFF70BFF012138465D
:1037500058F7B1FB0C3C0020AC6028736846007839
:103760006873FFF74FFF0120FEBD0220FEBDFEB5CE
:103770001E4617460C46382001F093FA0546A188EC
:103780006088A31D00224CF758FCA8886188401867
:1037900080B2FFF7CEFD6A4601A94CF742FD0098C2
:1037A0000088022810D073488B2506233A463146FC
:1037B000801C58F7FDF961884180217801700571FE
:1037C00058F70FFA0020FEBD207808230102C1201F
:1037D0003A460001083158F7EBF91321017061886E
:1037E0008180EDE7FFB589B00F4600206946087477
:1037F0000C9804A9060A3888FFF7DAFD054600246C
:1038000069468C82382001F04CFA002D1CD13820FA
:1038100003F03AF843686846007C1422014651439D
:103820000A1D9A5C022A0ED15958514A09889142C0
:1038300009D16A4603A9FFF794FE00986946805DA6
:103840008882022400E08025A31D4B480B9A0C9926
:1038500058F7AEF906463888308035717480002DEF
:1038600004D1224605A9701D5AF720FC304658F7AE
:10387000B8F900200DB0F0BDFFB585B00C4638207A
:1038800001F00FFA04900026684606700898694611
:10389000050A2088FFF78CFD07005AD1382002F076
:1038A000F3FF0146476868460078142302465A43EE
:1038B000131DFB5C022B1ED1BA582D4B12889A4265
:1038C00019D1019602962088FFF70DFD01AB002269
:1038D00003A94CF7CEFD039821468005C00FFFF7E2
:1038E000EDFC07063F0E34D168460178E288284691
:1038F000FFF770FE12E0002908D08E69002E05D077
:10390000A2886188A31DB047070022D16288A188E0
:103910002088A31D4CF791FB07001AD12946049873
:1039200001F0DCF90146A088079A801D83B2114896
:10393000C01C58F73DF90546A288A11D801D5AF705
:10394000B5FB684600786880A088A880284658F7AC
:1039500048F909480423801C079A089958F728F960
:1039600021880180877058F73CF9002009B0F0BD2C
:103970000229000005380000140C000030B5034691
:103980000120002103241A46CA40D20704D04D006A
:1039900022466D1CAA401043491CC9B20929F2D322
:1039A00030BDFFB585B00E9F04461D463888FFF731
:1039B000E5FF049028461E210840A18A494A0023B9
:1039C00080300191009302920390132304AA464988
:1039D00006984CF710FE060022D10121202057F74F
:1039E000D9FF206106990988018339884183E90755
:1039F00001D00121C903079A11430180A18A4180A6
:103A00001421E1820121E18101461E31A160374983
:103A1000001D61603FF77EF8A08A002158F74BFA3D
:103A2000304609B0F0BD70B50469054660680028ED
:103A300005D0201D3FF776F858F727F8F6E7002065
:103A40002861204658F721F870BD70477047254817
:103A5000E430704730B50446228B0920521C93B2E3
:103A6000648B00222546D540ED0706D05D1C8D42B3
:103A700001D1104630BD9B1C9BB2521CD2B2092A08
:103A8000F0D330BD10B50346008B5B8B401C80B279
:103A900000221C46D440E40706D0914202D1401CCB
:103AA00080B205E0801C80B2521C52B2092AF0DBC1
:103AB000092A00D1002010BD02460020802901D92A
:103AC0008D207047062A06D0072A07D0082AF8D189
:103AD0000729F5D170470829F2D170470629EFD39D
:103AE0007047000084C5FC070A18000090C6FC0758
:103AF000FFB581B00C46142001F0D3F821780746B9
:103B0000092931D2FFF7BEFF00282BD06178207839
:103B1000FFF7D2FF060028D17D680DE028792178D3
:103B2000884208D100222946381D3FF76BF8284605
:103B300057F7ABFF02E02D68002DEFD1607801212F
:103B4000083057F727FF054620782871607868719C
:103B50006278A11CA81D5AF7A9FA2946381D3EF71C
:103B6000FDFF02E0822600E0812602235248039AEC
:103B7000049958F71DF821780170467058F731F80C
:103B8000002005B0F0BDFFB581B0002000900E46CA
:103B9000039858F7C2F9002802D001284CD04DE014
:103BA000142001F07EF807463188FFF753FF0546E1
:103BB0004248092D36D27C6803E02179A94203D01E
:103BC0002468002CF9D117E0002C15D06379039AF2
:103BD0009B1D049957F7ECFF05463088288000208C
:103BE0002871607968806279A11D681D5AF75EFAB4
:103BF000284657F7F6FF21E03D770498010A7977C8
:103C0000384601F06BF801462B480123401C039A0B
:103C100057F7CEFF057057F7E4FF0121039858F7D7
:103C20004AF90BE00623039A049957F7C1FF31883C
:103C3000018080210171DCE7022000900098A0E75C
:103C4000F8B517460D46104658F767F9012831D1E7
:103C5000142001F026F80446017FFFF713FF064603
:103C6000217F2A781548914214D1617F6B7809022F
:103C70003A4608319B1D57F79BFF044606800020FB
:103C80002071687860806A78A91C601D5AF70EFA66
:103C9000204609E0617F062309023A46083157F7BA
:103CA00087FF06808021017157F79BFF002138466E
:103CB00058F701F90020F8BD01140000140C0000B1
:103CC000F0B5054637260020765D04468E4249D978
:103CD000172A47D216270E467E437619132A02D397
:103CE000F77D9F423ED9288E07E0162767437F194C
:103CF000BF7D3818641C80B2E4B28C42F5D3132A1D
:103D000035D28018B18880B2CB0709D10F2A02D9E9
:103D1000401F80B204E013460B3B042B00D8002068
:103D20008B0709D4122A02D9C01E80B204E01346C0
:103D3000103B022B00D800204B0709D40A2A02D9D5
:103D4000801E80B204E01346093B012B00D80020FE
:103D5000090707D4082A01D9801E02E0012A02D9E6
:103D6000401E80B2F0BD012AFCD10020F0BD317EA2
:103D70000818002180B240240AE0C01CB7882546FC
:103D80008D4080B22F4201D0401C80B2491CC9B284
:103D90009942F2D3162A03D1B1889C402142E4D142
:103DA00080181338DDE7FFB597B000200546159061
:103DB000209F0121382057F7EDFD0590002012903B
:103DC0001390089009900A900B90382105985AF7A3
:103DD00086F93878002801D0022800D981250020F2
:103DE000F7E01A214843C0190290C078082801D989
:103DF000812522E102981621807882060498920E8D
:103E00004843059944180F94A28002980321C07872
:103E1000E0759920800057F7BDFD02460498FD2605
:103E2000810012A80E914250049A08ABD20014925D
:103E30009E50A27DD21DA2754058E422FB495AF73C
:103E400035F902988078000711D5149908A84158CF
:103E5000721D1143149A81500F980F99807D801C18
:103E60008875029812A9028B0E98085882820298CF
:103E7000807840070CD5149808A90A5803204002FE
:103E8000024314980A500F980F99807D801C887502
:103E900002988078C00718D0149908A841581F22AA
:103EA000D2021143149A81500F980F99807D401DC2
:103EB000887502988078C00607D50E9912A84058D8
:103EC000DB4A803041691143416102988078800764
:103ED00018D5149908A84158072212041143149ABE
:103EE00081500F980F99807DC01C8875029880784A
:103EF000800607D50E9912A84058CD4A8030016D32
:103F0000114301650F980026817D017654E0002061
:103F10001090149908A80818B400214613314A09D2
:103F200093000D909C46C258CB06DB0E01219940B0
:103F30000A4363462146C25014314A0993009C4605
:103F4000C258CB06DB0E012199400A436346214645
:103F5000C25015314A0993009C46C258CB06DB0E6D
:103F6000012199400A436346C2500F980F99807D02
:103F70003022C01C88750E9812A909580C20604385
:103F8000E4300818A949E4315AF790F802988019EA
:103F900001798907890F012923D0022941D00329FA
:103FA00041D081250E9812AA125830207043F43067
:103FB0001099761C1150F6B20298C078B042A6D87B
:103FC0000F98817D15980818C0B215900498401C70
:103FD000C0B204903978814228D9002D00D100E781
:103FE0002BE0944910911634610989000D9AE4067A
:103FF0005258E40E0123A3401A430D9B5A500F99C7
:104000000F9A897D491C91750F998A884021B1408A
:104010000A430F998A800079C006C3D5864810905C
:10402000C0E78648FBE78248401CF8E7002D04D132
:10403000159918984CF766FB05461898694600884C
:10404000888318980188059801860598397820306A
:10405000C17500206946087604466CE01A981E2156
:104060000840A20012A9179B89589B8A8030002221
:10407000029103900092E10008A80A1801933323EB
:104080006F4907A84CF7B7FA054616200599604313
:10409000401800906946807D898B40186946888366
:1040A000002D20D10023032221460598FFF708FEAA
:1040B0001A216143CE1933461433002204214BF7F1
:1040C000BCFF05000FD1B07800070ED500230822F1
:1040D00021460598FFF7F4FD33461A3300220221EA
:1040E0004BF7ABFF0546002617E0002617E08019C6
:1040F000027B69460A76007933468007800F48764E
:10410000152221460598FFF7DBFD06AB00220221B0
:104110004BF793FF761C0546F6B2002D06D12046DC
:104120001A214843C019C178B142E0D80120009952
:10413000641C4876E4B23878A04202D9002D8DD0B4
:1041400001E0002D13D00598002801D057F79DFC01
:10415000002412AEA0003058002801D057F795FC7B
:10416000641CE4B2022CF5D328461BB0F0BD1799AD
:10417000059808611A98C00701D00120C003199959
:1041800008430599088017980599808A48801798F0
:104190002621C18217990120C881059817993630C8
:1041A000886017982749416017980021808A57F73F
:1041B00082FECDE710B5002201690261084657F77B
:1041C00064FC10BD704730B50269002049001346F9
:1041D0000446203306E016254543AD186D18401CF3
:1041E000EC80C0B2DD7D8542F5D830BD1648704701
:1041F000F0B58025AC46048E17251D7000250646B7
:104200001570203609E016276F433F18BF7D3F1910
:104210008F421BD86D1CBCB21570F77DEDB2BD424C
:1042200001D2A142EFD26046F0BD000098C6FC0763
:1042300008000200010200000902020009800200D9
:1042400012180000FCC7FC07ACC7FC070025059E40
:10425000AC462F4635701578162675432E18357ED8
:104260002D198D4238D9A14201D11F70DBE7B288E8
:10427000100705D5641CA4B2A14201D1012041E080
:10428000E41DA0B20824814202D8401A201A39E065
:10429000150705D5401C80B2814201D11C70C2E7D0
:1042A000540706D5801C80B2814202D8401A0B21E7
:1042B00010E0D40706D0401D80B2814202D8401AD7
:1042C000102107E09207AED5C01C80B28142AAD867
:1042D000401A1321081A15E0059EACB2377016E09B
:1042E000E41CA4B2A14203D8611A1620401A09E0C6
:1042F000B7884026AE40374206D0641CA4B2A14223
:1043000002D1162018708EE7059E6D1C3570167848
:104310001627059D7E4336182D78F77DBD42DFD3E5
:1043200081E7F3B583B00C46262000F0BAFC0025E7
:1043300084460195607817222F462E46002804D027
:1043400002280BD0042810D10CE0217940208840AD
:1043500014222D2786B20120019006E00C220827A6
:10436000012602E0112208270226237921786046DF
:10437000FFF7A6FC0090002804D06088B84217D947
:104380008D2549E0002E11D0614620312078C97D6D
:1043900088420BD21621484360442279C17D8A426B
:1043A00004D28088304201D18C2535E0812533E06C
:1043B0002078162148430399604449004118C98870
:1043C000314201D18A2527E0427E01998A4204D0F8
:1043D0000079400701D589251EE06046039900F069
:1043E00075FC02466088083083B203980102C12040
:1043F0000001083157F7DCFB0646122030700098A8
:10440000B0806088F08030466288611D083059F7BE
:104410004DFE304657F7E5FB284605B004E7FFB5EB
:104420000746002081B0044600901646262000F082
:1044300038FC05460D2E08D0122E08D0162E07D1B6
:104440000498402181408CB202E0012400E0022463
:10445000029816220A997E005043002904D00129AF
:1044600007D080200090D8E740198019C188A14367
:1044700003E040198019C1882143C180394628468C
:1044800000F024FC04463946284600F027FC01468B
:10449000062322460B4857F78BFB01460770002086
:1044A000162242434300521992195B18401CD288CD
:1044B000C0B25A800228F3D3084657F792FB0098FF
:1044C000ABE7000008260000FFB581B00D460026CE
:1044D000262000F0E6FB04462878082807D850F785
:1044E000CFFBFC49884206D12878082801D940260C
:1044F00014E0892612E00022204620300BE0510013
:1045000049194B8816212F78514309197F00C91981
:10451000521CCB80D2B2C17D9142F0D80223EE482A
:10452000039A049957F744FB29780170467057F7AE
:1045300058FB002005B0F0BDFFB581B00D46002747
:10454000039857F7EAFC0446C00702D00227384612
:10455000F0E72878082807D850F792FBDD49884211
:10456000287805D1082801D9402606E0892604E0EC
:10457000A91CFFF7D6FE06000CD0D7480223801CEA
:10458000039A049957F714FB29780170467057F77E
:1045900028FBDCE7012004432146039857F78BFCF6
:1045A000D5E7FFB583B00D46059857F7B6FC0190E7
:1045B000800771D58026262000F073FB0446A8787A
:1045C000002803D006463320005D29E02746203727
:1045D0006978F87C814223D12978BA7C91421FD135
:1045E00068790022030059F7B5FD050406080A0C96
:1045F0000D00142206E0072204E00C2202E00F2244
:1046000000E011222B7A29792046FFF759FBA18E71
:10461000814204D1F87C0026012810D002E0F87C09
:1046200001280ED03220005D04230102AB4808317E
:10463000059A57F7BDFAA18E018086701DE0E888C3
:1046400000E000200090801D83B23220005D059ABA
:104650000102A2480831801E57F7AAFA0746A08E29
:1046600038803E7100987880002E05D129460931A6
:10467000781D009A59F71AFD384657F7B2FA2046C6
:1046800000212030C174A186FF2181740199FD2091
:104690000140059857F70FFC002007B0F0BDFFB5AB
:1046A00081B00F46039857F738FC0646800742D57D
:1046B0008025262000F0F5FA04467878002801D0FD
:1046C000054618E020462030C17C032913D13978F3
:1046D000807C814214D1B97800230A222046FFF75A
:1046E000EFFAA18E814206D1B878162200255043F8
:1046F000F9780019417620462030C17C01291CD070
:104700003220005D0423010274480831039A57F7F0
:104710004FFAA18E0180857057F763FA2046002179
:104720002030C174A186FF218174FD2006403146EE
:10473000039857F7C0FB0020FCE6807C06230102AB
:1047400066480831801E039A57F732FAA18E01801D
:104750000571E1E7F0B585B01F4616460D462620E7
:1047600000F09FFA03A90091298801AB02AAFFF784
:104770003FFD04465948062332463946801C57F708
:1047800017FA29880180002C13D169460A79002183
:104790000C3A130059F7DEFC0B07090B070B07094E
:1047A0000B070B090B00418003E00221FBE741806E
:1047B0000324047157F715FA0020BBE6FFB58BB050
:1047C00000200A900D460D9857F7A7FB0990800727
:1047D0007ED40E98070A262000F063FA059003A8FD
:1047E0000090298804AB02AA0598FFF701FD059EF9
:1047F000044620360020B774F07405982988818615
:10480000002C16D16846027C0F2A3ED008DC052A0F
:1048100010D00A2A22D00C2A37D00D2A08D174E0F1
:10482000112A32D0122A70D0142A2ED0162A6CD017
:10483000802480E03946059800F050FA0146264869
:10484000032308300D9A57F7B3F907706946097AC0
:104850004170A979817057F7C4F962E0394605982B
:1048600000F03CFA01461C480423401D0D9A57F7FE
:104870009FF90770032444706946097A8170A97909
:10488000C17057F7AEF9F4744EE03946059800F060
:1048900025FA0146A8880D9A083083B20E48C01C3C
:1048A00057F786F90770022704464770A888A0804A
:1048B0006846007AA0706846007BA071AA88A91D8E
:1048C000E01D59F7F3FB6846007C0C280FD007E089
:1048D0003DE00000FFFF000001260000160C000074
:1048E0000F2806D0112806D0142806D10AE0E77058
:1048F00003E0032000E00420E070204657F771F940
:10490000F77411E00020F7E7FFE7E879A9790002E2
:10491000084300906846037B017A3846FFF77FFD25
:104920000446F07C002806D00999022001430D9826
:1049300057F7C1FA0DE0042370480D9A0E9957F706
:1049400037F929880180847057F74BF901E002207C
:104950000A900A980FB0F0BDFFB58DB000200A9004
:104960000F9857F7DAFA0B90800774D4002669463F
:104970008E843446262000F094F90546109805AB45
:10498000000A029004A800900E9803AA0188284605
:10499000FFF72EFC070072D16846017D1098C91FF1
:1049A000000A40000B0059F7D5FB100F6969386900
:1049B0000942690B690D4C6910695769022604E0C8
:1049C000032602E0042600E001262846029900F0B2
:1049D00085F9014608234A480F9A57F7E9F80299E2
:1049E000017001244470002181806946097B817037
:1049F000C6706946097C817157F7F3F82846203064
:104A000002998174C4740E980088A8860B990220BC
:104A100001430F9857F74FFA49E06846007B16218B
:104A200048434019417E68468184012427E0694655
:104A3000097B16225143491908188079C007C00F15
:104A400018E06946097B16225143491908188079F4
:104A50008007C00F0EE028E06946097B162251430B
:104A60004919081869460A7CC088402191400840CD
:104A700000D0012069468884022400E080271F4876
:104A8000A31D801E0F9A109957F792F805460E98AD
:104A90002246008828802F716C8009A9681D59F76B
:104AA00005FB284657F79DF801E002200A900A9876
:104AB00011B0F0BD70B5087816460D4612281AD10F
:104AC0001C0A262000F0EDF8214600F007F9014607
:104AD0000B4802233246401E57F76AF80470697883
:104AE000417057F77EF8304657F717FA41084900EA
:104AF000304657F7E0F9002070BD0000160C0000AA
:104B0000042600000A7902704A7942700B8883708B
:104B10001B0AC3708A79027149884171090A81713F
:104B200070470000014610B50020C9B2262911D0F7
:104B300006DC14290BD0242901D1FEF7B5F910BDEC
:104B400037290AD03829FAD1FEF7CDFC10BDFEF77F
:104B50007EFF10BDFFF74AFB10BD00F092FA10BDBA
:104B6000F8B50025794EFF27002818D0002418201A
:104B700060438719F88AFFF7D5FF002802D0416803
:104B800038468847FF20F8827D60BD60FD81387D12
:104B900057F7D6F9641CE4B2052CE8D3F8BD00241D
:104BA0002046182148438119224610320D618A821D
:104BB000CF824D608D60CD818D813550087D57F756
:104BC00048F9641CE4B2052CEAD3F8BDF3B50546F8
:104BD00081B000264088FFF7A5FF01000AD05B4F97
:104BE0006A88002018234343DB19DB8A934203D1F0
:104BF000422628E0402626E0401CC0B20528F1D31A
:104C0000002418206043C019C08AFF2806D0641C05
:104C1000E4B2052CF5D3052C14D014E02846083056
:104C2000009018206043C0190E686B78AA88074668
:104C3000A91DB0470600EED16888F8820298B98AAB
:104C40000180E8E74B263046FEBDF8B53F4E0746EB
:104C50000024182060438519E88AFFF763FF0028C5
:104C600003D08268394628469047641CE4B2052C7C
:104C7000EFD3F8BDF3B5354E81B00F4600241820B0
:104C800060438519E88AFFF74DFF002804D0C36808
:104C90003A46284601999847641CE4B2052CEED3A5
:104CA000FEBD034610B50020284A014618244C4397
:104CB000A418E48A9C4204D1182041438818006952
:104CC00010BD491CC9B20529F0D310BD428850045B
:104CD000400CD20B01D009020843704702885004EF
:104CE000400CD20B01D009020843704730B5FF21B8
:104CF000020AC4B2154B002018254543ED18AD8AB1
:104D0000A54204D118214843C018C18A03E0401CC1
:104D1000C0B20528F0D31002084330BD30B5FF21E2
:104D2000020AC4B2094B002018254543ED18ED8A4C
:104D3000A54204D118214843C018818A03E0401CD1
:104D4000C0B20528F0D31002084330BD3C2EFD0749
:104D5000FFB50646FF20FBB01F460321E13056F7A2
:104D600019FE04467C98394600882080B08A60800D
:104D70001E2001408031C44B21710FCB6D460FC501
:104D800010226946A01D59F791F9182109A859F771
:104D9000A6F9BD491822103109A859F787F920460C
:104DA00018300546182209A959F780F91822B74981
:104DB00045A859F77BF928461830182245A959F714
:104DC00075F918210FA859F78AF9AF491822283127
:104DD0000FA859F76BF92046483018220FA959F748
:104DE00065F9AA49182218314BA859F75FF92046EE
:104DF000603018224BA959F759F9182115A859F70D
:104E00006EF9A1491822403115A859F74FF92046EB
:104E10007830182215A959F749F99C4918223031E0
:104E200051A859F743F920469030182251A959F753
:104E30003DF918211BA859F752F993491822583106
:104E40001BA859F733F92046A83018221BA959F797
:104E50002DF98E491822483157A859F727F92046CD
:104E6000C030182257A959F721F9182121A859F75C
:104E700036F985491822703121A859F717F92046CB
:104E8000D830182221A959F711F980491822603128
:104E90005DA859F70BF92046F03018225DA959F7A3
:104EA00005F9182127A859F71AF9784918227839ED
:104EB00027A859F7FBF82046FF300930182227A908
:104EC00059F7F4F871491822783163A859F7EEF8C8
:104ED0002046FF302130182263A959F7E7F818213E
:104EE0002DA859F7FCF86949182260392DA859F7FF
:104EF000DDF82046FF30393018222DA959F7D6F8B1
:104F0000182133A859F7EBF860491822483933A81B
:104F100059F7CCF82046FF305130182233A959F701
:104F2000C5F85A491822903169A859F7BFF82046A8
:104F3000FF306930182269A959F7B8F8182139A843
:104F400059F7CDF851491822303939A859F7AEF838
:104F50002046FF308130182239A959F7A7F84B496C
:104F60001822A8316FA859F7A1F82046FF309930D0
:104F700018226FA959F79AF818213FA859F7AFF8E6
:104F80004249182218393FA859F790F82046FF30B7
:104F9000B13018223FA959F789F83C491822C0318D
:104FA00075A859F783F82046FF30C9301325182219
:104FB00075A959F77BF8657120464AF764FF05909B
:104FC00000283DD100210C2056F7E4FC05460C21B9
:104FD00059F785F82088E8808498007828710020A7
:104FE0006881F80701D00120C0037D99084328801B
:104FF000B08A68803720F0820120F081284608308E
:10500000B0602348356170607C98E9880180B08A7F
:10501000002156F750FFED880D2069460874F420F2
:10502000088428460F3080B204AB002201214BF7E0
:1050300004F81135A8B208AB002202214AF7FDFF9F
:10504000204656F722FD05987FB0F0BD10B500222E
:1050500001690261084656F718FD10BD704708B592
:10506000006900216A4611704181C0880A460C30EF
:1050700080B26B4601214AF7E0FF002800D000BE55
:1050800008BD01481038704714C8FC0714C9FC0754
:105090000CCAFC07F8B51F4614460E463720FFF72A
:1050A00000FE0546C088B31C0C3080B200220121EE
:1050B0004AF7C3FF002800D000BE688900281DD031
:1050C000390A0902C120092322460001083156F796
:1050D0006FFD04466889012812D01320207000203B
:1050E0006080E88801220C30A0802046E280B11C5C
:1050F000083058F7DBFF204656F773FD0020F8BD57
:105100001220EBE710B50C463720FFF7CAFDC08828
:105110002346801D80B2002204214AF78EFF00281A
:1051200000D000BE002010BDFEB50C4600211F4679
:1051300015461046019156F7F0FE002805D0284686
:1051400056F7EBFE012872D0C3E004232A46394605
:105150008B4856F72DFD05463720FFF7A2FD064682
:10516000218880793A0A081A009229808021C0B2E9
:105170000027A97002280CD0042831D00A2857D063
:10518000082879D00D2876D0A970284656F729FD31
:105190009FE06288A1882088A31D4AF74EFFA8706F
:1051A00030460099FFF79AFD014637220823100286
:1051B00056F7FEFC064600984FF762FD3080776098
:1051C000607A01067160207A000401437160E07921
:1051D000000201437160A0790143012071606AE01F
:1051E0006288A1882088A31D4AF727FFA87030464F
:1051F0000099FFF773FD014608233722614856F7EF
:10520000D7FC064600984FF73BFD30807760607A08
:1052100001067160207A000401437160E0790002A8
:1052200001437160A07901430220716043E04EE0C8
:105230006288A1882088A31D4AF7FFFEA870304627
:105240000099FFF74BFD0146A0883722001D83B26D
:105250004C48801C56F7ACFC064600984FF710FDF2
:105260003080A288A11D301D58F720FF2079F070F2
:10527000042020E000E023E06288A1882088A31DAC
:105280004AF7DBFEA87030460099FFF727FD01467C
:105290003C4806233722401C56F78AFC06460098F5
:1052A0004FF7EEFC3080B780E0790102B180A07941
:1052B0000143B1800320B070304656F792FC64E79A
:1052C000E079A179000208437081AF705DE70220A8
:1052D00001900198FEBDFFB583B01C460E46002725
:1052E000059856F71AFE002805D0059856F715FEC2
:1052F000012840D040E03720FFF7D3FC3178827995
:105300006B46891ACAB200211980019119810221C4
:105310000D2A22D0132A24D0308801AA19464AF730
:1053200080FF0546684600882146801D83B21448E8
:10533000059A801E56F73CFC3188018004460571B1
:10534000684602886280002A03D0601D019958F7E0
:10535000ADFE204656F745FC0EE0002519800A30C8
:1053600007E000251980200A4CF7E7FB6A46108108
:1053700002A80190D6E70227384607B0F0BD00002A
:10538000160C00000137000010B500F004FB00F01F
:10539000D7FB00F075FC00F081F90120FBF756FD0A
:1053A00010BD4822002801D0012800D10A707047A2
:1053B0000120087000204880888070470021BF4A83
:1053C00005E0834201D101207047491CC9B20C237A
:1053D0004B43D35CFF2BF4D10020704770B5B74925
:1053E000B74C0E463036B74D0DE052185268002AC1
:1053F00007D0C2B20C235A4351184968401C607050
:105400002DE0401C607060780C2242438B5CFF2BC7
:10541000EBD10AE089194968002903D0FFF7CEFFD4
:10542000002809D02078401C207021780C204143AE
:10543000705CFF28EED117E020780C2141438919D8
:105440004968401C20700AE04919C968002909D040
:10545000C1B21C2251434919C968401CA070884739
:10546000002070BD401CA070A0781C2141436A5CE4
:10547000FF2AE9D10020A07060702070012070BD6B
:1054800010B50121042056F716FDFFF7A7FF10BD48
:10549000A4E7F8B505460024884E0AE08019816823
:1054A000002904D0641CE4B22846884701E0641C4B
:1054B000E4B220460C214843315CFF29EED17F4EF7
:1054C0000024303609E08F19B968002903D0FFF7AE
:1054D00075FF002809D0641CE4B20C216143705CA4
:1054E000FF28F0D10024774E10E0641CB968E4B2C4
:1054F00028468847F1E780190169002904D0641C17
:10550000E4B22846884701E0641CE4B220461C212E
:105510004843315CFF29EED1F8BD70B5684EB068E4
:1055200000282BD12C2304220921674856F740FB81
:10553000032101700A21B06041708521018400259A
:1055400085765E4904464580102266390A3058F750
:10555000ADFD2A2005552021E176A583E5835B4931
:105560006584488F8922892800D91046E0849720D5
:10557000898FC000814200D808462085B06870BD80
:10558000514810B5012304220921401E56F710FB93
:105590000221017056F725FB10BD494810B50C21BA
:1055A000183058F79CFD46490020183101220C2381
:1055B00043435B18401C00061A71000EF7D03F49A8
:1055C0000420603156F745FC0021042056F773FC97
:1055D00010BD10B5040000D000BE21020223042239
:1055E0003B480A3156F7E4FA0C220121544301707A
:1055F000334A1321417018320021A218D17056F796
:10560000F0FA10BD70B50D460102314814462C2346
:105610000422801E0A3156F7CBFA014620310D7262
:105620004C7256F7DEFA70BD2A4B10B59A4201D97A
:105630001A4602E0002A00D1012256F70BFD10BDE8
:1056400010B5FFF76AFF56F7CCFA1D4900208860B5
:1056500010BD1B4A002124324B00D35C834203D18E
:105660004800801840787047491CC9B20A29F3D312
:105670000420704730B5124B0022243354001D5DC6
:10568000854206D0FF2D04D0521CD2B20A2AF5D38F
:1056900030BD52009854E018417030BD084910B533
:1056A0000020FF232431042442008B545218401C54
:1056B000C0B254700A28F7D310BD000098CAFC0786
:1056C000B42EFD0784CDFC07040D0000A479FD076E
:1056D000040E00003075000010B5104656F71DFC92
:1056E000002802D000BE002010BD012304220921A1
:1056F000914856F75DFA0121017056F772FAF2E708
:1057000070B50D788D4C0D2D22D008DC012D0FD0F9
:10571000022D25D0032D13D00C2D25D128E00E2DE0
:105720001AD0112D24D0122D22D0132D1CD11FE000
:105730004878002801D000BE1AE0FFF781FF17E08B
:105740004878002801D000BE12E001F0EEF80FE02A
:10575000487804F056FD0BE0487804F03FFD07E080
:105760004D78002D00D000BE2568002D00D0A84740
:10577000002070BD70B51C4610460D4656F7CDFB97
:10578000022802D000BE002070BD200A00D000BE5A
:105790000C216B4A414389188870294601F0D9F8D9
:1057A000F1E770B50D784C78092D09D0002C00D0A8
:1057B00000BE624C2568002D00D0A847002070BDB7
:1057C000002C03D0204601F09BF8F7E701F0A8F881
:1057D000F4E770B51D4610460C4656F79EFB2A0AA4
:1057E000032802D000BE002070BD0C204243544864
:1057F000FF21101881700021C170204601F0FCF8D3
:10580000F1E700207047FEB508781F4615460024D2
:105810004C4E030058F79EFC030313272500152365
:105820003946304656F7C4F9054604700B206880A7
:10583000024645A1281D58F739FC28460FE0694665
:105840000C80684601F024F90A232A46394630467E
:1058500056F7AEF90121017069460988418056F773
:10586000C0F90020FEBD0A233946304656F7A0F99C
:105870000446684601F010F902202070684600884E
:10588000608068464088A08068468088E0806846DE
:10589000C08820812046E2E738B50C46482069469A
:1058A00008702078FFF77DFD264802230422092195
:1058B000801C56F77DF9694609784170217801709E
:1058C00056F78FF9002038BD10B5104656F725FB66
:1058D000012809D1FFF7DCFD002805D002210420B2
:1058E00056F7E9FA01F0A4F8002010BD70B518468B
:1058F0000D460146E1200623000156F759F90446FA
:1059000001462846FFF754FD204656F76AF9002065
:1059100070BD10B5084601F0C8F8002010BDFEB5F6
:105920001C46064D089B0B262D1D6F4668C7134667
:10593000224600F0CAFDFEBD020D000008CBFC07A8
:10594000CC2EFD070B0E0000444131343538352094
:105950005243550070B51C2304220921484856F7CC
:1059600027F904461B2020702420FFF772FE607088
:10597000242060800423A3800021E1800122227280
:105980006272404DA581E18123746174A274204646
:1059900056F727F970BD10B50120FBF713FE3A4901
:1059A000087010BD10B5384CE17022716371207021
:1059B00010BD10B534490A22C88004213348FFF7CE
:1059C00033FE10BD10B5044624203CF738FF0146D5
:1059D000042309201A46800256F7EAF804700021D1
:1059E000417029490978817056F7FBF8002102239C
:1059F00001220846FFF7D6FF2548FFF7DAFF10BD62
:105A000070B5214C01256570E078002803D06179DC
:105A10002079FBF740FF1D48A570C8220421401CD7
:105A2000FFF702FE70BD10B5044624203CF707FFC7
:105A3000014602230422174856F7BAF800210170E4
:105A4000447056F7CEF810BD70B50120FBF7BAFDD3
:105A50000D4D04462878844202D02046FFF7E3FF2C
:105A60002C70E878002803D0052C01D2FFF7C8FF7E
:105A700070BD10B50421054856F736FB10BD000077
:105A80001B0D0000AD270000EE2EFD0701040000F5
:105A900070170000022400000020704700207047AB
:105AA00010B54A780878114600F04CFF002010BD70
:105AB00010B51446FFF7C8FF1A48214602881A4855
:105AC000FFF7B2FD002010BD70B5184815460078EC
:105AD000002818D0164C17491748134E2278761C08
:105AE00009780078002A05D0FBF7B7FE0020207067
:105AF000142204E0FBF7CFFE012020700522294686
:105B00003046FFF791FD002070BDFEB51C46089B96
:105B100005260A4D6F4668C71346224600F0D5FC9D
:105B2000FEBD0000F42EFD0701040000F12EFD076C
:105B3000F02EFD07F32EFD07F22EFD0774CBFC07B8
:105B4000704710B50A23042209210B4856F730F894
:105B500004461B2020701420FFF77BFD607014208A
:105B600060800420A0800020E080FF21743121812A
:105B7000204656F736F810BD1B0D0000F8B50E464E
:105B800009781846002425460B0058F7E3FA090661
:105B900009120915180C1B0F1E000B241CA515E07B
:105BA00007241EA512E008241EA50FE0072420A547
:105BB0000CE00A2420A509E01A2422A506E00E2400
:105BC00027A503E006242AA500E000BE0146A31C89
:105BD000294855F7EDFF0746307838707C70002C67
:105BE00004D022462946B81C58F760FA384655F7C3
:105BF000F8FF0020F8BDFEB51C46089B01261F4D8E
:105C00006F4668C71346224600F05FFCFEBD0000E9
:105C10004469616C6F672053656D6900444131349C
:105C200035383500123456FFFE9ABCDE0000000005
:105C300001D2008005000100312E302E302E302D93
:105C40004C450000765F765F362E302E342E333290
:105C5000365F765F362E3134302E322E31370000EB
:105C6000765F765F362E3134302E322E313700009B
:105C7000FFEEDDCCBBAA0000031400009CCBFC07A8
:105C8000F6480021017441618161C16001770246DB
:105C9000D162142101707047F04800210174416104
:105CA000C160704710B5092304221946EC4855F726
:105CB0007FFF04461B2020703720FFF7CAFC60706E
:105CC000372060800420A0800021E18021722046DE
:105CD00055F787FF10BD10B5044637203CF7AFFDE0
:105CE000014604231A46DF4855F762FF847055F7D2
:105CF00078FF10BD10B5D94C2078032801D1FBF7EF
:105D00002DFF14202070002000F0A7FE10BD70B5FC
:105D100002460020160BC04336030C0B090500D0C9
:105D2000641C002C01D000250BE00124002520215B
:105D30003046FBF7F8FF012109037618002802D14D
:105D40006D1CA542F3D370BD70B50C4606461546D2
:105D5000200B49190003A04202D11146204607E05A
:105D60000A0B230B9A4205D0012212038018091A4C
:105D7000FFF7CDFF2A4621463046FCF715F870BDE7
:105D8000FEB5064600200124A404009001900346BD
:105D9000024601460290A5123046FBF789FEFBF74A
:105DA000E9FFB14980B24118B04805D0022904D0BA
:105DB0002D221202914200D1044629462046FBF7CB
:105DC00007FFFEBDF8B50446A448A94E017A002796
:105DD0000906090FA171027AFF4313071B0FE37134
:105DE00002891204120F227002891205120F6270CA
:105DF00082681202120FA27082681203120FE27000
:105E00008268120F227180680001000F60712820E3
:105E100041438A1999005058002801D0384600E0C3
:105E200001205050A579E279C11758F783F92A016A
:105E300058F780F98F4A1368556818432943106052
:105E40005160A078282148438219E0788100505899
:105E5000002801D0384600E001205050A578E278B3
:105E6000C11758F767F92A0158F764F9814D2A6874
:105E70006B681043194328606960207928214843E2
:105E80008219607981005058002801D0384600E01E
:105E90000120505026796279C11758F74BF9320129
:105EA00058F748F92A686B681043194328606960FD
:105EB0002078282148436E4940186178890042586B
:105EC000002A00D101274750384626786278F91712
:105ED00058F730F9320158F72DF92B686A681843E2
:105EE0001143286069600120009003263602617822
:105EF000207808233246FBF7ECFC00250095E17979
:105F0000A07907233246FBF7E4FC0095E178A078FE
:105F100006233246FBF7DDFC0095617920790523E5
:105F20000022FBF7D6FCF8BD3EB5AA216A464B4CD1
:105F300011722178062013290FD11046FFF742FF76
