:0200000407FCF7
:10000000F8E2FC077105FC077905FC079105FC0780
:1000100000000000000000000000000000000000E0
:10002000000000000000000000000000A905FC071F
:100030000000000000000000AB05FC075F24FC0787
:10004000352CFC079B2CFC071D27F0078B27FC0792
:10005000AF05FC07AF05FC07AF05FC0787B1FC0740
:10006000D72DFC07AF05FC075F1BFC07631BFC07D4
:10007000671BFC076B1BFC076F1BFC07C524FC07F9
:100080008328FC07AF05FC07311EFC07511EFC0747
:100090002D18FC07AF05FC07AF05FC07AF05FC07F3
:0200000407FCF7
:10051000044885460CF07CF800480047BB0BFC07FC
:10052000C046C046F8E2FC070D49062008800122BB
:100530000C48D10301600221016000210260052006
:1005400000070180028A0F231B021A430282064A17
:10055000064802C2401E0028FBDA62B6704700005F
:100560000034005080E100E0005CFD07FF0800005F
:100570000F4880470F48004704207146084203D0C7
:10058000EFF309800C490847EFF308800A49084750
:1005900004207146084203D0EFF309800749084759
:1005A000EFF3088005490847FEE7FEE7FEE7FEE7B0
:1005B0002905FC071105FC072106FC07C105FC07FE
:1005C00005221207518A8023194351821249036878
:1005D0000B6043684B6083688B60C368CB600369C2
:1005E0000B6143694B6183698B61C369CB610862AD
:1005F0000A48836A4B62C36A8B62036BCB62C36B2C
:100600000B63436B4B63806B8863908A800601D5D4
:1006100000BE7047FEE700000000FD0700ED00E0AF
:10062000052109070A8A04231A430A820A8A022337
:100630001A430A820A8940231A430A811B4B01226A
:100640001A601B4B08221A804A8A80231A434A8266
:10065000184A036813614368536183689361C368F0
:10066000D361036913624369536283699362C36907
:10067000D36210631048836A5363C36A9363036B46
:10068000D363C36B0B4A40321360436B5360806B80
:100690009060888A800608D500BE488A01228008BA
:1006A0008000D203104348827047FEE780E200E0FA
:1006B000003300504000FD0700ED00E0FFB50026CC
:1006C00081B01D460F461C46102902D9002005B0F6
:1006D000F0BD002803DA0A2F01D101264042394635
:1006E0005DF76AFC0A2901DA303107E0039A002A33
:1006F00001D0412200E0612251180A392170641CA6
:100700000028ECDC601B302102E02170401C641CDE
:100710000A9A9042F9D3002E02D02D202070641C3A
:1007200000202070601B0021430807E0421A521984
:10073000203A6C5CD67F6E54D477491C8B42F5D836
:10074000C5E770B5044625680498691A511A4D1E0C
:10075000854200D22846002106E026685D5C35709F
:1007600025686D1C491C25608142F6D32168002054
:100770000870104670BDFFB589B00646079000208E
:10078000089013780F46541C0798801B401CB842F1
:1007900061D2252B05D03A46314607A800F024F94E
:1007A00055E025780021641C302D09D12078641C87
:1007B000002850D03038092800D8C1B22578641CF0
:1007C0006C2D01D0682D02D108952578641C692D07
:1007D00021D008DC002D3ED0582D24D0632D40D0F0
:1007E000642D06D117E0732D40D0752D1BD0782DC8
:1007F00019D02520009084A33A46314607A8FFF778
:10080000A0FF2B463A46314607A800F0EDF802203B
:1008100087A3009016E00C9A01CA0C920022009166
:1008200001AB0A210AE00C9A752D01CA0C92F5D091
:100830000091582D13D0002201AB1021FFF73EFF8D
:1008400001AB00903A46314607A8FFF77AFF2378BC
:10085000641C002B98D107980DB0801BF0BD0122BD
:10086000EAE70C980378001D0C9094E70C9820C8D8
:100870000C90284600F0B0F82B460090E2E710B547
:100880006C4A00201168002904D0084649681160AC
:100890000021416000F08FF86648001F4068002882
:1008A00008D00468204600F097F80146624A2046C6
:1008B00001F04BFF10BD0FB470B5C0B0FF2145ABC8
:1008C00068460131449AFFF756FF0025684600F05C
:1008D00083F8461C032108205BF75CF804002BD04A
:1008E000032130465BF756F8206000280FD0694698
:1008F00065600BF073FEEFF31081012080F3108828
:100900004C4A0123121F5068002804D004E02046FE
:100910005BF7BBF810E01370464A002802D1146060
:1009200005E010464268002AFBD14460656000295A
:1009300008D0012080F3108840B070BC08BC0120B2
:1009400004B018470020F5E701463CA0B3E770B5B6
:10095000384C0025241F21782046012640780029A4
:1009600010D0002802D100F0AEFA6670606800680E
:1009700000F032F8014660682F4A006801F0D4FEAA
:10098000257070BD0028FCD060680028F9D12C4883
:1009900041698906C90F08D040694006C00F04D0DC
:1009A00000F06DFA6570A57070BDA67070BD21482D
:1009B000001F8078704710B5040003D0206800281D
:1009C00002D002E0002010BD00BE5BF75EF82046BA
:1009D0005BF75BF8012010BD0146002000E0401CE1
:1009E0000A5C002AFBD1704710B50468611A491CE3
:1009F000914201D3002010BD23700168491C0160A1
:100A000000200870012010BD464154414C3A207529
:100A10006E737570706F72746564207072696E7435
:100A200066206368617261637465723A2000000039
:100A30002E0A0000D02DFD077F08FC07257300005B
:100A400000110050F8B503460C4601201546002160
:100A50002B4E0246412B3BD00ADC012B16D0022242
:100A6000072B26D0402B23D12078022824D32AE03C
:100A7000422B33D0432B37D0442B19D12078002878
:100A80001AD01F48407B2870227010E006221D49B2
:100A90001D485DF72FFB0627002802D006221A49C1
:100AA00001E00622B11C28465DF700FB27700020FC
:100AB000F8BD2078022802D221700420F8BD3078D9
:100AC0002870707802E0307A2870707A6870DBE7FE
:100AD00020780028F0D00A48807AD4E720780028CF
:100AE000EAD00748C07ACEE720780028E4D0307BEF
:100AF000C9E70020704701207047012070470000BF
:100B0000B0C6FC0790E1F107FC2DFD0770B5022887
:100B100001D003283CD198490B69042213430B618F
:100B200005242407618A202399436182218A0223B4
:100B300019432182914D0F2669781023090236024C
:100B40000228608A25D018436082608A1043608240
:100B5000208AB0430843208268682288C01C80082D
:100B600080210A4322800022521CD2B20A2AFBD3DF
:100B7000628A1A436282824A401E506120888843FA
:100B8000208003205AF79EFE002809D00120E8703B
:100B900070BD98436082208AB04308432082F0E70A
:100BA0000020E870208A218AB04309052A78090FBD
:100BB000114309020843208270BD08B50F236F4C12
:100BC00070497148A37004276370814201D30823E0
:100BD00023E06F4D6B4E6D4A7519914205D38542E6
:100BE00001D23B4619E00C2317E06A4EB14209D30B
:100BF000954201D2022310E0854201D206230CE087
:100C00000E230AE0B54201D2012306E0954201D24B
:100C1000032302E0854200D20723237000F0D2FABA
:100C20000526360713E000200090142000F084F918
:100C3000042168464CF7DEF9002801D000F048FA9C
:100C400006F05AFA002802D1FFF781FE0BE0308946
:100C5000000608D501208007006B000403D44E482D
:100C60000078C0070BD006F064FA0028EFD172B606
:100C700006F07AFA02F0F0F8042807D00BE05BF7F0
:100C8000ACFB464800780428DAD1CCE74448007829
:100C900001280ED0032069460546087006F068FA60
:100CA00069460870002806D0FFF781FE002829D188
:100CB00004E00220EFE7FFF77AFE23E0022D04D0E4
:100CC000032D02D0012D1CD01CE0284600F01CF89A
:100CD000B08A800602D533490820088030BFE0780A
:100CE000002807D03048006801898AB24168032093
:100CF0005AF7C2FD06F052FA1F480169B943016173
:100D000000E030BF62B6A2E738B505242407218A87
:100D10000422114321826946087006F029FA6946C7
:100D20000870FFF7F3FE6946087806F031FA694665
:100D30000878022801D003281CD11C484188FF22D2
:100D40000132914341806188194A11804188012212
:100D500011434180002000900099491C0091142902
:100D6000FADB618989088900491C6181618949062A
:100D7000FCD5608038BD000000ED00E0D42DFD07FB
:100D80000000F407F8E2FC070000FD0700C0FC07C4
:100D90000C0100000080FC075877FD07442EFD077A
:100DA000B477FD07003300505876FD07200000504F
:100DB0004A2EFD07704770B50D46002441F7DBFD54
:100DC0002855641CE4B2202CF8D3002070BD10B567
:100DD0005DF75AF910BD10B55DF75FF910BD7047AA
:100DE00070470749884200D000BE05210907488A9C
:100DF000012280088000D20310434882704700001F
:100E00001111111148480178002902D08021417048
:100E100070474649002008704549C87070474249EC
:100E20000A78002A03D000280CD002200BE000280A
:100E300001D0022000E001203C4908703C4901201B
:100E4000C87070470120803048707047002805D076
:100E5000012804D0022804D10120E0E7D2E70020D5
:100E6000FBE77047314900200978002904D00129A7
:100E700003D0022900D102207047012070472A4880
:100E80008178002904D0491E0906090E817019D104
:100E900042780021002A04D09207920F027041701C
:100EA00004E00278002A01D0521E02701206120ECF
:100EB000017007D0012A03D0022A03D10120AEE736
:100EC0000020FCE7704700B5174A9078401C9070EE
:100ED0001078002805D1FFF7C5FF431CFFF792FFEC
:100EE000137000BD10490120C87070470E490020E2
:100EF000C87070470C48C07870470020EFF310812D
:100F0000012282F31088052212071289120605D4E5
:100F10000848028901231A4302811846002900D09B
:100F2000012181F310887047DC2DFD07B477FD07A0
:100F30005877FD070033005070B5E34D04466878DC
:100F4000002822D0E14801884907FCD4C188808864
:100F500009040E18DE492046484331465DF72CF857
:100F6000002169706861B00121465DF725F8A8612C
:100F7000D84800234443E0170105220B1143200504
:100F800032460BF0FBFAE962A86270BDCF49488097
:100F90000888032210430880088804221043088030
:100FA000C94901204870704770B5052109070889B3
:100FB00030229043088108898023184308810889DA
:100FC00080088000401C088108890822104308819D
:100FD000C14804881C4304804C8A94434C820D8988
:100FE000402425430D810D8A0426B5430D828D8A48
:100FF000AD07FCD5B44EAA2535618588F026B543EA
:10100000B0358580858803263602B543858085887E
:101010002D092D01858085880126B60235438580FE
:1010200085887600354385808588760035438580C0
:101030004D8A95434D8202885208520002800288F0
:101040009A4302800A89A2430A814089800503D518
:10105000A149052060318880012080070168821540
:10106000914301609D4801683F225202914342141E
:1010700089180160016802031143016070BD10B559
:1010800097485BF737FA10BD10B593494888C006FA
:10109000040F488801221043488048881E2290434C
:1010A00048808A484B0143800523038003885B07FF
:1010B000FCD480884B88934314334B804B885B0867
:1010C0005B004B804B889343620013434B8010BD01
:1010D00070B584490120C863C86B0028FCD1012089
:1010E0008007C069784C0021E268904200D2E1603C
:1010F000A2780125002A04D0A170E060FFF7C4FFA8
:1011000011E0E1681922411AD201914211D3E06045
:10111000FFF7BAFFA188884201D9411A00E0091AF5
:1011200089B2182905D3A0800BF08EF9002800D1D0
:10113000A57070BD10B56449496948436A495CF7B8
:101140003BFF10BD10B560490122D203896990426E
:1011500005D30BF086FA8905800A084310BD484381
:10116000800A10BDE6E7EDE71FB5684601F0B2F969
:10117000009841F706FC1FBD534B00201978002949
:101180000DD058490122CA63CA6B002AFCD1012143
:101190008907C969554A1268914201D201207047F6
:1011A0000021197070470020704710B55049002089
:1011B0000860FFF764FF01208007016B49004908C0
:1011C000016310BD70B540490120087049490820ED
:1011D000088040F7BDFF00F09BF800F0ABFB00F08B
:1011E0003EF83D4C20898004000F07D120890F2153
:1011F00089028843092189024018208106F002FFF4
:10120000012041F7BEFBFFF7CFFE3B48006841F7E6
:1012100051F83A480025C570057101208007016822
:10122000821511430160FFF79FFF1420FFF7AEFE08
:101230001420FFF781FEFFF7E5FD04F064FC05F0E4
:1012400034FFFFF7B2FF05200007C5826088E02168
:101250008843A030608001200BF020F970BD38B5C4
:1012600027480021016005242407638A4022134394
:101270006382638A934363824161224A82620122CC
:101280001204C262208880252843208000910098A3
:10129000401C00906428FADB002000F095FC0A480E
:1012A000062219491C305CF701FF184801880648DE
:1012B00001811649891C0988418100F075FC20884C
:1012C000A843208038BD0000E02DFD070016005027
:1012D0000024F4001027000020000050000200400D
:1012E000E2040000C000004040420F0098DBFC0711
:1012F000AC76FD07003300504C76FD075877FD07AC
:101300000000F407204F101AA8FFF80710FEF80796
:1013100010B50AF04FFF302219491A485CF7C6FE93
:101320001949002008701A4A184911601A4A1949C7
:1013300011601B4A194911601A4A0A2111701A4991
:101340001C4A087019493220087019491220086097
:1013500001211160184908601849132008601849D4
:101360001420086017491520086017497620086086
:1013700016499420086017491548086010BD000000
:1013800058ECF107FC76FD07F976FD0700C9FC076C
:101390005076FD07C0C6FC075476FD0744C8FC071D
:1013A0005876FD07B476FD07B576FD07DD76FD07B7
:1013B0005C76FD076076FD076476FD076876FD07BD
:1013C0006C76FD077076FD074876FD074476FD07CD
:1013D000005CFD074C76FD070843012189030346A5
:1013E0000B4341490B80414B1843088009200243BD
:1013F0004A8070473C490A880F239B0100079A43A3
:10140000800D02430A807047374839490288022319
:101410001A430280491E02D302889207FAD400219F
:101420000181408970470AE000BF00BF00BF00BFD4
:1014300000BF00BF00BF00BF00BF00BF00BF401E15
:10144000F2D2704770B50222510204464E00304677
:10145000FFF7C2FF1420FFF7E6FF002C01D00920A0
:1014600000E00720FFF7C6FFFFF7CEFF054601208B
:10147000FFF7D9FF022200213046FFF7ADFF002C15
:1014800001D0092000E00720FFF7B4FFFFF7BCFF01
:101490004019154A0021118070BDF0B5124C154855
:1014A00020801420FFF7BFFF01256D02A580E58095
:1014B0002088E9000843208020888E10B0432080D7
:1014C000FFF7A2FF0746208830432080FFF79CFFEC
:1014D0000246780071424018281A52005118691AC1
:1014E000A080E180F0BD0000001500500140000028
:1014F000A086010001480000444910B5884201D986
:10150000642010BD4249411878290BD86321090194
:10151000401A000479215CF765FD48214843001416
:101520001C300FE03A49E0314118DF290CD8552131
:101530000901401A0004E0215CF754FD18214843DA
:101540000014001DC0B210BD32494118DF2908D86F
:1015500047210901401A0004E0215CF743FD801394
:10156000F0E7002010BD2B4910B54942884209D34D
:1015700049424018642148434721C9005CF732FDC5
:10158000C0B210BD002010BD10B52349498989059E
:101590000BD5FF21B131884205D3FF386421B13822
:1015A000484389000AE0002010BD55210901884206
:1015B000F9D3401A64214843FF2161315CF712FDE1
:1015C000C0B210BD10B50446FFF767FF032C11D160
:1015D0001148408980050DD50120FFF733FF80B207
:1015E00000F013F8012C07D0022C08D0032C09D0EE
:1015F000002010BD0020F0E7FFF77EFF10BDFFF7D1
:10160000B2FF10BDFFF7C0FF10BD7047A906000074
:10161000CFF9FFFF8FFBFFFF20000050FCB5818B4F
:10162000002900D100BE0178BF4B09010C3BCB184B
:101630009E46BD4BBC4A0A3BCB180193BA4B8A1855
:10164000083BCB189C46B84B9B1FCE181B1DCB18D4
:101650000093B54B1B1FCC18118849084900118015
:1016600041788378057A194383792B431943C379E9
:101670001943437A19434389194383891943C38919
:101680001943438A19431180037C0F2B40D0A6498C
:1016900002787431002A06D0012A04D0022A0DD023
:1016A000032A1AD10AE0EFF31082012585F310888E
:1016B0000D882D092D010AE001220CE0EFF31082C4
:1016C000012585F310880D88F027BD431B011D43BC
:1016D0000D80002AF0D182F31088EFF310820123ED
:1016E00083F310880378012B0DD0022B01D0032B3C
:1016F00009D10B88057C1B071B0FAB4203D10B885C
:101700000F252B430B80002A24D0012181F3108860
:1017100073464169826919800B0C01990B806146FF
:101720000A80110C31808188002915D0491E218042
:10173000818B009A491E118082787C49002A00D052
:10174000026A0378DB00CA50426A0078C000401881
:101750004260FCBD0021D9E7818BE7E710B5017835
:10176000714B0901704A704C083B8A18CB18A41FB2
:101770000C19118849084900118081691980090CE8
:10178000218082786949002A00D0026A0378DB0050
:10179000CA50426A0078C0004018426010BD624AD8
:1017A0000001121F80180180704718B55E4B0201BE
:1017B000D2180823012907D0108840084000108063
:1017C00010889843108018BD148869460C800C88D6
:1017D00001210C4369460C805449C0000858002878
:1017E00003D069460888184308806846008810803E
:1017F00001204F490005086018BDF8B58C46012747
:101800004B493F0580310F60484CC600A559002A5E
:1018100003D00021A151FFF7C8FF002D03D03019DC
:1018200040686146A84742480760F8BDF8B53E4F9A
:1018300074377E880025012463E0F0075ED03A48C3
:101840002901001F0B18801C374A081889181A88AC
:101850000088824204D10888000601D4012000E0FB
:101860000020B98884462046A8408143C20701D0A1
:10187000002238E0820701D5012234E0420701D579
:10188000022230E0020701D503222CE0C20601D576
:10189000042228E0820601D5052224E0420601D573
:1018A000062220E0020601D507221CE0C20501D570
:1018B000082218E0820501D5092214E0420501D56D
:1018C0000A2210E0020501D50B220CE0C20401D56A
:1018D0000C2208E0820401D50D2204E0420401D567
:1018E0000E2200E00F22204690400143B980188864
:1018F0006246401C81B22846FFF77FFF6D1CEDB2A7
:101900007608002E01D0082D97D3F8BD064A0101B4
:10191000921C8918098801226FE703490001891C7C
:1019200040180088704700000C3600507425FD07F1
:1019300000E100E0FEB50020964E0346282200217B
:10194000424392198C00491C13510A29FADB401CAE
:101950000428F3DB06F0ECFA8E4800220838026017
:101960004260154600248C486900475A0120A04077
:1019700080B207421CD0282068438019A10040583B
:10198000411C19D0002810D0C11722465CF7D2FBA9
:101990002A015CF7CFFB7F4B083B1A685B6810435A
:1019A0007C4A1943083A10605160641C0A2CDDDB44
:1019B0006D1C042DD6DBFEBD0095019400BEE3E74F
:1019C000F8B5164604460D460A461F46012000217A
:1019D0005CF7B0FB22015CF7ADFB6E4B083B1A686D
:1019E0005B6810401940084300D100BE032C00D1B1
:1019F00004246A4960014018690008183E43C68003
:101A0000F8BD70B504460D460A46012000215CF77A
:101A100091FB22015CF78EFB5E4A083A136852681C
:101A200018401140084300D100BE032C00D104240B
:101A30005A49600140180121A940818070BD70B5EC
:101A400004460D460A46012000215CF773FB220183
:101A50005CF770FB4F4A083A13685268184011400F
:101A6000084300D100BE032C00D104244B4960017F
:101A700040180121A940418070BDFFB581B00C46DE
:101A800005460A461F46012000210A9E5CF752FBCC
:101A90002A015CF74FFB3F4B083B1A685B6810401C
:101AA0001940084300D100BE002E2146284602D02E
:101AB000FFF7C5FF01E0FFF7A4FF3B46214628469C
:101AC000039AFFF77DFF05B0F0BD70B504460D46E3
:101AD0000A46012000215CF72DFB22015CF72AFB5E
:101AE0002C4A083A1368526818401140084300D144
:101AF00000BE032C00D1042428496001401800884E
:101B00000121A940084000D0012070BD70B501241A
:101B100021460A3881400D4688B200F02AF88440F8
:101B20001F48C189A9430C43C48170BD10B5044648
:101B30000A3804280BD82046FFF7E8FF1549A00013
:101B4000A03140188038806D002801D0804710BD3A
:101B5000E106C90E012088401249086010BD0A2024
:101B6000E4E70B20E2E70C20E0E70D20DEE70E20A3
:101B7000DCE700280BD0411E4840C003010C0020C8
:101B800002E04908401C80B20029FAD170471020B9
:101B900070470000A025FD075AC9FC07003000501F
:101BA0000014005080E200E00520000700880006D5
:101BB00000D400BE0E4801884907490F012900D012
:101BC00000BE002101607047052109070988090648
:101BD00000D400BE06490A88520700D000BE002883
:101BE00002D0FF20023000E00120086070470000B2
:101BF0000000F4078307FF22DB0E9A408907090ED5
:101C0000994000280BDA0007000F08388308C54800
:101C10009B001818C36993430B43C3617047830843
:101C2000C1489B001B181868904308431860704710
:101C30000122BE489104016049000160EFF3108168
:101C400082F31088BA488388120293438380C38842
:101C50009343C380002903D0012080F3108870478C
:101C60000020FAE7F8B50446FFF7E2FF204600F04F
:101C7000FFF8EFF31080012181F31088AC4DA988A3
:101C80000122520291432279D207920D1143A98079
:101C9000002800D0012080F310882079FF2601362B
:101CA00001281AD1E07B002800D10820EFF3108230
:101CB000012181F31088AB8869460B8009880B0AE3
:101CC0001B02034369460B80088830430880A880C4
:101CD000002A29D0012080F310886279617C207C61
:101CE000636900F0E5F8A179607900F0FBF8EFF3A3
:101CF0001081012080F31088EA88684602800088FD
:101D0000020A12026846521C028002883243028094
:101D1000EA8000290AD0012080F31088A079854F3D
:101D2000854D012804D01BE00020D4E70020F3E714
:101D30000120A16866794003B94201D9801004E00E
:101D40007E4A914201D901200003484364215CF797
:101D500033F9002E0BD06968090E0906014369604A
:101D6000A16862790020B94207D9032009E0A96877
:101D7000090E09060143A960F2E7704B994200D9A8
:101D800001202968002A08D0302291430001014334
:101D900029606079002805D007E0032212049143EE
:101DA0000004F4E7A07900283CD000202A68400312
:101DB000012149038A43104328606079002833D009
:101DC000A079002830D000202968400002229143E9
:101DD0000843286028680321090788436179890737
:101DE000890808432860286851038843217BC90774
:101DF000490C08432860286804218843617BC9078F
:101E0000490F08432860286880218843A17B002966
:101E10000CD00021C901084328602868012108432B
:101E20002860F8BD0120C1E70120CDE70121F1E7DD
:101E30001FB543480168002909D000200090019097
:101E40003D480C300290001D0390684688471FBD36
:101E50001FB53B480168002909D037484269009204
:101E600080690190002002900390684688471FBD5A
:101E7000F8B5044602790326002536020078617819
:101E8000012A00950ED01F230022FFF7F6FD60798E
:101E900000950028E178A07807D01E233246FFF78E
:101EA000ECFDF8BD1F233246EFE71E230022F6E7C4
:101EB00070B5234C002812D023601C4C2148803C74
:101EC000002A07D00125AD0405601220FFF792FE1D
:101ED000256070BD0125ED0405601320F6E70020A4
:101EE000206070BD144A4023012909D00028908B3E
:101EF00010D0C008C000401C9083908B984307E02E
:101F00000028908B03D0C008C000801CF4E7184361
:101F10009083704718439083908B38218843083012
:101F2000F6E7000000ED00E000E400E080E100E002
:101F3000401C0050007701000040005080BB0000B2
:101F40005426FD0780E200E010B5454C6168002989
:101F500000D100BE207800280CD00220FFF7DDFC65
:101F60006168884761884018401E81B20220FFF7EF
:101F700016FC10BD3B488089C00700D000BE384C1D
:101F80000834A08B8847A0612046FFF7E7FB0121BA
:101F90000220FFF70AFC10BD10B504464169304825
:101FA00086B04160A17901702189418061896846CC
:101FB0000180A18941800122027100214171827159
:101FC0002069029068460173417382730522C273CF
:101FD0000174032242740591FFF744FEA188206832
:101FE00000F011F81E48012108300078FFF7DDFBF2
:101FF00006B010BD1A4810B508300078FFF786FC0F
:10200000FFF716FE10BD10B5154A022308321370F3
:10201000154B53610023D37120241472042454708F
:10202000124C14620124E40294810324D38124021B
:1020300054810924147410249471082494705362F8
:102040005382131B1C78002C00D08024547291837F
:1020500090615888908002480830FFF7DFFA10BD81
:102060005826FD072036005014400050491FFC0739
:1020700010B54C4841780078FFF7C3FC10BD10B58F
:10208000484841780078FFF7DAFC10BDF8B50E46F5
:10209000154644490278079F0A7040781C464870EC
:1020A000FFF7EDFF0520000781880122D2021143CE
:1020B00081803D4801884908490001800188FF224C
:1020C00081329143F2011143018001884022914302
:1020D000AA0111430180018804229143A200114307
:1020E0000180018802229143069A52001143018027
:1020F0000188012292039143BA03114301800188B0
:1021000018229143089AD2001143018001880122CC
:1021100011430180F8BD24490A88520852000A8000
:102120000A88FF2381339A43C00102430A8008884A
:10213000012210430880704710B51B4801884908E8
:10214000490001800520000781880122D2029143C5
:102150008180144841780078FFF771FC10BD10B5FC
:10216000114900230A88D205920F012A01D9040CD3
:102170008C80488008888004FCD50120C880012A12
:1021800001D9888803044888C01810BD10B50446DA
:10219000FFF76EFF2046FFF7E2FF0446FFF76FFFF1
:1021A000204610BD8826FD07001200509D4AD160D0
:1021B0009060704710B50120FFF7ADFF05200002C9
:1021C000FFF7E4FFC0B210BD70B50024964DFFF7D5
:1021D000F1FFC00704D0641CAC42F8D30020C04318
:1021E00070BD70B5FFF7F0FF002815D1FFF793FF22
:1021F0008D4E00250620FFF7C9FF0024FFF7DAFF08
:10220000C10703D1800701D5002070BD641CB44212
:10221000F4D36D1C322DEDD30020C04370BD70B5DA
:10222000FFF7D2FF002811D1FFF775FF7E4E002582
:102230000420FFF7ABFF0024FFF7BCFF800707D0A7
:10224000641CB442F8D36D1C322DF1D30020C0437E
:1022500070BD70B5064673480D46806851198142BD
:1022600001D9441B00E01446FFF7AEFF00281AD145
:102270000220FFF750FFFFF7FBFE03212846090667
:102280000843FFF76CFF0020FFF745FF002505E03E
:102290000020FFF764FF30706D1C761CA542F7D359
:1022A000FFF7EDFE204670BD70B505465D480E4651
:1022B000C0681446824200D984B2FFF785FF002827
:1022C0001ED1FFF78EFF00281AD10220FFF723FF4F
:1022D000FFF7CEFE0121304649060843FFF73FFFD6
:1022E0000020FFF718FF05E028786D1CFFF737FF87
:1022F000641EA4B2002CF7D1FFF7C1FEFFF764FF04
:1023000070BD70B50D460446FFF76BFF002802D084
:102310000020C04370BD0220FFF7FDFE28062043C9
:10232000FFF734FFFFF750FF70BD70B50D46044650
:10233000FFF757FF002802D00020C04370BD0220E5
:10234000FFF7E9FE28062043FFF720FF002070BDBD
:1023500010B50024FFF738FF002811D10120FFF746
:10236000DAFEFFF785FE09200003FFF7F8FE0020E4
:10237000FFF7F5FE0020FFF7F2FE84B2FFF77FFEC5
:1023800020B210BDF7B582B0264F0E460091F96815
:1023900014460D4630465BF70FFE401C6843451E51
:1023A0000020FFF7B8FEB868801BA04200D20446A8
:1023B0002646002719E000988019A84202D9009803
:1023C0002E1A761C0298B2B2C0190099FFF76CFF62
:1023D000002803D00020C04305B0F0BD681C009069
:1023E0001048BF19C0682D18E61BA742E3D3384632
:1023F000F2E710B5FFF7E8FE002805D1FFF78BFEE6
:10240000B920FFF7C3FE002010BD10B5FFF730FE66
:10241000FFF735FE0020FFF77EFEAB20FFF7B6FE8C
:10242000002010BD8C26FD0780841E0005200007BB
:102430000188302211430180018803221143018069
:1024400070470520000701883022914301800188F0
:10245000890889000180704718490860704717484B
:102460000068002800D000477047154A13695B08D0
:102470005B00136153691B0E1B06401E034353612F
:102480009069000E0006906110690223984349008C
:10249000084310611069042188431061106901210B
:1024A00008431061704706488169090E0906816179
:1024B0000169490849000161704700009C26FD0739
:1024C00000E000E002480068002800D000477047A4
:1024D000A026FD07F1B55F4892B05F49044604901D
:1024E000088A0790892205200007028101225B4BA0
:1024F00052031A80028880231A43028002889208BD
:1025000092000280088A022210430882A41C00F074
:102510005EFA40F755FA40F759FA0020694601E0A3
:102520000888401C088008889128F9D34C48018805
:102530001191418810914B49CA880F920A890E92D5
:10254000C2880D92408B0C90474840880B90488879
:102550000A9000F04FF83F48002580B22B46844691
:10256000424861464180FF21818001210180C1886C
:10257000C907FCD10A460846049E275C365C7E40AB
:10258000F607F60F8E401643491CC9B2F2B208296D
:1025900005D112994A556D1C0021ADB20A46103082
:1025A000FF2680B2B600B042E6D95B1C9BB2022B7C
:1025B000D6D32949079808822D4900200880284849
:1025C000119901801099418026490F9ACA800E9A6C
:1025D0000A810D9AC2800C9A4283234A0B9850803C
:1025E0000A98488005200007028880218A430280DB
:1025F00013B0F0BD08B51A49002008804880194A78
:102600001C4BD380FF23D2331381C880C321518058
:10261000174A082111806946088003E06A4611883C
:10262000491C1180694609889129F7D369460880B9
:1026300003E06A461188491C11806946098891297E
:10264000F7D3694601E00888401C08800888912873
:10265000F9D308BD1001FC07E03000500002004033
:102660000024005060280050002600500035005023
:102670002020005080800000674B30B4664A6748D5
:10268000603309E0016800290CD0446825781560A2
:10269000491E641C12C00838998B8907C90FF1D1F3
:1026A00030BC70470021416053680224A34353604B
:1026B0008268002AF4D0816030BC0020104770B5D9
:1026C00005231B079C8840252C439C80524B9C89EA
:1026D0008025AC439C8107241C8100249C809E891A
:1026E0002E439E81060A9E80C0B218809A814A4875
:1026F000C03001809889A843988149490820086022
:1027000048490A6803231202120A9B071A430A6007
:1027100043498039086044490860404804760461B0
:10272000C4604460046070BD10B53C4CA260216080
:102730006060FFF7A1FF6068002805D0364948684F
:10274000022290431043486010BD10B5334B324C09
:102750009A6019605860304A603409E05968087816
:1027600010601868491C401E03C3083B002809D0AC
:10277000A08B8007C00FF1D1516802208143014333
:10278000516010BD00205860F6E710B522488168FE
:102790000907090F01291AD002291CD0042917D0D2
:1027A0000C2914D11D4A117E012910D14169090655
:1027B000C90F0CD00021D160116183885B085B00D8
:1027C00083805369002B02D001205161984710BDCE
:1027D00000F004F810BDFFF74FFF10BD0F490E4881
:1027E00009E002680B691A70CA685B1C521E0B6113
:1027F000CA60002A04D04269D207D20FF1D17047D3
:1028000000220A6143685B085B0043604B69002B50
:10281000F5D000204A61184700110050102EFD0726
:1028200080E100E000E400E080E200E08307FF22B6
:10283000DB0E9A408907090E994000280BDA000741
:10284000000F0838830851489B001818C369934348
:102850000B43C361704783084D489B001B181868E1
:1028600090430843186070474A480078002802D017
:102870000020C04370470120474900040860002041
:10288000704710B5FFF7DDFD052109078888414A2B
:10289000C30B104618D0414B1C88640714D511781F
:1028A000890710D51988022211431980198849080F
:1028B000490019804468002C05D0985E0421595EB7
:1028C0000A229A5EA04710BD8988C906FBD51178F7
:1028D000C907F8D0324901228A800A8880239A43A6
:1028E0000A8080680028EED0804710BDF8B5052426
:1028F0002407A58810263543A580294C002525816D
:10290000D2B262802A46D7000546FD40EEB255009D
:102910002D196E810E46FE40F6B26E82521C042ABC
:10292000F1DBE28903252D020004800FAA43000297
:102930000243E281E08A0904890FA843090208439F
:10294000E0820125A58017482E0406609806800EB7
:102950008030208029461020FFF768FF0D4801785D
:10296000294301700C4880380660F8BD0948017899
:102970004908490001700A480121818001888022AC
:102980009143018070E703498860704700ED00E0E3
:1029900000E400E0342EFD0780E100E0000200507A
:1029A0000001005080E200E000207047704770474F
:1029B00070470020704701218907086B07221043E8
:1029C00008637047704740087038C0B2704741498B
:1029D0003F480860414940484881414841880622B3
:1029E0009143891C41803F4A6321D1803E493B4A43
:1029F0000988603A11823D49098801803C48007885
:102A0000002802D03B4930200883704700B58BB0C6
:102A1000394A4262394A8262394A4261394AC2625B
:102A2000394A0260394A0262394A4260394AC2610F
:102A3000284A27480021106026484038426B1F234F
:102A40001B049A434313D218426333480268C312EB
:102A50009A430260026803139A4302606846415435
:102A6000491CC9B22829FAD301462C4828220068FB
:102A700040305BF71BFBFFF7AAFFFEF705FB284979
:102A8000088009F0E1FC0BB000BD10B511491048F9
:102A9000086010484038416B1F22120491434213D2
:102AA0008918416300060168C908C9000160052052
:102AB0000007018989088900491C018101890822D0
:102AC00011430181FFF783FF012009F0E7FC10BDEE
:102AD0004C05540780000040EBE6000060280050E1
:102AE00000260050002C0050EA2DFD07E82DFD07C0
:102AF000402EFD0700240050A929FC07AD29FC0742
:102B0000B329FC07B729FC07AF29FC07C529FC0737
:102B1000B129FC07C729FC07000200404C76FD07DD
:102B2000E42DFD07F0B5B64AD3785479C01AC3B284
:102B3000B448007D1EE0B34D0A26203D2D6B464370
:102B4000AD19AE78D5786D1CEDB2D570A54201D91E
:102B5000F7070CD1760604D09668651BAD19956011
:102B600005E015796D1C1571D5686D1CD560401C8C
:102B70004007400F1D465B1EDBB2002DDBD11079F4
:102B8000A04200D95071002902D00020D0701071ED
:102B9000F0BDF8B50125AD07AC6B2046FEF7E3FAB2
:102BA0009749994F0A6986180020086139463046CE
:102BB0005BF702FA954948603A465043301A00D014
:102BC000381A80B20860286B0821884308432863BC
:102BD0008F4804608F480068002802D0A04200D2CD
:102BE00000BEF8BD10B5FFF72CFC05200007418999
:102BF000890708D0418989088900418186494A8826
:102C0000520852004A800189802211430181018AC1
:102C1000042291430182818A8907FCD500F014F9CE
:102C2000012080070169490700D500BE01694907F5
:102C3000FCD510BDF8B5794F082038800526360739
:102C40007089800721D0B08A400701D505F0DAF9F4
:102C5000714D2888802108432880714CFF206080B6
:102C600004202080FFF7E2FB7D21C900E088A288D4
:102C7000000480188842F9D9052020806048C08867
:102C80007080298880208143298038894007FCD4BE
:102C9000FFF7A8FFF8BD70477047F8B50127584EF9
:102CA000BD072C69002C7DD0200606D58020A861A8
:102CB0004AF749F81420FEF769F9A0070BD502205E
:102CC000A8615848002100688030008EC0B2FFF72C
:102CD00029FF45F7FEFF200726D50820A8615248A6
:102CE0005221006864308088484350490968401880
:102CF000C030808B0121000AFFF714FF04F070FB45
:102D0000B07800280BD048480268243207D04032FF
:102D1000D07E002803D1D07F08210843D07700203F
:102D200045F797FF04203070E00505D5FF200130FE
:102D3000A861012045F78DFFA00504D501204002C0
:102D4000A8614AF769F8600603D54020A86145F7F5
:102D50007BFFE00603D51020A86144F7B0FB6007B5
:102D600026D50420A8612D48018949084900018120
:102D700059F796FB3FF7A0FC1420FEF707F9002057
:102D8000307025484089800512D5707800280FD111
:102D9000274877700088C0070AD10120FEF752FB50
:102DA0008B2100E015E08900884201D90220707073
:102DB000E00708D00120A86159F78EFB49F7C3FF4F
:102DC000377004F011FBA00600D46AE72020A86148
:102DD00067E7F8BD704710B51648C18840880A46B5
:102DE0000240D307064A01D003231370890703D595
:102DF000C00501D50220107004F0F7FA10BD0000E4
:102E0000442EFD070079FD077102000040000040DC
:102E1000602EFD07582EFD072000005000330050A3
:102E2000001600505876FD073879FD074C76FD07EF
:102E3000001500502020005010B53FF774FA5F488D
:102E400080685F49486010BD10B53FF798FA5C484C
:102E50005A494068886010BDF8B5002500F0A9F80F
:102E600000270090FEF746F8564E002802D1307930
:102E7000022801D100200090FEF77EF900280DD134
:102E800058F765FC002809D0F0780125002805D006
:102E900005200007808AC00701D0042587E030881C
:102EA00000287DD14848806A002802D000F081F8CF
:102EB0000090B178684659F755F9002877D0012479
:102EC000A4072069400672D43E48817868464AF7D4
:102ED00091F800286BD00099002906D0206AFF38AD
:102EE0003938DA2801D8491E00913848FEF73AF9F6
:102EF00005460646364812360078022800D11136BB
:102F000034484089800500D500BE3348FEF72AF9D1
:102F1000E16B281A890A89020143E163E06B2F49BA
:102F20000840B1020843E063E06BC002C00A6905D3
:102F30000843E0632A4B04250CCB002100985BF783
:102F400065F80903000D08431D49401E08601D492E
:102F50000979002900D0012146F721F82148C06AEB
:102F60008047FEF720F9002802D0FFF75FFA01271B
:102F7000206B0004C00FFBD010480168C905FCD5C8
:102F8000002F01D0FFF75DFA17494889462804D27F
:102F90004622164B101A18604A81FFF74DFF00E0D9
:102FA00005E0052000070189802291430181284620
:102FB000F8BD0F480068806A7047000000020040BA
:102FC000582EFD075877FD07787EFD071D0D000080
:102FD000B477FD0720000050540B0000FF03E0FF12
:102FE000082EFD07B47FFD0700330050542EFD0767
:102FF0005876FD07FFB58BB000241746169E159D29
:1030000074486A4600941084002904D0042201A860
:103010005BF74CF802E00020C043019001200199C9
:1030200007E00A460241D20701D0641CE4B2401C0A
:10303000C0B2B842F5D3182060430321183058F7C6
:10304000A9FC04460B9831460088208014986080C3
:103050004020014321711022A01D29695BF726F849
:1030600001266DE001983041C00767D03046142139
:1030700048430A90401909900079022804D0042896
:1030800013D010283DD055E0182102A85BF727F88F
:103090000A9828580178684601720A982858417899
:1030A00068464172099880681CE0182102A85BF705
:1030B00016F80A9828580178684601720A98285824
:1030C0004178684641720A9828588178684681722A
:1030D0000A982858C1786846C17209980121806809
:1030E00089040843069009988189684681831821DC
:1030F00000980A464843001902A918305AF7D6FF2B
:1031000018E00A9818222958009850430019029094
:10311000102218305AF7CAFF029801220146099876
:10312000D2048068283110435AF7FBFF099881893F
:10313000029881850098401CC0B20090761CF6B2BF
:10314000BE428FD30098607120464CF79CFE0290DF
:10315000002838D10B982188018000200126039097
:10316000012F30D901983041C00725D00398142190
:10317000401CC0B2039030464843411900918989F0
:10318000090419D40099C989002915D00099097931
:10319000022906D12858022208A95AF7ABFF0028B5
:1031A0000AD000982288C18903690398101880B258
:1031B00000224CF742FF0290761CF6B2BE4202D2C9
:1031C00002980028CED0204658F75FFC02980FB036
:1031D000F0BD000003280000FFB58DB0054616982D
:1031E00000270078401E012878D80121282058F7B0
:1031F000D1FB044628215AF772FF16980178204621
:1032000020300B908171002660E007206946087627
:103210000B98082241791698801907460590407846
:10322000B04001430B9841711699F0004118001904
:10323000001D091D5AF73AFF7878012805D1694623
:10324000087E08210843694608760B988079012892
:1032500005D96946087E10210843694608760E980C
:103260007100028809A80791425210981E2210404E
:10327000AB8A8030039009A80818BD4F0022694628
:103280008CC1052306AABB494DF7B5F9070018D133
:10329000079809AA115A05984078012801D0012001
:1032A00000E00020081A0E99401D0880059840781B
:1032B000012806D10798B049105A801C80B24DF7FA
:1032C00058F807206946761C0876F6B216980078FA
:1032D000B04205D9002F98D004E0FFE7812706E02F
:1032E000002F07D0002C02D0204658F7CEFB3846DE
:1032F00011B0F0BD2C6168460E99808C0880208347
:103300001098C00701D00120C0030F990843208006
:10331000A88A60802420E8820120E8811C34974834
:10332000AC606860A88A002158F7C5FDDFE770B57A
:10333000056904466869002801D058F7A6FB0020FB
:103340002061284658F7A1FB70BD00690022401893
:103350004277704700690022401842777047F8B5FD
:1033600005460C46242001F052FF0646203000217D
:1033700083790A46AB422BD9318B052709E0467980
:10338000D640F607F617BE1B7118491E521C89B2AB
:10339000D2B2AA42F3D3032C01D2081915E0032CB0
:1033A00002D0042C07D012E04079D040C0070ED0E4
:1033B000C91C89B20CE0012B09D94079D040C00763
:1033C000C0170422101A4018401E81B200E00021EC
:1033D0000846F8BD70B50C4615460646002101F0BA
:1033E0002BFF02462102C12009230001083158F7B2
:1033F000DFFB04461220207002212846FFF7AFFFB2
:10340000A0800120E0807019807E2072204658F74D
:10341000E8FB70BD56483C307047F8B50446164688
:103420000D46242001F0F3FE038B002280212A7038
:1034300020301EE09F1CBC4201D8E01A09E043790D
:10344000BFB2D340DB0707D07F1CBFB2BC4203D161
:1034500003203070002113E06346012B05D97F1C47
:10346000BFB2BC4201D10420F3E77F1C521CBBB2A7
:103470002A708779D2B2BC46BA4201D29C42D9D2D4
:103480000846F8BDF8B5242001F0C1FE0446FF202F
:1034900000906069092281889202914220D1027BCA
:1034A000009202460E32964622461A32D71C951DCD
:1034B000014694460C310FE00E780123F65D9340EF
:1034C0001E4207D07346D65C6346D35C9E4201D051
:1034D000097817E0521CEA71EA79022AECD31DE060
:1034E000274A91421AD1214602461D310C328C46A0
:1034F000CD1C10E06346CE5C17780123BB401E4212
:1035000007D0FAB22046FFF765FFE879401CE87162
:10351000F8BD491CE971E9790829EBD381880922B2
:103520009202002591420AD1C288018914480223DF
:10353000401E58F73DFB0099017045700AE0104AA3
:10354000914209D1C28801890D480123401C58F7D6
:103550002FFB057058F745FB606958F796FA002174
:103560002046656101F068FE002158F7A4FCF8BD13
:1035700064C9FC070F18000001020000E0C9FC0745
:1035800002240000FFB581B01F460C4602260398B6
:1035900058F7C3FC00282FD1242001F038FE05463F
:1035A0002078082804D851F76BFB9C49884212D137
:1035B000022339469A48039A58F7FAFA217801709B
:1035C0002178082901D9402100E08921417058F76C
:1035D00008FB002610E001263146039858F76BFCE3
:1035E0006178227828461D3011540C3C6C61002013
:1035F0002035E871FFF746FF304605B0F0BDFFB556
:1036000081B00C460226039858F787FC002826D183
:10361000242001F0FCFD05462F4620372078B9799B
:10362000884210D2617864290DD8BA1F81540126CE
:103630003146039858F73FFC0C3C00206C61F87150
:10364000FFF720FF0BE076480123801C039A0499C2
:1036500058F7AEFA8121017058F7C3FA00263046B8
:10366000CBE7FFB583B000256846057105701746A6
:103670000E4608886A4601A9FFF7CFFE04460623D6
:103680003A466848069958F793FA31880180002C29
:1036900005D169460978032907D0458003240471C0
:1036A00058F79FFA002007B0F0BD02214180F6E7ED
:1036B000FFB583B00F460020694608700871069870
:1036C00001AA040A3888FFF7A8FE060011D12420B9
:1036D00001F09DFD0546F879B97900020843694675
:1036E0000979032904D10121002810D0012816D01E
:1036F00080264C480423801E059A069958F758FAEC
:1037000039880180867058F76CFA0020CBE76B4649
:1037100028191B78427F99408A43427706E06B461E
:103720002A191B78507F9940084350772146284634
:1037300001F08AFD01463A480223C01C059A58F759
:1037400037FA04702919497F417058F74AFAD0E7CF
:10375000FFB583B00020694608700871180A02900E
:1037600004981C46008801AAFFF757FE064600256C
:10377000242001F04CFD0746002E08D16846007950
:10378000022814D0032814D0042814D080262548F9
:10379000AB1D2146001F059A58F70AFA0446049803
:1037A000002E018821802671658006D028E0012541
:1037B000EDE70225EBE70725E9E7684600790228EF
:1037C00004D0032808D0042812D019E068460078F5
:1037D0003818807E607113E0029869463818407F7F
:1037E0000978C840C107C90F6171090AA17107E0D2
:1037F00068460078C000C119601D091D01F038FC41
:10380000204658F7EEF900204DE710B50878122849
:1038100001D1FFF737FE002010BD0000FFFF0000C0
:1038200001240000180C000002468B880020022BA7
:1038300001D00D207047C988002A05D00029F9D091
:103840000129F7D0812070470029FCD00229F9D145
:103850007047F0B589B004464CF766FB0546002674
:10386000384F14E005A920464CF77DFB002301AA40
:1038700007A905A800964CF769FC68468088B842FD
:1038800003D1641CA0B209B0F0BD641EA4B2A88824
:10389000A04202D8E888A042E4D20020F3E7F0B5C5
:1038A0008BB004464CF740FB264F00260546FF37F9
:1038B0001BE008A920464CF756FB002301AA05A9E6
:1038C00008A800964CF742FC68468088B84203D1AD
:1038D0006946097D022911D01A49884203D16846F8
:1038E000007D022807D0641CA4B2A888A04202D898
:1038F000E888A042DDD200200BB0F0BD2046FBE7F7
:1039000010B50446382001F082FC82790021A242E1
:1039100002D98088001981B2084610BD70B50446EE
:103920000D46382001F073FC81888022A14206D820
:1039300080790818A04202D9601A28700022104627
:1039400070BD000003280000FFB504460F4618466E
:103950001E21084083B0A18A1D463F4A80300023C3
:103960000192009102900C2219463846FFF742FB63
:10397000060025D10121282058F70CF8206139884C
:1039800081800C218171E90701D00121C903059AC9
:1039900011430180A18A41803821E1820121E18126
:1039A00001462431A1602D49103061603FF7B2F823
:1039B0000C21294800F0A7F8A08A002158F77BFACB
:1039C000304607B0F0BD70B504690546264610368E
:1039D0002069002805D030463FF7A4F858F755F87D
:1039E000F6E700202861204658F74FF870BDF8B57B
:1039F000194D1B4E0F4601242046142148434119FE
:103A00000979022908D128580088B04204D1E1B2CE
:103A10000022384600F094F8641C0C2CECDBF8BD56
:103A2000F8B50D4D0E4E0F46012420461421484393
:103A300041190979022908D128580088B04204D1D7
:103A4000E1B20022384600F07BF8641C0C2CECDB61
:103A5000F8BD044870470000E4DBFC0728CAFC07F7
:103A600002290000E8C9FC07F7B507460D463820D3
:103A700001F0CDFB0646046910E02079B8420CD174
:103A80006079A8420DD030460022214610303FF721
:103A9000B9F8204657F7F9FF05E02468002CECD16F
:103AA00001E0002C0AD128460121083057F772FFA7
:103AB00004460146304610303FF750F827716571D3
:103AC0002A46A01D02995AF7F1FA0020FEBD70B5F2
:103AD000064614460D46382001F099FB03690BE0B9
:103AE0001879B04207D158792880981D2060002BA2
:103AF00004D0002070BD1B68002BF1D1002028806D
:103B000020600A2070BDFEB5054600200E460090DC
:103B10000124F24F019010E020461421484341193E
:103B20000979022908D128580088B84204D1E0B2A6
:103B30006A460821FFF798FF641CB442ECDBFEBD27
:103B40007FB50E461446054601AA69463046FFF782
:103B5000BEFF6846028802A801995AF7A7FA02A890
:103B600044550246684601883046FFF77DFF7FBD19
:103B70007CB5382001F04BFB84680546407B6A46E3
:103B800001A90C34FFF7A3FF00992DE0421C2A7312
:103B90006278002A0A5C02D0D20725D001E09207A1
:103BA00022D5A18808318BB2A968CA880102C12038
:103BB0000001083157F7FCFF06466078002801D065
:103BC000122000E013203070A88861884018B0806F
:103BD000A088F0803046A288A11D08305AF766FA06
:103BE000304657F7FEFF7CBD287B0828CED360788F
:103BF00000260028A868C288018907D00423B84895
:103C000057F7D6FF61880180867007E0B448062325
:103C1000801C57F7CDFF61884180067157F7E1FF9F
:103C2000A86857F732FF00212846AE6001F004FB78
:103C3000002158F740F97CBD10B50C46382001F042
:103C4000E6FA2078122801D0132801D1FFF790FF5F
:103C5000002010BD10B50C46382001F0D8FA80883D
:103C60006188A31D401880B2A18800224CF7E5F9B5
:103C7000002010BDFEB517460C46382001F0C7FAEB
:103C8000054680886188401886B2384658F745F95D
:103C9000012820D0A188A31D002230464CF7CDF981
:103CA0003046FFF7FCFD6946FFF738FE684601AA7B
:103CB00002A90078FFF70BFF0121384658F7FBF8FF
:103CC0000C3C0020AC602873684600786873FFF7EE
:103CD0004FFF0120FEBD0220FEBDFEB51E46174669
:103CE0000C46382001F093FA0546A1886088A31D90
:103CF00000224CF7A2F9A8886188401880B2FFF72B
:103D0000CEFD6A4601A94CF78CFA0098008802287B
:103D100010D073488B2506233A463146801C57F74E
:103D200047FF6188418021780170057157F759FF7D
:103D30000020FEBD207808230102C1203A46000180
:103D4000083157F735FF1321017061888180EDE755
:103D5000FFB589B00F460020694608740C9804A985
:103D6000060A3888FFF7DAFD0546002469468C828A
:103D7000382001F04CFA002D1CD1382003F03CF81B
:103D800043686846007C1422014651430A1D9A5C30
:103D9000022A0ED15958514A0988914209D16A46DE
:103DA00003A9FFF794FE00986946805D888202248B
:103DB00000E08025A31D4B480B9A0C9957F7F8FE9D
:103DC00006463888308035717480002D04D1224633
:103DD00005A9701D5AF76AF9304657F702FF00200F
:103DE0000DB0F0BDFFB585B00C46382001F00FFADC
:103DF000049000266846067008986946050A2088DF
:103E0000FFF78CFD07005AD1382002F0F5FF01467C
:103E1000476868460078142302465A43131DFB5C2A
:103E2000022B1ED1BA582D4B12889A4219D10196F5
:103E300002962088FFF70DFD01AB002203A94CF785
:103E400018FB039821468005C00FFFF7EDFC07061D
:103E50003F0E34D168460178E2882846FFF770FEAD
:103E600012E0002908D08E69002E05D0A288618852
:103E7000A31DB047070022D16288A1882088A31D16
:103E80004CF7DBF807001AD12946049801F0DCF959
:103E90000146A088079A801D83B21148C01C57F7BD
:103EA00087FE0546A288A11D801D5AF7FFF86846C7
:103EB00000786880A088A880284657F792FE0948B5
:103EC0000423801C079A089957F772FE2188018005
:103ED000877057F786FE002009B0F0BD0229000068
:103EE00005380000140C000030B503460120002105
:103EF00003241A46CA40D20704D04D0022466D1C46
:103F0000AA401043491CC9B20929F2D330BDFFB5FC
:103F100085B00E9F04461D463888FFF7E5FF0490E4
:103F200028461E210840A18A494A00238030019179
:103F3000009302920390132304AA464906984CF773
:103F40005AFB060022D10121202057F723FD2061D2
:103F500006990988018339884183E90701D0012145
:103F6000C903079A11430180A18A41801421E1828B
:103F70000121E18101461E31A1603749001D6160C8
:103F80003EF7C8FDA08A002157F795FF304609B0DB
:103F9000F0BD70B5046905466068002805D0201D95
:103FA0003EF7C0FD57F771FDF6E700202861204677
:103FB00057F76BFD70BD704770472548E430704778
:103FC00030B50446228B0920521C93B2648B002228
:103FD0002546D540ED0706D05D1C8D4201D1104627
:103FE00030BD9B1C9BB2521CD2B2092AF0D330BD0B
:103FF00010B50346008B5B8B401C80B200221C4630
:10400000D440E40706D0914202D1401C80B205E0C2
:10401000801C80B2521C52B2092AF0DB092A00D15E
:10402000002010BD02460020802901D98D20704754
:10403000062A06D0072A07D0082AF8D10729F5D181
:1040400070470829F2D170470629EFD37047000066
:1040500030CAFC070A1800003CCBFC07FFB581B052
:104060000C46142001F0D3F821780746092931D2F3
:10407000FFF7BEFF00282BD061782078FFF7D2FF32
:10408000060028D17D680DE028792178884208D182
:1040900000222946381D3EF7B5FD284657F7F5FCA6
:1040A00002E02D68002DEFD160780121083057F72C
:1040B00071FC054620782871607868716278A11CCF
:1040C000A81D59F7F3FF2946381D3EF747FD02E0CA
:1040D000822600E0812602235248039A049957F76A
:1040E00067FD21780170467057F77BFD002005B011
:1040F000F0BDFFB581B0002000900E46039857F741
:104100000CFF002802D001284CD04DE0142001F013
:104110007EF807463188FFF753FF05464248092DD0
:1041200036D27C6803E02179A94203D02468002CB0
:10413000F9D117E0002C15D06379039A9B1D0499DF
:1041400057F736FD054630882880002028716079B1
:1041500068806279A11D681D59F7A8FF284657F7A6
:1041600040FD21E03D770498010A7977384601F057
:104170006BF801462B480123401C039A57F718FDA2
:10418000057057F72EFD0121039857F794FE0BE0B9
:104190000623039A049957F70BFD3188018080218B
:1041A0000171DCE7022000900098A0E7F8B51746FF
:1041B0000D46104657F7B1FE012831D1142001F009
:1041C00026F80446017FFFF713FF0646217F2A7871
:1041D0001548914214D1617F6B7809023A46083143
:1041E0009B1D57F7E5FC0446068000202071687887
:1041F00060806A78A91C601D59F758FF204609E0C5
:10420000617F062309023A46083157F7D1FC068040
:104210008021017157F7E5FC0021384657F74BFE26
:104220000020F8BD01140000140C0000F0B5054694
:1042300037260020765D04468E4249D9172A47D298
:1042400016270E467E437619132A02D3F77D9F4226
:104250003ED9288E07E0162767437F19BF7D38189F
:10426000641C80B2E4B28C42F5D3132A35D2801894
:10427000B18880B2CB0709D10F2A02D9401F80B282
:1042800004E013460B3B042B00D800208B0709D415
:10429000122A02D9C01E80B204E01346103B022B42
:1042A00000D800204B0709D40A2A02D9801E80B208
:1042B00004E01346093B012B00D80020090707D46E
:1042C000082A01D9801E02E0012A02D9401E80B2CC
:1042D000F0BD012AFCD10020F0BD317E081800217C
:1042E00080B240240AE0C01CB78825468D4080B2C9
:1042F0002F4201D0401C80B2491CC9B29942F2D36E
:10430000162A03D1B1889C402142E4D18018133889
:10431000DDE7FFB597B0002005461590209F0121ED
:10432000382057F737FB0590002012901390089023
:1043300009900A900B903821059859F7D0FE3878EB
:10434000002801D0022800D981250020F7E01A2199
:104350004843C0190290C078082801D9812522E17C
:1043600002981621807882060498920E4843059997
:1043700044180F94A28002980321C078E075992018
:10438000800057F707FB02460498FD26810012A81B
:104390000E914250049A08ABD20014929E50A27D16
:1043A000D21DA2754058E422FB4959F77FFE0298BE
:1043B0008078000711D5149908A84158721D11433F
:1043C000149A81500F980F99807D801C88750298EF
:1043D00012A9028B0E9808588282029880784007B2
:1043E0000CD5149808A90A580320400202431498D7
:1043F0000A500F980F99807D801C887502988078EC
:10440000C00718D0149908A841581F22D20211439E
:10441000149A81500F980F99807D401D88750298DD
:104420008078C00607D50E9912A84058DB4A803024
:1044300041691143416102988078800718D5149929
:1044400008A84158072212041143149A81500F986A
:104450000F99807DC01C887502988078800607D5EA
:104460000E9912A84058CD4A8030016D1143016564
:104470000F980026817D017654E000201090149959
:1044800008A80818B400214613314A0993000D907A
:104490009C46C258CB06DB0E012199400A43634675
:1044A0002146C25014314A0993009C46C258CB069B
:1044B000DB0E012199400A4363462146C250153163
:1044C0004A0993009C46C258CB06DB0E0121994055
:1044D0000A436346C2500F980F99807D3022C01C5A
:1044E00088750E9812A909580C206043E43008180A
:1044F000A949E43159F7DAFD029880190179890751
:10450000890F012923D0022941D0032941D08125D7
:104510000E9812AA125830207043F4301099761C6D
:104520001150F6B20298C078B042A6D80F98817D9B
:1045300015980818C0B215900498401CC0B2049099
:104540003978814228D9002D00D100E72BE0944929
:1045500010911634610989000D9AE4065258E40E50
:104560000123A3401A430D9B5A500F990F9A897D3E
:10457000491C91750F998A884021B1400A430F99CF
:104580008A800079C006C3D586481090C0E7864867
:10459000FBE78248401CF8E7002D04D115991898D4
:1045A0004CF7B0F805461898694600888883189833
:1045B000018805980186059839782030C17500205A
:1045C0006946087604466CE01A981E210840A2004D
:1045D00012A9179B89589B8A803000220291039070
:1045E0000092E10008A80A18019333236F4907A835
:1045F0004CF701F8054616200599604340180090D5
:104600006946807D898B401869468883002D20D1BA
:104610000023032221460598FFF708FE1A21614373
:10462000CE1933461433002204214BF706FD050052
:104630000FD1B07800070ED5002308222146059837
:10464000FFF7F4FD33461A33002202214BF7F5FC45
:104650000546002617E0002617E08019027B694610
:104660000A76007933468007800F48761522214666
:104670000598FFF7DBFD06AB002202214BF7DDFCBE
:10468000761C0546F6B2002D06D120461A21484375
:10469000C019C178B142E0D801200099641C487665
:1046A000E4B23878A04202D9002D8DD001E0002D6F
:1046B00013D00598002801D057F7E7F9002412AE6F
:1046C000A0003058002801D057F7DFF9641CE4B28D
:1046D000022CF5D328461BB0F0BD17990598086148
:1046E0001A98C00701D00120C00319990843059901
:1046F000088017980599808A488017982621C182DA
:1047000017990120C8810598179936308860179845
:104710002749416017980021808A57F7CCFBCDE7E5
:1047200010B5002201690261084657F7AEF910BDC5
:10473000704730B502690020490013460446203313
:1047400006E016254543AD186D18401CEC80C0B23C
:10475000DD7D8542F5D830BD16487047F0B580251F
:10476000AC46048E17251D700025064615702036B0
:1047700009E016276F433F18BF7D3F198F421BD8B2
:104780006D1CBCB21570F77DEDB2BD4201D2A142E5
:10479000EFD26046F0BD000044CBFC0708000200E9
:1047A0000102000009020200098002001218000044
:1047B000A8CCFC0758CCFC070025059EAC462F462C
:1047C00035701578162675432E18357E2D198D42B5
:1047D00038D9A14201D11F70DBE7B288100705D597
:1047E000641CA4B2A14201D1012041E0E41DA0B2A9
:1047F0000824814202D8401A201A39E0150705D54D
:10480000401C80B2814201D11C70C2E7540706D51A
:10481000801C80B2814202D8401A0B2110E0D407DC
:1048200006D0401D80B2814202D8401A102107E014
:104830009207AED5C01C80B28142AAD8401A13217B
:10484000081A15E0059EACB2377016E0E41CA4B25D
:10485000A14203D8611A1620401A09E0B788402601
:10486000AE40374206D0641CA4B2A14202D1162049
:1048700018708EE7059E6D1C357016781627059DFD
:104880007E4336182D78F77DBD42DFD381E7F3B53F
:1048900083B00C46262000F0BAFC00258446019522
:1048A000607817222F462E46002804D002280BD00D
:1048B000042810D10CE021794020884014222D27B3
:1048C00086B20120019006E00C220827012602E0B2
:1048D000112208270226237921786046FFF7A6FCDB
:1048E0000090002804D06088B84217D98D2549E08F
:1048F000002E11D0614620312078C97D88420BD22C
:104900001621484360442279C17D8A4204D28088BE
:10491000304201D18C2535E0812533E02078162105
:1049200048430399604449004118C988314201D184
:104930008A2527E0427E01998A4204D00079400707
:1049400001D589251EE06046039900F075FC0246FA
:104950006088083083B203980102C1200001083149
:1049600057F726F90646122030700098B08060880C
:10497000F08030466288611D083059F797FB304659
:1049800057F72FF9284605B004E7FFB50746002082
:1049900081B0044600901646262000F038FC0546FB
:1049A0000D2E08D0122E08D0162E07D104984021C3
:1049B00081408CB202E0012400E002240298162219
:1049C0000A997E005043002904D0012907D0802095
:1049D0000090D8E740198019C188A14303E040192D
:1049E0008019C1882143C1803946284600F024FC43
:1049F00004463946284600F027FC01460623224695
:104A00000B4857F7D5F8014607700020162242439D
:104A10004300521992195B18401CD288C0B25A80C8
:104A20000228F3D3084657F7DCF80098ABE70000FC
:104A300008260000FFB581B00D460026262000F0B4
:104A4000E6FB04462878082807D850F719F9FC49EE
:104A5000884206D12878082801D9402614E0892602
:104A600012E00022204620300BE0510049194B880B
:104A700016212F78514309197F00C919521CCB8088
:104A8000D2B2C17D9142F0D80223EE48039A049934
:104A900057F78EF829780170467057F7A2F8002072
:104AA00005B0F0BDFFB581B00D460027039857F75C
:104AB00034FA0446C00702D002273846F0E72878C7
:104AC000082807D850F7DCF8DD498842287805D156
:104AD000082801D9402606E0892604E0A91CFFF732
:104AE000D6FE06000CD0D7480223801C039A0499F6
:104AF00057F75EF829780170467057F772F8DCE7CF
:104B0000012004432146039857F7D5F9D5E7FFB5AF
:104B100083B00D46059857F700FA0190800771D5CC
:104B20008026262000F073FB0446A878002803D0D6
:104B300006463320005D29E0274620376978F87C57
:104B4000814223D12978BA7C91421FD16879002211
:104B5000030059F7FFFA050406080A0C0D00142299
:104B600006E0072204E00C2202E00F2200E01122FE
:104B70002B7A29792046FFF759FBA18E814204D177
:104B8000F87C0026012810D002E0F87C01280ED025
:104B90003220005D04230102AB480831059A57F723
:104BA00007F8A18E018086701DE0E88800E00020F3
:104BB0000090801D83B23220005D059A0102A24858
:104BC0000831801E56F7F4FF0746A08E38803E71EC
:104BD00000987880002E05D129460931781D009A69
:104BE00059F764FA384656F7FCFF2046002120307A
:104BF000C174A186FF2181740199FD2001400598AF
:104C000057F759F9002007B0F0BDFFB581B00F4646
:104C1000039857F782F90646800742D5802526205B
:104C200000F0F5FA04467878002801D0054618E02F
:104C300020462030C17C032913D13978807C814201
:104C400014D1B97800230A222046FFF7EFFAA18E8B
:104C5000814206D1B878162200255043F978001910
:104C6000417620462030C17C01291CD03220005DD5
:104C70000423010274480831039A56F799FFA18E64
:104C80000180857056F7ADFF204600212030C174A9
:104C9000A186FF218174FD2006403146039857F715
:104CA0000AF90020FCE6807C0623010266480831F0
:104CB000801E039A56F77CFFA18E01800571E1E703
:104CC000F0B585B01F4616460D46262000F09FFA27
:104CD00003A90091298801AB02AAFFF73FFD044612
:104CE0005948062332463946801C56F761FF298809
:104CF0000180002C13D169460A7900210C3A130077
:104D000059F728FA0B07090B070B07090B070B09C3
:104D10000B00418003E00221FBE741800324047182
:104D200056F75FFF0020BBE6FFB58BB000200A906E
:104D30000D460D9857F7F1F8099080077ED40E982C
:104D4000070A262000F063FA059003A8009029883E
:104D500004AB02AA0598FFF701FD059E0446203624
:104D60000020B774F074059829888186002C16D12C
:104D70006846027C0F2A3ED008DC052A10D00A2A99
:104D800022D00C2A37D00D2A08D174E0112A32D053
:104D9000122A70D0142A2ED0162A6CD0802480E0DB
:104DA0003946059800F050FA01462648032308309A
:104DB0000D9A56F7FDFE07706946097A4170A97988
:104DC000817056F70EFF62E03946059800F03CFA14
:104DD00001461C480423401D0D9A56F7E9FE077052
:104DE000032444706946097A8170A979C17056F725
:104DF000F8FEF4744EE03946059800F025FA0146B5
:104E0000A8880D9A083083B20E48C01C56F7D0FE11
:104E10000770022704464770A888A0806846007A79
:104E2000A0706846007BA071AA88A91DE01D59F7F3
:104E30003DF96846007C0C280FD007E03DE00000FB
:104E4000FFFF000001260000160C00000F2806D00E
:104E5000112806D0142806D10AE0E77003E00320E9
:104E600000E00420E070204656F7BBFEF77411E026
:104E70000020F7E7FFE7E879A979000208430090EE
:104E80006846037B017A3846FFF77FFD0446F07CD5
:104E9000002806D00999022001430D9857F70BF816
:104EA0000DE0042370480D9A0E9956F781FE29886B
:104EB0000180847056F795FE01E002200A900A985E
:104EC0000FB0F0BDFFB58DB000200A900F9857F7D6
:104ED00024F80B90800774D4002669468E843446EB
:104EE000262000F094F90546109805AB000A0290C0
:104EF00004A800900E9803AA01882846FFF72EFC0C
:104F0000070072D16846017D1098C91F000A400051
:104F10000B0059F71FF9100F696938690942690BCD
:104F2000690D4C6910695769022604E0032602E006
:104F3000042600E001262846029900F085F9014682
:104F400008234A480F9A56F733FE0299017001244C
:104F50004470002181806946097B8170C670694672
:104F6000097C817156F73DFE2846203002998174F4
:104F7000C4740E980088A8860B99022001430F98EC
:104F800056F799FF49E06846007B162148434019CF
:104F9000417E68468184012427E06946097B162208
:104FA0005143491908188079C007C00F18E06946B5
:104FB000097B162251434919081880798007C00FD0
:104FC0000EE028E06946097B16225143491908186A
:104FD00069460A7CC08840219140084000D00120E9
:104FE00069468884022400E080271F48A31D801E94
:104FF0000F9A109956F7DCFD05460E982246008858
:1050000028802F716C8009A9681D59F74FF8284630
:1050100056F7E7FD01E002200A900A9811B0F0BDB2
:1050200070B5087816460D4612281AD11C0A26209B
:1050300000F0EDF8214600F007F901460B48022385
:105040003246401E56F7B4FD04706978417056F739
:10505000C8FD304656F761FF41084900304656F713
:105060002AFF002070BD0000160C0000042600007E
:105070000A7902704A7942700B8883701B0AC370E8
:105080008A79027149884171090A8171704700006B
:10509000014610B50020C9B2262911D006DC14291A
:1050A0000BD0242901D1FEF7B5F910BD37290AD05C
:1050B0003829FAD1FEF7CDFC10BDFEF77EFF10BDFA
:1050C000FFF74AFB10BD00F092FA10BDF8B50025BD
:1050D000794EFF27002818D0002418206043871934
:1050E000F88AFFF7D5FF002802D041683846884784
:1050F000FF20F8827D60BD60FD81387D56F720FF7E
:10510000641CE4B2052CE8D3F8BD00242046182125
:1051100048438119224610320D618A82CF824D6048
:105120008D60CD818D813550087D56F792FE641CCF
:10513000E4B2052CEAD3F8BDF3B5054681B00026EC
:105140004088FFF7A5FF01000AD05B4F6A88002066
:1051500018234343DB19DB8A934203D1422628E01C
:10516000402626E0401CC0B20528F1D300241820B8
:105170006043C019C08AFF2806D0641CE4B2052C25
:10518000F5D3052C14D014E02846083000901820E0
:105190006043C0190E686B78AA880746A91DB047FE
:1051A0000600EED16888F8820298B98A0180E8E7A3
:1051B0004B263046FEBDF8B53F4E0746002418206A
:1051C00060438519E88AFFF763FF002803D08268EF
:1051D000394628469047641CE4B2052CEFD3F8BD4D
:1051E000F3B5354E81B00F46002418206043851971
:1051F000E88AFFF74DFF002804D0C3683A462846E6
:1052000001999847641CE4B2052CEED3FEBD034619
:1052100010B50020284A014618244C43A418E48AFB
:105220009C4204D1182041438818006910BD491CD4
:10523000C9B20529F0D310BD42885004400CD20BEE
:1052400001D009020843704702885004400CD20B79
:1052500001D009020843704730B5FF21020AC4B2E9
:10526000154B002018254543ED18AD8AA54204D101
:1052700018214843C018C18A03E0401CC0B2052869
:10528000F0D31002084330BD30B5FF21020AC4B28A
:10529000094B002018254543ED18ED8AA54204D19D
:1052A00018214843C018818A03E0401CC0B2052879
:1052B000F0D31002084330BD642EFD07FFB506464B
:1052C000FF20FBB01F460321E13056F763FB044685
:1052D0007C98394600882080B08A60801E2001407A
:1052E0008031C44B21710FCB6D460FC5102269462A
:1052F000A01D58F7DBFE182109A858F7F0FEBD499C
:105300001822103109A858F7D1FE2046183005465A
:10531000182209A958F7CAFE1822B74945A858F714
:10532000C5FE28461830182245A958F7BFFE182197
:105330000FA858F7D4FEAF49182228310FA858F704
:10534000B5FE2046483018220FA958F7AFFEAA49EB
:10535000182218314BA858F7A9FE204660301822B1
:105360004BA958F7A3FE182115A858F7B8FEA14974
:105370001822403115A858F799FE20467830182297
:1053800015A958F793FE9C491822303151A858F7B7
:105390008DFE20469030182251A958F787FE18211B
:1053A0001BA858F79CFE9349182258311BA858F7A0
:1053B0007DFE2046A83018221BA958F777FE8E499B
:1053C0001822483157A858F771FE2046C0301822DD
:1053D00057A958F76BFE182121A858F780FE854978
:1053E0001822703121A858F761FE2046D8301822C3
:1053F00021A958F75BFE8049182260315DA858F753
:1054000055FE2046F03018225DA958F74FFE1821AE
:1054100027A858F764FE78491822783927A858F742
:1054200045FE2046FF300930182227A958F73EFED6
:1054300071491822783163A858F738FE2046FF30AA
:105440002130182263A958F731FE18212DA858F7EA
:1054500046FE6949182260392DA858F727FE2046D4
:10546000FF30393018222DA958F720FE182133A813
:1054700058F735FE60491822483933A858F716FE08
:105480002046FF305130182233A958F70FFE5A49F1
:105490001822903169A858F709FE2046FF3069307C
:1054A000182269A958F702FE182139A858F717FEE3
:1054B00051491822303939A858F7F8FD2046FF30F5
:1054C0008130182239A958F7F1FD4B491822A8312B
:1054D0006FA858F7EBFD2046FF30993018226FA9CE
:1054E00058F7E4FD18213FA858F7F9FD4249182262
:1054F00018393FA858F7DAFD2046FF30B13018229E
:105500003FA958F7D3FD3C491822C03175A858F778
:10551000CDFD2046FF30C9301325182275A958F754
:10552000C5FD657120464AF7AEFC059000283DD1C7
:1055300000210C2056F72EFA05460C2158F7CFFD16
:105540002088E88084980078287100206881F80716
:1055500001D00120C0037D9908432880B08A68806B
:105560003720F0820120F08128460830B0602348BF
:10557000356170607C98E9880180B08A002156F717
:105580009AFCED880D2069460874F42008842846AA
:105590000F3080B204AB002201214AF74EFD1135D5
:1055A000A8B208AB002202214AF747FD204656F771
:1055B0006CFA05987FB0F0BD10B500220169026158
:1055C000084656F762FA10BD704708B50069002119
:1055D0006A4611704181C0880A460C3080B26B4621
:1055E00001214AF72AFD002800D000BE08BD01486D
:1055F00010387047C0CCFC07C0CDFC07B8CEFC0704
:10560000F8B51F4614460E463720FFF700FE054644
:10561000C088B31C0C3080B2002201214AF70DFD76
:10562000002800D000BE688900281DD0390A090270
:10563000C120092322460001083156F7B9FA044671
:105640006889012812D01320207000206080E8882B
:1056500001220C30A0802046E280B11C083058F7AF
:1056600025FD204656F7BDFA0020F8BD1220EBE7D5
:1056700010B50C463720FFF7CAFDC0882346801DB1
:1056800080B2002204214AF7D8FC002800D000BED6
:10569000002010BDFEB50C4600211F4615461046E1
:1056A000019156F73AFC002805D0284656F735FCFC
:1056B000012872D0C3E004232A4639468B4856F7A6
:1056C00077FA05463720FFF7A2FD06462188807944
:1056D0003A0A081A009229808021C0B20027A970D6
:1056E00002280CD0042831D00A2857D0082879D0B5
:1056F0000D2876D0A970284656F773FA9FE0628885
:10570000A1882088A31D4AF798FCA870304600990C
:10571000FFF79AFD014637220823100256F748FA90
:10572000064600984FF7ACFA30807760607A010641
:105730007160207A000401437160E0790002014346
:105740007160A0790143012071606AE06288A188DC
:105750002088A31D4AF771FCA87030460099FFF716
:1057600073FD014608233722614856F721FA0646A1
:1057700000984FF785FA30807760607A0106716093
:10578000207A000401437160E079000201437160F6
:10579000A07901430220716043E04EE06288A18855
:1057A0002088A31D4AF749FCA87030460099FFF7EE
:1057B0004BFD0146A0883722001D83B24C48801C57
:1057C00056F7F6F9064600984FF75AFA3080A28845
:1057D000A11D301D58F76AFC2079F070042020E0EC
:1057E00000E023E06288A1882088A31D4AF725FCF9
:1057F000A87030460099FFF727FD01463C48062374
:105800003722401C56F7D4F9064600984FF738FA6D
:105810003080B780E0790102B180A0790143B18086
:105820000320B070304656F7DCF964E7E079A179DF
:10583000000208437081AF705DE70220019001987B
:10584000FEBDFFB583B01C460E460027059856F7EF
:1058500064FB002805D0059856F75FFB012840D06F
:1058600040E03720FFF7D3FC317882796B46891A04
:10587000CAB2002119800191198102210D2A22D07A
:10588000132A24D0308801AA19464AF7CAFC0546D3
:10589000684600882146801D83B21448059A801E00
:1058A00056F786F9318801800446057168460288FA
:1058B0006280002A03D0601D019958F7F7FB20464B
:1058C00056F78FF90EE0002519800A3007E0002511
:1058D0001980200A4CF731F96A46108102A801901C
:1058E000D6E70227384607B0F0BD0000160C0000CE
:1058F0000137000010B500F006FB00F0D9FB00F006
:1059000077FC00F081F90120FBF7A0FA10BD4822D6
:10591000002801D0012800D10A70704701200870CA
:1059200000204880888070470021BF4A05E08342FC
:1059300001D101207047491CC9B20C234B43D35CF1
:10594000FF2BF4D10020704770B5B749B74C0E4615
:105950003036B74D0DE052185268002A07D0C2B257
:105960000C235A4351184968401C60702DE0401CBC
:10597000607060780C2242438B5CFF2BEBD10AE015
:1059800089194968002903D0FFF7CEFF002809D004
:105990002078401C207021780C204143705CFF2847
:1059A000EED117E020780C21414389194968401C49
:1059B00020700AE04919C968002909D0C1B21C2227
:1059C00051434919C968401CA0708847002070BD28
:1059D000401CA070A0781C2141436A5CFF2AE9D1D9
:1059E0000020A07060702070012070BD10B50121F2
:1059F000042056F760FAFFF7A7FF10BDA4E7F8B53B
:105A000005460024884E0AE080198168002904D0E8
:105A1000641CE4B22846884701E0641CE4B22046D6
:105A20000C214843315CFF29EED17F4E00243036F3
:105A300009E08F19B968002903D0FFF775FF002826
:105A400009D0641CE4B20C216143705CFF28F0D1E2
:105A50000024774E10E0641CB968E4B228468847F9
:105A6000F1E780190169002904D0641CE4B22846DA
:105A7000884701E0641CE4B220461C214843315CA5
:105A8000FF29EED1F8BD70B5684EB06800282BD163
:105A90002C2304220921674856F78AF80321017054
:105AA0000A21B060417085210184002585765E4918
:105AB00004464580102266390A3058F7F7FA2A2042
:105AC00005552021E176A583E5835B496584488FF0
:105AD0008922892800D91046E0849720898FC00048
:105AE000814200D808462085B06870BD514810B585
:105AF000012304220921401E56F75AF802210170A1
:105B000056F76FF810BD494810B50C21183058F7FA
:105B1000E6FA46490020183101220C2343435B1862
:105B2000401C00061A71000EF7D03F490420603176
:105B300056F78FF90021042056F7BDF910BD10B5B6
:105B4000040000D000BE2102022304223B480A3197
:105B500056F72EF80C22012154430170334A1321C9
:105B6000417018320021A218D17056F73AF810BDD2
:105B700070B50D460102314814462C230422801EC4
:105B80000A3156F715F8014620310D724C7256F75E
:105B900028F870BD2A4B10B59A4201D91A4602E086
:105BA000002A00D1012256F755FA10BD10B5FFF7B3
:105BB0006AFF56F716F81D490020886010BD1B4A81
:105BC000002124324B00D35C834203D1480080186B
:105BD00040787047491CC9B20A29F3D304207047A2
:105BE00030B5124B0022243354001D5D854206D08F
:105BF000FF2D04D0521CD2B20A2AF5D330BD520078
:105C00009854E018417030BD084910B50020FF23BA
:105C10002431042442008B545218401CC0B25470EA
:105C20000A28F7D310BD000044CFFC07DC2EFD0787
:105C300030D2FC07040D0000A479FD07040E00001B
:105C40003075000010B5104656F767F9002802D0ED
:105C500000BE002010BD012304220921914855F700
:105C6000A7FF0121017055F7BCFFF2E770B50D7871
:105C70008D4C0D2D22D008DC012D0FD0022D25D00A
:105C8000032D13D00C2D25D128E00E2D1AD0112D67
:105C900024D0122D22D0132D1CD11FE048780028CB
:105CA00001D000BE1AE0FFF781FF17E04878002816
:105CB00001D000BE12E001F0F0F80FE0487804F0E7
:105CC0005AFD0BE0487804F043FD07E04D78002DC5
:105CD00000D000BE2568002D00D0A847002070BD70
:105CE00070B51C4610460D4656F717F9022802D02B
:105CF00000BE002070BD200A00D000BE0C216B4AFF
:105D0000414389188870294601F0DBF8F1E770B546
:105D10000D784C78092D09D0002C00D000BE624CC3
:105D20002568002D00D0A847002070BD002C03D0AE
:105D3000204601F09DF8F7E701F0AAF8F4E770B506
:105D40001D4610460C4656F7E8F82A0A032802D0EA
:105D500000BE002070BD0C2042435448FF211018A3
:105D600081700021C170204601F0FEF8F1E70020AB
:105D70007047FEB508781F46154600244C4E0300B8
:105D800058F7E8F90303132725001923394630464D
:105D900055F70EFF054604700F206880024645A1A6
:105DA000281D58F783F928460FE069460C8068469D
:105DB00001F026F90A232A463946304655F7F8FEFF
:105DC0000121017069460988418055F70AFF0020CA
:105DD000FEBD0A233946304655F7EAFE04466846BA
:105DE00001F012F902202070684600886080684641
:105DF0004088A08068468088E0806846C08820810E
:105E00002046E2E738B50C464820694608702078FD
:105E1000FFF77DFD2648022304220921801C55F747
:105E2000C7FE6946097841702178017055F7D9FE9F
:105E3000002038BD10B5104656F76FF8012809D17B
:105E4000FFF7DCFD002805D00221042056F733F8C7
:105E500001F0A6F8002010BD70B518460D460146A9
:105E6000E1200623000155F7A3FE0446014628461B
:105E7000FFF754FD204655F7B4FE002070BD10B565
:105E8000084601F0CAF8002010BDFEB51C46064DBC
:105E9000089B0B262D1D6F4668C71346224600F04F
:105EA000CCFDFEBD020D0000B4CFFC07F42EFD07B3
:105EB0000B0E000049464D20444131343538352021
:105EC0005243550070B51C2304220921484855F758
:105ED0006FFE04461B2020702420FFF770FE6070C8
:105EE000242060800423A3800021E180012222720B
:105EF0006272404DA581E18123746174A2742046D1
:105F000055F76FFE70BD10B50120FBF75BFB3A49FA
:105F1000087010BD10B5384CE170227163712070AB
:105F200010BD10B534490A22C88004213348FFF758
:105F300031FE10BD10B5044624203CF780FC01461C
