:0200000407FCF7
:10000000D04EFC076D05FC077505FC078D05FC0748
:1000100000000000000000000000000000000000E0
:10002000000000000000000000000000A505FC0723
:100030000000000000000000A705FC07A905FC0760
:100040000317FC076B17FC071D27F007AB05FC0720
:10005000AB05FC07AB05FC07AB05FC07AB05FC07D4
:100060006518FC07AB05FC078311FC078711FC072B
:100070008B11FC078F11FC079311FC07AB05FC07E4
:10008000F911FC07AB05FC07AB05FC07AB05FC074A
:10009000AB05FC07AB05FC07AB05FC07AB05FC0794
:0200000407FCF7
:100510000348854603F016FE004800472F08FC07F5
:10052000D04EFC070D490620088001220C48D1035B
:1005300001600221016000210260052000070180A6
:10054000028A0F231B021A430282064A064802C28D
:10055000401E0028FBDA62B67047000000340050ED
:1005600080E100E0005CFD07FF0800000F488047C5
:100570000F48004704207146084203D0EFF309807A
:100580000C490847EFF308800A49084704207146E0
:10059000084203D0EFF3098007490847EFF30880CA
:1005A00005490847FEE7FEE7FEE7FEE72505FC07ED
:1005B0001105FC071D06FC07BD05FC0705221207F7
:1005C000518A802319435182124903680B604368A2
:1005D0004B6083688B60C368CB6003690B614369C0
:1005E0004B6183698B61C369CB6108620A48836A86
:1005F0004B62C36A8B62036BCB62C36B0B63436B4F
:100600004B63806B8863908A800601D500BE70477B
:10061000FEE700000000FD0700ED00E005210907EE
:100620000A8A04231A430A820A8A02231A430A8284
:100630000A8940231A430A811B4B01221A601B4B73
:1006400008221A804A8A80231A434A82184A036879
:1006500013614368536183689361C368D36103691D
:1006600013624369536283699362C369D3621063FF
:100670001048836A5363C36A9363036BD363C36B8A
:100680000B4A40321360436B5360806B9060888AE2
:10069000800608D500BE488A012280088000D20367
:1006A000104348827047FEE780E200E000330050CC
:1006B0004000FD0700ED00E0F8B5154602460120B8
:1006C0000C4600232B4E0146412A3AD00ADC012A6F
:1006D00016D00221072A26D0402A23D120780228CA
:1006E00024D329E0422A34D0432A38D0442A19D1CD
:1006F000207800282BD01F48407B2870217010E004
:1007000006221D491D485DF7F5FC0627002802D08A
:1007100006221A4901E00622B11C28465DF7C6FCF4
:1007200027700020F8BD2078022801D223700EE047
:1007300030782870707802E0307A2870707A6870AB
:10074000DCE72078002802D00A48807AD5E7042028
:10075000F8BD20780028FAD00648C07ACDE7207886
:100760000028F4D0307BC8E7002070470120704794
:1007700001207047B641FC0790E1F107F448FD07FE
:1007800070B5022801D003283CD1A9490B69042285
:1007900013430B6105242407618A20239943618256
:1007A000218A022319432182A24D0F266978102342
:1007B000090236020228608A25D018436082608AC6
:1007C00010436082208AB0430843208268682288F0
:1007D000C01C800880210A4322800022521CD2B211
:1007E0000A2AFBD3628A1A436282934A401E5061EE
:1007F00020888843208003205BF764F8002809D014
:100800000120E87070BD98436082208AB04308439D
:100810002082F0E70020E870208A218AB043090591
:100820002A78090F114309020843208270BD08B5D8
:1008300000F09FF800F01AFB0025052424070FE0C4
:100840001420009500F0BCF9042168464CF7D2FB57
:10085000002801D000F080FA02F036FE00280BD00C
:100860002089000608D501208007006B000403D40E
:1008700072480078C0070DD002F055FE0028EFD175
:1008800000F0B6FA0028EBD072B601F071F8042837
:1008900007D00BE05BF7A1FD694800780428DBD1A5
:1008A000CEE76848007801280BD00320694608701D
:1008B00000282AD0022806D0032804D001281FD0FF
:1008C00023E00220F2E700F022F8A08A800602D599
:1008D0005D490820088030BF5648C078002807D0FE
:1008E0005A48006801898AB2416803205AF7C4FF58
:1008F00002F01CFE4E48016904229143016104E0AC
:1009000000F076FA002800D030BF62B6A8E738B50C
:1009100005466846052405702407208A04210843FB
:1009200020822846FFF72CFF284602F0FEFD022D0C
:1009300001D0032D1CD146484188FF22013291434A
:1009400041806188434A11804188012211434180DE
:10095000002000900099491C00911429FADB61895C
:1009600089088900491C618161894906FCD560803C
:1009700038BDF8B5384839492E4C4018384901255A
:1009800040180121C90303276060884203D800F0A2
:100990003CF8284309E033494018890C884203D8C1
:1009A00000F033F8384300E00F20607000F02DF8BD
:1009B000A0702D492D48814201D3082523E02D4BFD
:1009C000294E2B4AF318914205D3834201D20425C4
:1009D00019E00C2517E0284EB14209D3934201D209
:1009E000022510E0834201D206250CE00E250AE024
:1009F000B34208D3934201D23D4604E0834201D280
:100A0000072500E00F252570F8BD1C4817498842CE
:100A100001D3082070471649884201D30C20704743
:100A20001549884201D30E2070470F2070470000FF
:100A300000ED00E0C848FD070000F4075877FD0707
:100A40001849FD07B477FD07003300505876FD07BD
:100A5000200000501C49FD071005FC07BC430000A6
:100A6000000004F8FF7FFFFFD04EFC070000FD07E9
:100A700000C0FC070C0400000080FC070448FD07D0
:100A8000704770B50D46002441F775FF2855641C6A
:100A9000E4B2202CF8D3002070BD10B55DF7F4FA55
:100AA00010BD10B55DF7F9FA10BD05210907488A98
:100AB000012280088000D203104348827047000062
:100AC00038480178002902D08021417070473649AA
:100AD000002008703549C870704732490A78002AEA
:100AE00003D000280CD002200BE0002801D0022007
:100AF00000E001202C4908702C490120C870704783
:100B0000012080304870704710B5294A08211180B3
:100B100072B6052109070A8A04231A430A820A8940
:100B20008024A2430A810A89402422430A81214A5F
:100B300014691C4314614A8A20239A434A820A8A10
:100B400002231A430A820A8A0F231B029A430A824B
:100B5000194A5388FF240134A34353800028088A8C
:100B600003D001221043088206E0400840000882BA
:100B700011490020E031088000201049C04308607E
:100B800000BF00BF00BF30BF10BD0749002009787B
:100B9000002904D0012903D0022900D10220704786
:100BA00001207047D048FD07B477FD075877FD074F
:100BB0000033005000ED00E02000005080E200E033
:100BC00070B5E84D04466878002822D0E6480188D0
:100BD0004907FCD4C188808809040E18E3492046DF
:100BE000484331465DF7E8F9002169706861B0015A
:100BF00021465DF7E1F9A861DD4800234443E01791
:100C00000105220B11432005324603F071F9E96218
:100C1000A86270BDD4494880088803221043088028
:100C20000888042210430880CE490120487070478C
:100C300070B5052109070889302290430881088989
:100C4000802318430881088980088000401C08819F
:100C50000889082210430881C64804881C43048080
:100C60004C8A94434C820D89402425430D810D8A82
:100C70000426B5430D828D8AAD07FCD5B94EAA2551
:100C800035618588F026B543B03585808588032693
:100C90003602B543858085882D092D01858085889C
:100CA0000126B602354385808588760035438580E8
:100CB00085887600354385804D8A95434D8202882C
:100CC00052085200028002889A4302800A89A24395
:100CD0000A814089800503D5A649052060318880B6
:100CE000012080070168821591430160A2480168D4
:100CF0003F225202914342148918016001680203A5
:100D00001143016070BD10B59C485BF7F3FB10BD4B
:100D100010B598494888C006040F4888012210433E
:100D2000488048881E22904348808F484B0143806A
:100D30000523038003885B07FCD480884B8893439A
:100D400014334B804B885B085B004B804B8893438C
:100D5000620013434B8010BD70B589490120C86300
:100D6000C86B0028FCD101208007C0697D4C0021A0
:100D7000E268904200D2E160A2780125002A04D006
:100D8000A170E060FFF7C4FF11E0E1681922411A89
:100D9000D201914211D3E060FFF7BAFFA1888842E7
:100DA00001D9411A00E0091A89B2182905D3A08097
:100DB00002F04AFD002800D1A57070BD10B5694948
:100DC000496948436F495DF7F7F810BD10B56549AB
:100DD0000122D2038969904205D303F0C5F9890540
:100DE000800A084310BD4843800A10BDE6E7EDE7DE
:100DF00010B5654801240078C00705D06348417DDF
:100E000001290CD1007D06E005205BF786F800285B
:100E100005D15F48807A002802D0032800D0002442
:100E2000204610BD4F4B0020197800290DD05449A1
:100E30000122CA63CA6B002AFCD101218907C96952
:100E4000544A1268914201D2012070470021197062
:100E5000704710B5504900200860FFF754FF01208B
:100E60008007016B49004908016310BD70B53D4919
:100E70000120087049490820088041F769F900F00D
:100E80009BF800F015F900F038F83A4C20898004FE
:100E9000000F07D120890F21890288430921890287
:100EA0004018208100F0F0FE012041F76AFDFFF7B5
:100EB000BFFE3B48006841F7FDF93A480025C57080
:100EC000057101208007016882151143016014201B
:100ED000FFF7A0FE1420FFF773FEFFF7F1FDFFF709
:100EE000B8FF05200007C5826088E0218843A03054
:100EF0006080012002F0D2FC70BD38B52A48002184
:100F0000016005242407638A402213436382638AB5
:100F1000934363824161254A826201221204C262C4
:100F2000208880252843208000910098401C009054
:100F30006428FADB002000F03FFA0A4806221C4928
:100F40001C305DF7B3F81B48018806480181194938
:100F5000891C0988418100F01FFA2088A84320805D
:100F600038BD0000D848FD07001600500024F400EA
:100F7000102700002000005000020040E2040000A2
:100F8000C000004040420F00F976FD07507DFD078C
:100F9000187DFD07C448FC07AC76FD070033005000
:100FA0004C76FD075877FD070000F407204F101A14
:100FB000A8FFF80710FEF80710B502F0FBFA302280
:100FC0001A491B485DF772F800F0B8FE1949012074
:100FD00008701A4A184911601A4A194911601B4AC7
:100FE000194911601A4A0A2111701A4A0021117018
:100FF000194A32211170194A05211160184A1060EE
:101000001848016018490620086018490720086040
:10101000174908200860FF20164907300860164964
:10102000086017491548086010BD000058ECF1072A
:10103000FC76FD07F976FD070444FC075076FD07B2
:10104000C441FC075476FD074843FC075876FD076A
:10105000B476FD07B576FD07DD76FD075C76FD0706
:101060006076FD076476FD076876FD076C76FD0700
:101070007076FD074876FD074476FD07005CFD07A6
:101080004C76FD07052000070188302211430180BE
:101090000188032211430180704705200007018861
:1010A00030229143018001888908890001807047BE
:1010B000704710B5032800D104203F4C40010019AF
:1010C000490008181A43C28010BD032800D104202B
:1010D000394A4001801801228A40828070470328E3
:1010E00000D10420344A4001801801228A40428005
:1010F000704770B506460498144600280D463046E1
:1011000002D0FFF7ECFF01E0FFF7DFFF22462946A0
:101110003046FFF7CEFF70BD032800D10420264AD9
:1011200040018018008801228A40104000D0012030
:10113000704770B5012421460A3881400D4688B2B7
:1011400000F029F884401D48C189A9430C43C4819B
:1011500070BD10B504460A3804280AD82046FFF7A7
:10116000E8FF1749A00040188038806D002801D0A2
:10117000804710BDE106C90E012088401149086072
:1011800010BD0A20E5E70B20E3E70C20E1E70D2086
:10119000DFE70E20DDE700280BD0411E4840C003EA
:1011A000010C002002E04908401C80B20029FAD15D
:1011B00070471020704700000030005000140050AD
:1011C0000448FD0780E200E010B5002806D0431E69
:1011D000084C5B001B19012802D002E00023F7E74E
:1011E0000831188801248C40A0438A4002431A80A9
:1011F00010BD00007030005010B5FFF74EFF052104
:1012000009078888174AC30B104618D0164B1C884C
:10121000640714D51178890710D519880222114363
:10122000198019884908490019804468002C05D0A4
:10123000985E0421595E0A229A5EA04710BD8988F3
:10124000C906FBD51178C907F8D0084901228A8060
:101250000A8880239A430A8080680028EED080475D
:1012600010BD00000849FD070002005000010050B9
:1012700008430121890303460B4304490B80044BB7
:1012800018430880092002434A8070470015005027
:101290000140000004490A880F239B0100079A437C
:1012A000800D02430A807047001500500848074926
:1012B000028802231A430280491E02D30288920741
:1012C000FAD400210181408970470000A086010006
:1012D000001500500AE000BF00BF00BF00BF00BF04
:1012E00000BF00BF00BF00BF00BF00BF401EF2D262
:1012F0007047000070B50222510204464E0030468D
:10130000FFF7B6FF1420FFF7E5FF002C01D00920FE
:1013100000E00720FFF7BEFFFFF7C8FF05460120EA
:10132000FFF7D8FF022200213046FFF7A1FF002C73
:1013300001D0092000E00720FFF7ACFFFFF7B6FF60
:101340004019024A0021118070BD000000150050B4
:1013500018B5474900220A6005200007448A402347
:101360001C434482448A9C4344824A61414B8B62C1
:1013700001231B04CB62048880231C430480009259
:10138000521C0092642AFBDB0A68D208D2000A6071
:1013900001889943018018BD0520000700880006D8
:1013A00000D400BE324801884907490F012900D006
:1013B00000BE002101607047052109070988090660
:1013C00000D400BE2A490A88520700D000BE002877
:1013D00002D0FF20023000E001200860704770B5A5
:1013E000052424072488049D240600D400BE204C34
:1013F0002688760700D000BE01267603B14200D3CE
:1014000000BE0126B603002B0FD0B34200D300BEAE
:101410004900012A00D0002211432161591E616157
:10142000002D04D0FF21053105E000BEF0E7216862
:10143000C908C900091D2160002108E0A268120541
:10144000120F082AFAD08A008258A261491C9942D8
:10145000F4D300F007F8A068800701D5002070BD24
:10146000012070BD024881684906FCD57047000024
:101470000000F407204F101A002070477047704793
:1014800070470020704701218907086B072210432D
:1014900008637047704740087038C0B270474349CE
:1014A00041480860434942484881434841880622F0
:1014B0009143891C4180414A6321D18040493D4A82
:1014C0000988603A11823F49098801803E480078C6
:1014D000002802D03D4930200883704700B58BB00A
:1014E0003B4A42623B4A82623B4A42613B4AC26299
:1014F0003B4A02603B4A02623B4A42603B4AC2614D
:101500002A4A29480021106028484038426B1F238E
:101510001B049A434313D218426335480268C3122E
:101520009A430260026803139A430260684641547A
:10153000491CC9B22829FAD301462E48282200683E
:1015400040305CF7B3FDFFF7AAFFFFF7E1FB2A4944
:10155000088002F079F90BB000BD10B513491248AC
:10156000086012484038416B1F2212049143421315
:101570008918416300060168C908C9000160052097
:101580000007018989088900491C01810189082215
:1015900011430181FFF783FF012002F07FF910BDA5
:1015A00009480078704700004C055407800000404F
:1015B000EBE600006028005000260050002C005090
:1015C000E248FD07E048FD071449FD0700240050EC
:1015D0007914FC077D14FC078314FC078714FC07AF
:1015E0007F14FC079514FC078114FC079714FC0773
:1015F000000200404C76FD07DC48FD0710B5C149EC
:101600000A7DC14925E0BF4B203B1C6B0A23534395
:10161000E3189B785B065B0EDC060DD04C68641CFF
:101620004C60DC0702D0CC68641CCC601B0706D57C
:101630008B685B1C8B6002E00B685B1C0B60B34C1F
:101640000B8A6488240A1B195B08521C52070B8200
:10165000520F0346401EC0B2002BD4D110BDF8B5C6
:101660000125AD07AC6B2046FFF7C1FBA649A84F8B
:101670000C398A68861800208860394630465CF745
:101680009BFCA44948603A465043301A00D0381AAF
:1016900080B20860286B08218843084328639E486D
:1016A00004609E480068002802D0A04200D200BE1C
:1016B000F8BD10B5FFF7F1FC052000074189890747
:1016C00008D0418989088900418195494A88520892
:1016D00052004A800189802211430181018A04223B
:1016E00091430182818A8907FCD500F039F90120F4
:1016F00080070169490700D500BE01694907FCD58B
:1017000010BDF8B5874F0820388005263607708948
:10171000800722D0B08A400701D500F0B5FA804D8D
:1017200028888021084328807F4CFF206080042087
:101730002080FFF7A7FC7D21C900E088A288000473
:1017400080188842F9D9052020806F480C3880889D
:101750007080298880208143298038894007FCD403
:10176000FFF7A7FFF8BD70477047F8B5664E6F4F9B
:101770000C3E0125AD072C69002C71D0200606D542
:101780008020A8614BF7DFFA1420FFF743FAA00787
:101790000AD50220A861664800688030008EC0B279
:1017A000FFF72CFF47F795FA200726D50820A861F8
:1017B000386852226430818851435E4A1268891821
:1017C000C031898B407E090A081AC0B2FFF716FFA4
:1017D000FFF7CAFFB07800280AD03A68243207D051
:1017E0004032D07E002803D1D07F08210843D07733
:1017F000002047F72EFA04203070E00505D5FF20C1
:101800000130A861012047F724FAA00504D5012082
:101810004002A8614BF700FB600603D54020A86199
:1018200047F712FAE00603D51020A86145F747FEF6
:10183000600703D50420A86100F030F8E00709D064
:101840000120A8615AF748FE4BF77DFA012030705D
:10185000FFF789FFA0068ED52020A8618BE7FFE760
:10186000F8BD704710B53448C18840880A46024028
:10187000324BD20705D00322314C1A702288521CF9
:101880002280890707D5C00505D502202D4918708B
:101890000888401C0880FFF7E4FF10BD70B52148A0
:1018A000018949084900018127480078C00705D00F
:1018B000002040F793FF40F759FF01E040F73EFF5B
:1018C0005AF7EEFD40F7F8FE01251420FFF7A2F9C4
:1018D0001A4C0020207012484089800510D560788D
:1018E00000280DD1194865700088C00708D1012073
:1018F000FFF700FD8B218900884201D9022060702A
:1019000070BD00000079FD072449FD070029005043
:1019100071020000400000404049FD073849FD07C2
:101920002000005000330050001600503879FD07A9
:101930005876FD074C76FD07202000501849FD071A
:101940001E48FD072048FD07F976FD0700150050E9
:1019500010B540F7E8FC684880686849486010BDE9
:1019600010B540F70CFD654863494068886010BDBC
:10197000F8B5002500F0BCF8614E009030790228DF
:1019800001D100200090FFF74DFA00280DD159F742
:10199000DEFE002809D0F07801250028FAD00527BE
:1019A0003F07B88AC00701D004259FE0308800288F
:1019B00045D15448806A002802D000F099F8009080
:1019C000B17868465AF7CEFB002838D00124A40726
:1019D0002069400633D4B17868464BF70BFB0028EA
:1019E0002DD04DF7B0FA002828D04BF70DFF002876
:1019F00024D0B17868465AF7B5FB002820D020697A
:101A000040061DD43E48817868464BF7F3FA00281B
:101A100016D00099002906D0206AFF383938DA2814
:101A200001D8491E00913848FFF7E0F905460646FF
:101A300036481236007802280FD00FE0002555E016
:101A400033480078C00705D0002040F7C7FE40F7B4
:101A50008DFE4BE040F772FE48E011362D4840897C
:101A6000800500D500BE2C48FFF7C0F9E16B281AAD
:101A7000890A89020143E163E06B28490840B10209
:101A80000843E063E06BC002C00A69050843E063F5
:101A9000234B04250CCB002100985CF7B7FA09030F
:101AA000000D08431549401E0860154909790029B1
:101AB00000D0012147F773FA1A48C06A8047206BAB
:101AC0000004C00FFBD00C480168C905FCD51649BD
:101AD0004889462804D24622144B101A18604A81BD
:101AE000FFF736FF38898021884338812846F8BDC2
:101AF0000F480068406A7047000200403849FD07FF
:101B00005877FD07787EFD071D0D0000B477FD07AF
:101B1000F976FD0720000050540B0000FF03E0FFA2
:101B20000049FD07B47FFD07003300502049FD0741
:101B30005876FD07F8B50025344EFF2700280FD052
:101B40000024182060438019C78245608560C581E4
:101B5000007D5AF7F5F9641CE4B2202CF1D3F8BDEE
:101B600000242046182148438119224610320D6175
:101B70008A82CF824D608D60CD818D813550087D08
:101B80005AF767F9641CE4B2202CEAD3F8BD402070
:101B900070470020401CC0B22028FBD370470020B3
:101BA000401CC0B22028FBD3704730B5FF21020A89
:101BB000C4B2164B002018254543ED18AD8AA54246
:101BC00004D118214843C018C18A03E0401CC0B2A8
:101BD0002028F0D31002084330BD30B5FF21020A9F
:101BE000C4B20A4B002018254543ED18ED8AA542E2
:101BF00004D118214843C018818A03E0401CC0B2B8
:101C00002028F0D31002084330BD00004449FD07EE
:101C1000704738B50025304C009503226178207854
:101C200002231202FFF765FA0095E178A0780123FC
:101C30000022FFF75EFA38BD70B501280DD10429E6
:101C40000BD1012A09D1052B07D11C07A58AAD06A6
:101C5000FCD4658A8026B54365821F4C2070617074
:101C6000A270E37070BD10B51B4CE41E20780028F4
:101C700007D10022052304211046FFF7DDFF0120D4
:101C80002070FFF7C6FF10BD10B505242407208A79
:101C9000022188432082A08A0007FCD50F48418892
:101CA000FF220132114341800B48C01E41780029B8
:101CB00003D1082141700B21817081780322407883
:101CC00040F730FD01F05EFCFFF7CDFF608A202178
:101CD0000843608210BD0000474CFD072000005003
:101CE000F0B413460246002528462C4C2C4E0AE040
:101CF000C700E75B9F4205D1C00000194468002C73
:101D000011D103E0401C3778B842F1DB0020254CAC
:101D1000254E0DE0C700E75B9F4208D1C0000019C7
:101D20004468002C07D0A446F0BC18466047401C0D
:101D30003778B842EEDB2846F0BC7047F8B5FF2292
:101D40002D321A491A485CF7B1F90020184B19498D
:101D5000194C08E00C224243D5181219C4CAFF35A9
:101D60002D35C4C5401C0A789042F3DB0020134A8D
:101D70000CE00C780C2524186C43114E4543AD192A
:101D8000E418E0CDFF342D34E0C4401C1478A042A8
:101D9000EFDB0C483121C3624185F8BD3C46FC07AE
:101DA0004C46FC076C45FC071C46FC0714EBF1078E
:101DB0004C4CFD073846FC072046FC076845FC07ED
:101DC0006044FC07FC76FD0710B518460C467F22E0
:101DD000014602235202FB4859F7EAFE21780180AE
:101DE0004CF796FE002010BD10B519460023F64AA8
:101DF000F44859F7DDFE4CF78BFE002010BD70B59E
:101E0000F14A19464223521CEE4859F7D1FE1B25D0
:101E100004460570EDA1801C02F09AF8204665701A
:101E2000EAA1223002F094F820464CF771FE00201F
:101E300070BD38B518460C46E34A01460223921C91
:101E4000E04859F7B5FE054621786846017061788B
:101E50004170A1788170E178C17000F08DFE28801A
:101E600028464CF755FE2888002802D1684600F025
:101E7000B1FE002038BD10B518460C46D24A0146C6
:101E80000823521ECF4859F793FE21780170002194
:101E9000417022786168002A06D0012A06D0022A01
:101EA00007D0032A0AD107E0096803E0A2680A60A4
:101EB00004E00988416001E022890A804CF728FE8D
:101EC000002010BD70B518460C46BF4A01460023DD
:101ED0000832BC4859F76CFE0546C348217841706A
:101EE0006178017000F0D8FD28464CF711FE002003
:101EF00070BD7CB518460C46B34A01460723121F35
:101F0000B04859F755FE0546002000900190217811
:101F100029702078661C03005CF71CF90403071085
:101F200017290222691CB1480CE070783178000250
:101F30000843009001226946AD4816E0AB480622EE
:101F4000691C903000F097FD11E0A01C5CF7DFF8F1
:101F500061780002084300907079317900020843EB
:101F60000190A34801226946903000F05FFD2846A9
:101F70004CF7CEFD00207CBDFEB518460D46924ABA
:101F800001460223521F8F4859F712FE0446A978D2
:101F90006878090201432A7805200026000713000B
:101FA0005CF7D8F80805070B141C232C2C54408828
:101FB00001E0418017E0208048E08E480121016364
:101FC00003218C480902C03801610CE04288884B2B
:101FD000E7335B1A934206D35118EAE742888A42F4
:101FE00001D3511AE5E70020E5E7824900200863A4
:101FF000012280495202C0390A61DCE7687800F0AA
:1020000063FE070020D038880090FF200130388020
:10201000687800F0A0FF411C05D0811C05D029780C
:10202000072904D011E001260FE002260DE000216F
:1020300080B202910190012201A96D4800F0F6FCE6
:10204000002802D0032600E00426268020464CF714
:102050005FFD2878062801D0072816D10098C00611
:10206000C00E012801D003280FD1634C68780A21E3
:102070005BF7A2FFFFF750F8002804D12046641E4A
:10208000A4B20028F2D1009838800020FEBD4E4A4C
:1020900010B51946002309324A4859F789FD04460C
:1020A00056480078052807D100F01BFD5449002050
:1020B000086220464CF72CFD002010BD70B5184674
:1020C0000C46414A01460023521D3E4859F770FD17
:1020D000054645492078487000F039FD28464CF700
:1020E00017FD002070BD384A10B519460823921D0F
:1020F000344859F75DFD04464048007802280FD166
:10210000404801888288891A2180818961800189FB
:10211000A180008AE08000F0E4FC20464CF7F8FC47
:10212000002010BDF8B518460C46274A014600238A
:10213000D21D244859F73CFD334B2778FF22324902
:102140002033324D01322D4E4F2F04D0522F20D04C
:10215000542F35D10AE000240C801C800321A98073
:102160002B490A602B490A60347027E0284F8037DA
:102170003A6064780F8817430F800A88120A1202A7
:1021800022430A8001218903A980042119800221A8
:1021900011E01F4F80373A6064780F8817430F8033
:1021A0000A88120A120222430A8001218903A980A7
:1021B0000121198008211980062131704CF7A8FCF3
:1021C0000020F8BD0108000007FE0000765F765F82
:1021D000362E302E342E3332365F765F362E313443
:1021E000302E322E313700001848FD0718FFF8074F
:1021F00018FF0000C0300050B68C00001A48FD07E0
:10220000C00000402449FD0700200050002C005071
:1022100000E100E080E200E010B518460C460146FF
:102220000123FE4AFE4859F7C3FC002101704CF718
:102230006FFCFC4821784170FB4A61781170A178ED
:1022400001702079E17800020843F849088000F025
:102250005EFC002010BD10B518460C46EF4A014642
:1022600001230A3AEE4859F7A3FC002101704CF70C
:102270004FFC4BF7C5F82078002804D0012805D082
:10228000022821D11DE0FEF71BFC1DE06178E84823
:10229000002902D1A178002910D0012101716078B4
:1022A000E44919224843A178920151434018E24978
:1022B000096848620020FEF710FC05E00221017168
:1022C000F8E70020FEF720FC002010BD70B518468E
:1022D0000C460146D14AD2480023521E401E59F7EF
:1022E00067FC0546207803005BF734FF09060A0EF9
:1022F00012161A1E242E2900A07801F026F81EE0DE
:10230000608801F00CF81AE0A07800F0F5FF16E004
:10231000608800F0E4FFF3E7A07801F00DF80EE02C
:10232000608801F02DF80AE0608800F0CBFF60883B
:10233000002802D001F035F801E001F019F8284634
:102340004CF7E6FB002070BDA078F6E7FEB5184616
:102350000D460146B14AB248F223D21F401E59F73A
:1023600027FC044628880190AD780026002D01D076
:102370003C2D19D912201AE00198B7003918FF2016
:10238000C00408180422694600F075FB6946381934
:102390000978817069464978C17069468978017108
:1023A0006946C9784171761CAE42E5D300202070A1
:1023B000657020464CF7ACFB0020FEBDF0B518461A
:1023C0000C460146954A964887B00223921F401E4C
:1023D00059F7EEFB0026054602960396A778E01C07
:1023E000009020880490002F01D03C2F21D912208A
:1023F00022E0B0000099019040180590401C5BF766
:1024000086FE0102009A0198105C01430598029132
:10241000401D5BF77CFE0102059801220079014313
:10242000039102A9049800F001FB04980830B61C3F
:102430000490BE42DDD300202870A0786870002090
:10244000287028464CF764FB002007B0F0BDF8B5B3
:1024500018460C460146714A71480223921D401EDF
:1024600059F7A6FB2178012300250646002902D052
:1024700001297DD199E00520000781880122D2023F
:10248000114381806D480188490849000180018815
:10249000FF228132914301800188402291430180D3
:1024A0000188042211430180018802221143018026
:1024B0000188520391430180018818229143103111
:1024C000018001881F46394301800093E178A0789C
:1024D00007235201FEF70DFE0097FF226179207954
:1024E00005230132FEF705FE00970623E179A07966
:1024F000DA01FEF7FEFD00970322617A207A0023BD
:102500001202FEF7F6FD607B002807D0009501223D
:10251000E17BA07B00235202FEF7EBFD60780128EF
:1025200005D1637A227AE17AA07A00F0A3FB627A7D
:10253000217AA07A00F0B2FB3080607B00280CD0BA
:10254000FF20F53000950099491C00918142FADB8B
:10255000E17BA07BFEF7E0FD308001256D02E17894
:10256000A07800232A46FEF7A4FD6179207900E0D7
:1025700085E000232A46FEF79CFDE179A07900233F
:102580002A46FEF796FD617A207A00236A10FEF74C
:1025900090FD2A480188490849000180052000076C
:1025A0008188AA009143818069E005200007818825
:1025B000202211438180224FBD8121486121603852
:1025C0000180018806229143091D018001881022A3
:1025D00091430180217B8180BB81388A8006FCD4B5
:1025E000E178A07809230022FEF763FD6179207964
:1025F0000A230022FEF75DFD607B002807D00095CE
:102600000122E17BA07B00235202FEF772FD60787D
:10261000012819D1E17AA07A14E000000BFE000035
:10262000020800001848FD071B48FD071C48FD076D
:102630005877FD07007701005876FD07001200501B
:102640006013005000F0FCFAA07A00F0E6FA308047
:10265000607B00280CD0FF20F53000950099491CC4
:1026600000918142FADBE17BA07BFEF755FD3080D3
:10267000BD8105200007828820218A438280FFF7E0
:10268000F2FA30464CF744FA00209AE5FEB51846B7
:102690000E4601460123BA4ABA4859F789FA019011
:1026A000002730780A215BF787FC0546B078029056
:1026B000F0780C46032D00D90127072C0DD8022DE8
:1026C00004D0012D05D0002D03D007E0042C04D246
:1026D00004E0042C01D0052C00D1012771780029D9
:1026E00006D0012906D0022907D003290FD107E01F
:1026F000002207E0FF22013204E00122520201E041
:10270000032212020299012901D8002F01D00121D0
:1027100013E0012800D00020009000232146284625
:10272000FEF7E7FC0298002801D0012200E0002219
:1027300021462846FEF748FD0021019801700198C6
:102740004CF7E6F90020FEBD70B518460E468C4ADF
:1027500001460123521C8B4859F72AFA04460025EA
:1027600030780A215BF728FC032800D901250729C6
:102770000DD8022804D001280BD0002809D004E08D
:10278000042904D201E0052901D0002D04D0FF2046
:1027900004E00429FBD0F6E7FEF7BEFC20702046DB
:1027A0004CF7B6F9002070BD70B518460D46744A56
:1027B00001466423921C734859F7FAF904466422CF
:1027C00029465BF773FC20464CF7A2F9002070BD48
:1027D000F8B518460E466A4A01460123D21C6948DC
:1027E00059F7E6F931780125002404291ED0032980
:1027F0001CD002291AD0012918D0002916D0057042
:102800004CF786F94AF7FCFD00940098401C0090B4
:10281000C828FADB377808220B265B485B493B0067
:102820005BF798FC0514100C090609000470E7E733
:1028300005700C700EE002700E700BE01122027039
:10284000062206E0342202700D7003E06822027056
:1028500003220A700322097800783FF763FF002003
:102860003FF7BCFF3FF782FF0020AAE4F8B50E4611
:10287000069C0168074600250819904201D90125E8
:102880000FE0002B07D0306802199A4200D90225C8
:1028900022465BF70BFC3868001938603068001975
:1028A000306028468DE4F0B587B004460390C81820
:1028B000049102901088154607190020002926D09F
:1028C000022000903B4603A904A8029AFFF7CEFF1E
:1028D000002818D104983B460678A01C03900120DC
:1028E000009003A904A8029AFFF7C0FF00280AD1AC
:1028F000B006000EE11C039100903B4603A904A81A
:10290000029AFFF7B3FF0399091B29809DE58821EF
:1029100011809AE5F0B587B00646C81802AF43C7E4
:10292000108815468019019000200C46002924D0FB
:102930000127009704A903A8019B029AFFF796FFBD
:10294000002816D1601C0390009704A903A8019BDE
:10295000029AFFF78BFF00280BD16078A41C800639
:10296000000E0090039404A903A8019B029AFFF7AC
:102970007DFF0499891B298067E50021118064E5AA
:1029800012FE000001080000454CFD07464CFD0703
:1029900038B518460C46FD220146022312021248A1
:1029A00059F706F921786A4611709021417000218B
:1029B00001704CF7ADF8002038BD38B518460C460C
:1029C00001460323094A084859F7F2F821786A4674
:1029D000117091214170FF218170002101704CF72D
:1029E00097F8002038BD00000108000001FD00003C
:1029F00018B5F24900220A6005200007448A4023E6
:102A00001C434482448A9C4344824A61EC4B8B625F
:102A100001231B04CB6201888023194301800092AB
:102A20000098401C00906428FADB18BDF7B582B00E
:102A300016460446002513E0FFF7DAFF00200246A1
:102A40000090E10802230398FEF7C9FC01214840E9
:102A50000746FEF77DFC0834002F03D1AD1CADB254
:102A6000B542E9D305200007018880229143018007
:102A7000002005B0F0BD70B515460E460446FFF7C0
:102A8000B7FF0020FEF798FC2A46214630465BF748
:102A90000DFBFEF75DFC70BD38B5CA4C20780028F0
:102AA0001ED1C94801786846017025214170C74888
:102AB00001786846817047F7B0FAC548016AC213C9
:102AC00011430162016A021491430162016A821496
:102AD00091430162016A490A49020162052020709E
:102AE00038BD10B5B74C2078012805D020780228D1
:102AF00002D02078052807D1B648806D3FF777FED1
:102B00000021084659F7D7F90020207010BD38B5CC
:102B1000AC4C2078002819D1A080AB4801786846D9
:102B2000017061784170A94801786846817047F763
:102B300074FAA84D05E0684647F76FFA002800D000
:102B4000FEE7A86D0028F6D00120207038BD38B50A
:102B50009C4C207800280ED19F494860C86088604E
:102B6000086008829848007869460870684647F708
:102B7000CEFA0220207038BD10B502780021002A5C
:102B800001D0032A03D14378072B00D90121837890
:102B9000002B01D0032B03D1C478072C00D90121CD
:102BA000012A03D14478052C00D90121012B03D13E
:102BB000C478052C00D90121022A03D14278092AC0
:102BC00000D90121022B03D1C078092800D90121A5
:102BD000084610BDF8B5044600267D200001009689
:102BE0000099491C00918142FADB7C4D009600233C
:102BF000697828781A46FEF77CFA00960023E9786F
:102C0000A8781A46FEF775FAE378A27861782078FA
:102C1000FFF712F8FEF7FDFFF8BD71490A8A520767
:102C2000FCD56F4A603A1082088A4007FCD5FF2025
:102C300001301082088B0028FCD0108AC0B2704787
:102C4000674A138A5B07FCD5654B603B1882198283
:102C5000108A4007FCD5108A8006FCD47047614971
:102C60000022488008888004FCD50120C88048885C
:102C700080187047F8B50F4604461D46164619469B
:102C80001046FEF722FA2046FFF7E9FF3846FFF725
:102C9000E6FF29463046FEF722FAF8BD70B50E462B
:102CA0000446154611463046FEF70FFA80202043B1
:102CB000FFF7D5FF0020FFF7D2FFC4B22946304608
:102CC000FEF70DFA204670BD014600B500200B004E
:102CD0005BF740FA261416191C1F22252815152B00
:102CE0002E3134373A151515153D404346494C4FA2
:102CF0005255585B5E6164676A6D70153A4800BD55
:102D00003948801C00BD3848001D00BD3648801D74
:102D100000BD3548083000BD33480A3000BD324898
:102D20000C3000BD30480E3000BD2F48203000BDB3
:102D30002D48223000BD2C48243000BD2A482630C2
:102D400000BD2948283000BD27482A3000BD26484C
:102D5000403000BD2448423000BD2348443000BD0F
:102D60002148463000BD2048483000BD1E484A304A
:102D700000BD1D484C3000BD1B484E3000BD1A48F8
:102D8000503000BD1848523000BD1748803000BD9B
:102D90001548823000BD1448843000BD124886308A
:102DA00000BD1148883000BD0F488A3000BD0E4874
:102DB0008C3000BD0C488E3000BD00000000F407D0
:102DC000204F101A1A48FD071948FD071848FD073B
:102DD000C00000406479FD072449FD07474CFD070A
:102DE000601300500012005006300050FE49484366
:102DF000012102E000BF00BF491C8142FAD970479F
:102E0000FA49FF2804D8002805D0FF20013002E04D
:102E1000884200D908460521090748800220E5E7D5
:102E2000F8B50027F24900978A78521C8A700A2167
:102E30005BF7C2F801228A40D1B2002807D00128EE
:102E400007D0022808D0032809D00020F8BDE9489F
:102E500007E0E848203004E0E648403001E0E5487B
:102E60008030E64CE44E6661A761226904231A4370
:102E70002261EFF31085012282F3108800F000FA3E
:102E800000902069400840002061002D0CD00120F6
:102E900080F310880098D649301A0F70B04201D1E3
:102EA00001220A704860F8BD0020F1E7F8B50D4630
:102EB00007461C46501B01F0CFF80646781B01F070
:102EC000CBF8314601F08AF800900698001B01F01B
:102ED000C3F8009901F045F8009001F0C8F8001916
:102EE000F8BDF1B5C24E022782B040367F1C706833
:102EF000FFB2BD000090A8198038C36FBC481030E5
:102F0000426828188038C16FBD48FFF7CFFF0446DC
:102F1000FF2802DCFF24013403E0B448844200DDD2
:102F2000044674517059FFF76BFF0298FFF778FF62
:102F30000146AF48103041514259AD498A6041596C
:102F4000AF480A38814201DA0A2FCFD3A8480021BE
:102F500081702046FEBDF1B5A64DA649A54C009E48
:102F60000320A44A000220354031803433005BF74F
:102F7000F1F826141A20262C32383ED3D3444A5076
:102F8000565C62D3D3D3D3686E747A80868C929861
:102F90009EA4AAB0B6BCC2C8CED3D1888143FF31AB
:102FA0000131D180B8E011898143FF3101311181B4
:102FB000B2E051898143FF3101315181ACE0918907
:102FC0008143FF3101319181A6E0D1898143FF31F5
:102FD0000131D181A0E0118A8143FF310131118299
:102FE0009AE0518A8143FF310131518294E0918A04
:102FF0008143FF31013191828EE0E9888143FF31C5
:103000000131E98088E029898143FF31013129813B
:1030100082E069898143FF31013169817CE0A989BE
:103020008143FF310131A98176E0E9898143FF3194
:103030000131E98170E0298A8143FF310131298220
:103040006AE0CA888243FF320132CA8064E00A899A
:103050008243FF3201320A815EE04A898243FF32B5
:1030600001324A8158E08A898243FF3201328A81E3
:1030700052E0CA898243FF320132CA814CE00A8A97
:103080008243FF3201320A8246E04A8A8243FF329B
:1030900001324A8240E08A8A8243FF3201328A82C8
:1030A0003AE0CA8A8243FF320132CA8234E00A8B94
:1030B0008243FF3201320A832EE0E1888143FF31EF
:1030C0000131E18028E021898143FF3101312181F3
:1030D00022E061898143FF31013161811CE0A189D6
:1030E0008143FF310131A18116E0E1898143FF3144
:1030F0000131E18110E0218A8143FF3101312182D8
:103100000AE0618A8143FF310131618204E0A18AD2
:103110008143FF310131A182354E002040363746D0
:10312000303734460146303C8200B150B950A1508E
:10313000401CC0B20A28F7D93248B060B068FFF727
:103140005FFE0098FFF76CFEF860294D2878002894
:1031500074D128467030C068294FB8422DDDAF21A8
:103160008900284640308160264941608068FFF729
:1031700047FE0098FFF754FE2E467036B060F068A8
:103180006060B068A06002206870B068B84252DD2C
:10319000FF210131284640308160AF218900416024
:1031A0008068FFF72DFE0098FFF73AFE7060B06868
:1031B00060607068A06001203CE00D48114940301B
:1031C00081601921890141604068FFF719FE00986C
:1031D000FFF726FE064E7036306130696060F06899
:1031E000A060032068700FE0F1060000FF070000F8
:1031F0002448FD0700300050FFFFFF0000E000E022
:10320000FC117A007E0400003069B84213DA1921FB
:103210008901304630388160174941604068FFF7C6
:10322000EFFD0098FFF7FCFD706170696060306928
:10323000A060042068702878002805D00020FFF7DF
:10324000DFFD0120C043F8BD0098FFF74AFE0B499F
:1032500068684118502902DC381A502805DD002022
:10326000FFF7CEFD0020C043F8BD052000074088D1
:10327000E860E868F8BD0000FF070000FCED85FF8E
:103280003EB50D4D6D1E14D002880A42FAD16D1E56
:103290000FD002880A42FAD0084A13680124234357
:1032A00013606D1E05D002880A42FAD1044A1068E4
:1032B0003EBD00203EBD0000C0C62D0010E000E075
:1032C00018E000E010B50446C1B2062000F0C1F8D5
:1032D000210A072000F0BDF800F0B0F810BD10B5CD
:1032E0000446C1B2002000F0B4F8210A012000F029
:1032F000B0F800F0A3F810BD10B50024002803D0EA
:103300000121401E81408CB2E1B2042000F0A1F8FE
:10331000210A052000F09DF800F090F810BD10B5CE
:103320000446C1B2022000F094F8210A032000F004
:1033300090F800F083F810BDC10710B5C90F082040
:1033400000F087F800F07AF810BD10B500F03EF8F4
:103350000020FFF7F1FF0020FFF7E1FF0020FFF75B
:10336000CBFF0020FFF7BBFF0020FFF7ABFF10BD36
:1033700010B501460B2000F06CF800F05FF810BDAE
:1033800010B50446002000F076F8012000F073F834
:103390007D20C000604300F079F8002000F06BF859
:1033A00010BD10B50021092000F053F800F046F8D8
:1033B0000121092000F04DF800F040F8002109201B
:1033C00000F047F800F03AF810BD00002E49002246
:1033D0000A8003200002C880088148818881C88152
:1033E000088248828882284940390A80C88008813A
:1033F00048818881C88108827047234908807047C6
:10340000214940390A88000712091201000F0243BE
:103410000A8070471C4A403A11881023C00799431C
:10342000C00E014311807047174A403A118820238B
:10343000C0079943800E01431180704700B50020FA
:10344000FFF7F2FF0120FFF7EFFF0020FFF7ECFF8F
:1034500000BD30B505460C460020FFF7DBFF0A48EB
:1034600004802846FFF7CCFF0120FFF7D3FF0020A0
:10347000FFF7D0FF30BD00B501460A20FFF7E9FF96
:10348000FFF7DCFF00BD000080300050010107485D
:10349000814200D9014606480022026141618261F1
:1034A000052101610169C903FCD57047FFFFFF00D9
:1034B00000E000E010B500231E4A19461E4858F7E8
:1034C00077FB4BF725FB10BD70B51C4D0024287809
:1034D0002646012806D11A48806D002802D12E7098
:1034E000FFF715FB17480188174A1288914207D346
:1034F0002978012904D10680FFF7DCFFFFF7F1FAF4
:1035000058F76BFFFDF741FB0100104807D0016839
:103510004A1E0260002900DD0124204670BD0124FE
:1035200064210160F9E700207047704710B5FDF78E
:10353000C7FA10BD0BFE0000010800001A48FD0785
:103540006479FD071E48FD071C48FD07C848FC07B5
:1035500070B50E460446002203214EF7FCF90546DD
:103560004FF7C8FB688028464EF706FA4FF7C2FBB4
:103570007188884200D30846014620464EF7E3FA98
:10358000002070BD10B5A0220B490C485AF78EFDE3
:103590000949502250390A485AF788FD0748094915
:1035A000A030016004495839416004490648203977
:1035B000086010BD70470000A846FC0720000840C6
:1035C000C000FC078CBFF10701001000F0B53748C0
:1035D00087B0018906914188354D0591A9890491EB
:1035E000698B344AC9B212880392334AD289334C68
:1035F000029222880192C2880092314A01260389F0
:1036000076037711BB4303814388B7103B43438064
:10361000A889000A000296310843A881254838216C
:10362000018025480027C781107800280DD0254843
:10363000218800687211114321802188090A09023A
:103640004030007D0143218002E0142000F0AEF9FB
:103650001848878001880188012211430180018870
:10366000C907FCD000E0761E0188C90701D0002EF2
:10367000F9D187800D49069A0A81059A4A80049AF1
:10368000AA81039A02800C4B029ADA81019A228065
:10369000009ACA80002E02D0012007B0F0BD018838
:1036A0004908490001800020F7E70000002C005085
:1036B000002500500022005000240050002000503F
:1036C0005847FC074C76FD07F0B5324885B00188B5
:1036D00003914188029130490989304B0191198841
:1036E0002F4C009127882F49CE8803256D022E4943
:1036F0000022028022224280FF222748D13202810A
:103700002C221A800878FF21013100280CD027488C
:10371000228800680A4322802188090A0902403071
:10372000C07C014321800AE0208808432080208853
:10373000000A000213302080132000F037F91748E8
:10374000002181800288028801231A4302800288B6
:10375000D207FCD000E06D1E0288D20701D0002DF8
:10376000F9D181800B49039A0A80029A4A800A4A59
:10377000019911810099018027800A49CE80002D8E
:1037800002D0012005B0F0BD018849084900018040
:103790000020F7E70024005060280050002200506D
:1037A00000200050002C00505847FC074C76FD07C5
:1037B00030B5624802880321490234230380002384
:1037C00083800488048801252C4304800488E4074E
:1037D000FCD000E0491E0488E40701D00029F9D19B
:1037E00083800280002901D0012030BD0188490872
:1037F00049000180002030BDF8B5514C6088C607F3
:103800006088F60FC005C50F6088400840006080E2
:103810006088FF270137B8436080FFF7C9FF0028A1
:1038200005D0FFF751FF002801D0FFF7CFFE6188D8
:10383000A1886188490849003143618061882A0272
:10384000B94311436180F8BDF8B53D4C6088C607A7
:103850006088F60FC005C50F608840084000608092
:103860006088FF270137B84360803FF7A9F83FF72A
:10387000ADF80022082102203FF79CF8002800D074
:1038800001206188A188618849084900314361802D
:1038900061882A02B94311436180F8BD70B50125E2
:1038A00028492A020A6028490A6028490B681C0A2C
:1038B000240240231C430C60224980390A602049BD
:1038C0004C880626B443241D4C804C882C434C80E5
:1038D0004C8838252C434C804C889C434C800128D4
:1038E0000FD14888330218434880488810434880E5
:1038F00048882A0210434880488801229203904356
:10390000488070BD10B5124CE18A124ACBB21189C1
:10391000248BC904890E6404640E001B09314143E1
:103920000120C002401A80B2584340031189000EA2
:10393000090A09020143118110BD00000022005054
:103940002020005080E100E080E200E008E400E098
:1039500000230050002C005010B50F49032058F7E9
:1039600078FA0021032058F7A6FA10BD10B50446D6
:1039700001230A4A00210A4858F71AF909498C42DA
:1039800001D1032103E008498C4201D100210170DB
:103990004BF7BEF810BD00004847FC0711FC0000C3
:1039A00001080000A5A5A5A5C3C3C3C3064A4108D5
:1039B000515CC207054801D0090901E00907090F58
:1039C0001031C18070470000AC4EFD07002C005044
:1039D00010B50C460123FE4A0021FE4858F7E8F8CE
:1039E000FD4A21781170002101704BF791F80020F9
:1039F00010BD10B5F64A0C460123521E0021F548B1
:103A000058F7D6F8F54A21781170002101704BF76C
:103A10007FF8002010BD10B5ED4A0C460123921E20
:103A20000021EC4858F7C4F8ED49A288CA872288DB
:103A30004A870A46E3884032138062888A870021D9
:103A400001704BF765F8002010BD10B51A468223AF
:103A50000021E04858F7ACF8112101704BF758F8F5
:103A6000002010BDDA4A10B50123413A0021D9489F
:103A700058F79EF8112101704BF74AF8002010BD4D
:103A8000D34A10B50123403A0021D24858F790F8A4
:103A9000112101704BF73CF8002010BD10B51A46FB
:103AA00002230021CB4858F783F8112101704BF70E
:103AB0002FF8002010BD10B51A4601230021C5487B
:103AC00058F776F8112101704BF722F8002010BD4D
:103AD00010B51A4601230021BE4858F769F8112194
:103AE00001704BF715F8002010BD10B51A4682235F
:103AF0000021B84858F75CF8112101704BF708F81D
:103B0000002010BD10B51A4682230021B14858F795
:103B10004FF800214170112101704AF7F9FF002090
:103B200010BD10B51A4601230021AA4858F740F8E5
:103B3000112101704AF7ECFF002010BDA44A10B516
:103B40000823333A0021A34858F732F80446031DEE
:103B5000C21C811C401C57F703FE014600200029AF
:103B60000BD0112121706070A070E070A080E08007
:103B700020464AF7CDFF002010BD2070F7E77FB543
:103B800008460C3858F757F857F7FFFF00246D46E2
:103B90000390204657F7F3FF61004919641CE4B213
:103BA0004880042CF5D38A4A1023313A00218948F1
:103BB00057F7FEFF6D461ECD1EC000211038017064
:103BC0004AF7A6FF012004B070BDF8B5804A0F4641
:103BD00008230A3A00217F4857F7EAFF814D04463F
:103BE000286B6E12B043304328637F493888496A96
:103BF00088476060286BB043002128633888608064
:103C0000217020464AF784FF0020F8BDF8B5704ABD
:103C10000D460423093A00216E4857F7C9FF714E3B
:103C20000446306B7712B843384330636E4A2888B5
:103C3000926A69689047306BB843002130632888E6
:103C40006080217020464AF763FF0020F8BD70B500
:103C500018460D465E4A01460123323A5D4857F741
:103C6000A7FF04462878002802D0012805D101E0EA
:103C70005E4800E05E483EF7B5FD12202070204609
:103C80004AF746FF002070BD10B518460C46504A52
:103C900001460823133A4F4857F78AFF218801222B
:103CA00092078918096841602188418000210170CC
:103CB0004AF72EFF002010BD10B518460C46444AA6
:103CC00001460423123A434857F772FF2288012322
:103CD0009B07D21861681160218841800021017022
:103CE0004AF716FF002010BD10B51C46084648F7DD
:103CF000FCFB374A0123113A2146364857F758FF53
:103D0000002101704AF704FF002010BD70B50C8837
:103D100018461646082C00D30824CA788B7815025A
:103D200052225443334A1D431368E31880331D83E2
:103D30000B791168611880314A8B120A12021A43FA
:103D40004A83234A014601230E3A224857F730FF9F
:103D5000002101704AF7DCFE0021304658F7ABF82D
:103D6000002070BD10B588781C46002801D00122C3
:103D700000E000220888114642F780FB144A012324
:103D80000D3A2146134857F713FF002101704AF7F7
:103D9000BFFE002010BD70B518460C460C4A014607
:103DA00001230C3A0B4857F703FF227852214A436C
:103DB000104900230D685219C0321382227852250F
:103DC0006A430D685219C03253822278522413E09C
:103DD00043FC000001080000B476FD07DD76FD0716
:103DE000A479FD0740000040B47FFD07C3C3C3C3EF
:103DF000A5A5A5A54C76FD07096862435118C031F9
:103E00008B82002101704AF783FE002070BD70B5DF
:103E100018460C4601460123314A324857F7C8FE7E
:103E2000227852214A43304900230D685219C0328A
:103E30005381227852256A430D685219C03293810A
:103E400022785224096862435118C031CB81002185
:103E500001704AF75DFE002070BD70B51846164629
:103E60000D461F4A01460123D21C1E4857F7A0FEEB
:103E700004462888082800D3082044F749FA002877
:103E800005D000212170A9786430017701E012206B
:103E9000207020464AF73CFE0021304658F70BF8C8
:103EA000002070BDF8B50E4610491C46154600208E
:103EB000C2008A5AA24209D1C00040184768002FA8
:103EC00007D02A4631461846B84702E0401C192858
:103ED000EED3224631462846FDF702FFF8BD00002A
:103EE00038FC0000010800004C76FD077047FC0715
:103EF000F0B51FB40646002082B00546402401916B
:103F000000901BE0019922460F46304600F0C8F8A9
:103F1000049A059B801A994110D3104619462246EF
:103F20005AF708F9361A8F410197224601200021DD
:103F3000009F5AF7FFF838184D4100902046641E44
:103F40000028DFDC019B00982946324607B0F0BD0F
:103F500003460A780270401C491C002AF9D1184611
:103F60007047024670B54A40D30FDB0740002DD0A2
:103F70004A002AD0010E140E000212020919400A4A
:103F8000520A8418E50104465443000A120A2E041A
:103F90005043A4194219200CC543AA18120C01253C
:103FA000AD03521C521912047F39240400D0521C54
:103FB000104301D44000491EC2B20C06C0092018AB
:103FC000401C4008802A02D003E0002070BD400859
:103FD0004000002900DA0020184370BD70B5024689
:103FE0004A40D50F40004A00ED074008520800281B
:103FF00014D0002A12D0C40DD30D41020120C005F7
:104000005202490A520AE41A091812187D349142E0
:1040100001D3641C00E04900002C01DA002070BDCF
:104020000023914201D3891A034340084900002824
:10403000F7D100290AD0914202D10121C90705E038
:10404000914201D2012101E00121C943E005C018DC
:10405000401900F036F870BDC217C10F504010B5BE
:104060004018CA079623002100F033F810BDC20F94
:10407000410040020123400ADB05D207090EC018A7
:104080007F2901DA00207047962903DC9623591A0C
:10409000C84001E096398840002AF4D04042704779
:1040A00010B5202A04DB0846203AD040002110BD7C
:1040B0000B46D340D0402024A21A91400843194611
:1040C00010BD002904DA401C490001D1400840001D
:1040D000704770B40024050C05D11024000402D1EF
:1040E000002921D01124050E01D100020834050F4A
:1040F00001D10001241D850F01D18000A41C0028DE
:1041000001DB4000641C002908D020252E1B0D4631
:10411000F540A14000D001212943084301061B1BA3
:10412000000ADB1D02D5002070BC7047DB051818A3
:1041300080180029F8DA401C4900F5D170BC40080D
:1041400040007047064C0125064E05E0E36807CCA9
:104150002B430C3C98471034B442F7D3FCF7DCF9FE
:104160009448FC07C448FC07F8B5040C8BB22646FB
:1041700082B25E430D0C1046370C5843360480194A
:104180000021794116466E43370C36048019794177
:1041900026466E438919F8BD02E008C8121F08C1FF
:1041A000002AFAD170477047002001E001C1121FB8
:1041B000002AFBD17047F401222222CAEA80D007EC
:1041C00006406432DD14FC075B15FC074BD3F00797
:1041D000A9D3F007B1D3F00701D4F00719D4F00741
:1041E0002FD4F00751D4F007E1D7F00781DAF007B8
:1041F000C1D8F007E1D8F00701D9F0073FD9F0079F
:104200004FD9F007FBEEF007D5ECF007F3ECF00721
:104210000FEDF00729EDF0073DEDF007BFEDF007DA
:10422000D7EDF0073FBEF10749C0F10773AFF007C4
:10423000B906FC077107FC076D07FC076907FC0757
:10424000ED21F007AB0AFC075F16FC07530EFC07D5
:10425000ED0DFC07EF0DFC07FF75F007C974F007C3
:104260006B75F0077190F1071F40F107351BFC07D4
:104270008F1BFC07931BFC079F1BFC07AB1BFC075A
:10428000DB1BFC07000000005939FC076D39FC07F7
:1042900057BBF0070986F107018BF107778FF1070C
:1042A0005F8EF107AB56F1075366F1077F17F107F1
:1042B00073F9F007810AFC07D599F007C3C7F00727
:1042C000EBB2F00723B3F007CDB3F007BF2DF00733
:1042D000532EF0075B78F0072577F007F535F007E8
:1042E000000000009B0AFC07A30AFC07830AFC07E6
:1042F00095D5F0078BD6F007D7D6F0078FB5F10725
:104300002FB6F107BFB6F107000000000000000063
:10431000000000000000000000000000000000009D
:10432000000000000000000000000000000000008D
:10433000000000000000000000000000000000007D
:10434000000000000000000005000000D04EFC0747
:1043500000040000CC52FD0768020000C04EFD07BB
:10436000000400004055FD07700500002003000018
:10437000803E000005000000D20000003200000076
:104380003C000000010000000100000002000000ED
:10439000020000000400000003000000060000000E
:1043A0000000000002000000020000000000000009
:1043B00000000000030000000300000005000000F2
:1043C00005000000060000000A0000000A000000CE
:1043D000C8000000B80B000002000000B80B00008D
:1043E000B80B000010000000D4010000E50100003F
:1043F000700200006A0000000400000001000000DC
:1044000020000000504600030003983A6400F401C5
:10441000B80BB80BB80B000CB80B12003000300012
:10442000CD009A011200240030006400B000180092
:10443000280012001200D0070000FFFF000000005B
:104440006400C8000000D007000244413134353810
:104450003500000000000000000000000000000027
:1044600000FE07007848FC078848FC0701FE0700AB
:104470006C48FC070000000002FE07005048FC07E3
:104480008848FC0703FE07005C48FC075C48FC0703
:1044900004FE07017448FC071529FC0705FE070206
:1044A000A728FC077048FC0706FE07009048FC0799
:1044B0008C48FC0707FE0700000000000000000019
:1044C00008FE0700000000005848FC0709FE07002E
:1044D0005448FC078848FC070AFE07007C48FC0794
:1044E000000000000BFE07006448FC07000000000D
:1044F0000CFE07007848FC07000000000DFE0700D6
:10450000000000008048FC070EFE07007048FC0712
:10451000000000000FFE07007048FC0700000000CC
:1045200010FE0700000000000000000011FE070060
:104530006048FC078848FC0712FE07005448FC0747
:104540007848FC0713FE07007848FC077848FC070A
:1045500014FE07004848FC074848FC0715FE070002
:104560007848FC077848FC071600000000FE0000B1
:10457000C91DFC0701FE00005722FC0702FE0000D7
:10458000791FFC0703FE0000F31EFC0704FE000079
:104590004D23FC0705FE0000BD23FC0706FE0000BE
:1045A000771EFC0707FE0000E91DFC0708FE00005F
:1045B000FF1DFC0709FE0000331EFC070AFE000079
:1045C000CD22FC070BFE00001922FC070CFE0000A8
:1045D000BD20FC070DFE0000E720FC070EFE0000DA
:1045E0002521FC070FFE0000C51EFC0710FE000081
:1045F0008F20FC0711FE00004F24FC0712FE000074
:104600008D26FC0713FE00004927FC0714FE00005E
:10461000A927FC0715FE0000D127FC0716000000A3
:1046200000FD07007848FC077048FC0701FD070003
:104630007848FC075048FC070200000000FD00001D
:104640009129FC0701FD0000BB29FC0702000000C6
:1046500000000000000000005135FC0700000000D1
:10466000000000000000000000000000000000004A
:10467000000000000000000000000000000000003A
:10468000000000000000000000000000000000002A
:10469000000000000000000000000000000000001A
:1046A0000000000000000000750BF1070000000092
:1046B00000000000000000000000000000000000FA
:1046C00000000000000000000000000000000000EA
:1046D00000000000000000000000000000000000DA
:1046E00000000000000000000000000000000000CA
:1046F00000000000000000000000000000000000BA
:1047000000000000000000000000000000000000A9
:104710000000000000000000000000000000000099
:104720000000000000000000000000000000000089
:104730000000000000000000000000000000000079
:104740000000000000000000000000004048FC07DE
:10475000C448FD07010001000101000A04280A0401
:104760000203AA0055032A00A001FFFF2C0100004C
:1047700001FC00004B3AFC0702FC0000653AFC0714
:1047800003FC0000813AFC0705FC00009D3AFC0791
:1047900006FC0000B73AFC0707FC0000D13AFC0712
:1047A00008FC0000EB3AFC0709FC0000053BFC0795
:1047B0000AFC0000233BFC0710FC00003D3BFC070B
:1047C00039FC0000CB3BFC073AFC00000D3CFC0729
:1047D00011FC00004F3CFC0730FC0000893CFC074A
:1047E00031FC0000B93CFC0732FC0000E93CFC074E
:1047F00035FC00000D3DFC0736FC0000653DFC0764
:1048000037FC0000973DFC0738FC00000F3EFC071A
:104810003BFC00005B3EFC0712FC00007F3BFC07FA
:1048200041FC0000173AFC0742FC0000F339FC078A
:1048300043FC0000D139FC0705080000A53EFC0739
:104840003848FC0701000000313030420000000011
:104850003342000034420000363642004236420005
:10486000313742004242424242000000424242008E
:10487000424200004842000042000000424800005E
:1048800048484848000000004800000042424C00F0
:10489000424C4C00CC48FC07D048FC070C0A0000F6
:1048A000A841FC070448FD070448FD07BC060000BA
:1048B000A841FC070448FD07C04EFD07FC0B0000A3
:0C48C000A841FC07800C00006400000010
:0400000507FC0511DE
:00000001FF
